{
	"SimpleStorage.sol": {
		"SimpleStorage": {
			"abi": [
				{
					"inputs": [
						{
							"internalType": "string",
							"name": "_name",
							"type": "string"
						},
						{
							"internalType": "uint256",
							"name": "_age",
							"type": "uint256"
						}
					],
					"name": "addPeople",
					"outputs": [],
					"stateMutability": "nonpayable",
					"type": "function"
				},
				{
					"inputs": [],
					"name": "favoriteNumber",
					"outputs": [
						{
							"internalType": "uint256",
							"name": "",
							"type": "uint256"
						}
					],
					"stateMutability": "view",
					"type": "function"
				},
				{
					"inputs": [
						{
							"internalType": "string",
							"name": "_name",
							"type": "string"
						}
					],
					"name": "getAgeFromName",
					"outputs": [
						{
							"internalType": "uint256",
							"name": "",
							"type": "uint256"
						}
					],
					"stateMutability": "view",
					"type": "function"
				},
				{
					"inputs": [],
					"name": "getFavoriteNumber",
					"outputs": [
						{
							"internalType": "uint256",
							"name": "",
							"type": "uint256"
						}
					],
					"stateMutability": "view",
					"type": "function"
				},
				{
					"inputs": [],
					"name": "getSizePeople",
					"outputs": [
						{
							"internalType": "uint256",
							"name": "",
							"type": "uint256"
						}
					],
					"stateMutability": "view",
					"type": "function"
				},
				{
					"inputs": [
						{
							"internalType": "uint256",
							"name": "",
							"type": "uint256"
						}
					],
					"name": "listPeople",
					"outputs": [
						{
							"internalType": "string",
							"name": "name",
							"type": "string"
						},
						{
							"internalType": "uint256",
							"name": "age",
							"type": "uint256"
						}
					],
					"stateMutability": "view",
					"type": "function"
				},
				{
					"inputs": [
						{
							"internalType": "string",
							"name": "",
							"type": "string"
						}
					],
					"name": "nameToFavoriteNumber",
					"outputs": [
						{
							"internalType": "uint256",
							"name": "",
							"type": "uint256"
						}
					],
					"stateMutability": "view",
					"type": "function"
				},
				{
					"inputs": [
						{
							"internalType": "uint256",
							"name": "_favoriteNumber",
							"type": "uint256"
						}
					],
					"name": "storeFavoriteNumber",
					"outputs": [],
					"stateMutability": "nonpayable",
					"type": "function"
				}
			],
			"devdoc": {
				"kind": "dev",
				"methods": {},
				"version": 1
			},
			"evm": {
				"assembly": "    /* \"SimpleStorage.sol\":88:986  contract SimpleStorage {... */\n  mstore(0x40, 0x80)\n  callvalue\n  dup1\n  iszero\n  tag_1\n  jumpi\n  0x00\n  dup1\n  revert\ntag_1:\n  pop\n  dataSize(sub_0)\n  dup1\n  dataOffset(sub_0)\n  0x00\n  codecopy\n  0x00\n  return\nstop\n\nsub_0: assembly {\n        /* \"SimpleStorage.sol\":88:986  contract SimpleStorage {... */\n      mstore(0x40, 0x80)\n      callvalue\n      dup1\n      iszero\n      tag_1\n      jumpi\n      0x00\n      dup1\n      revert\n    tag_1:\n      pop\n      jumpi(tag_2, lt(calldatasize, 0x04))\n      shr(0xe0, calldataload(0x00))\n      dup1\n      0x8bab8dd5\n      gt\n      tag_11\n      jumpi\n      dup1\n      0x8bab8dd5\n      eq\n      tag_7\n      jumpi\n      dup1\n      0xa621d15e\n      eq\n      tag_8\n      jumpi\n      dup1\n      0xc03ece06\n      eq\n      tag_9\n      jumpi\n      dup1\n      0xc6a3d590\n      eq\n      tag_10\n      jumpi\n      jump(tag_2)\n    tag_11:\n      dup1\n      0x13a2c5bb\n      eq\n      tag_3\n      jumpi\n      dup1\n      0x452e7591\n      eq\n      tag_4\n      jumpi\n      dup1\n      0x471f7cdf\n      eq\n      tag_5\n      jumpi\n      dup1\n      0x795fff1d\n      eq\n      tag_6\n      jumpi\n    tag_2:\n      0x00\n      dup1\n      revert\n        /* \"SimpleStorage.sol\":756:850  function getSizePeople() public view returns (uint ) {... */\n    tag_3:\n      tag_12\n      tag_13\n      jump\t// in\n    tag_12:\n      mload(0x40)\n      tag_14\n      swap2\n      swap1\n      tag_15\n      jump\t// in\n    tag_14:\n      mload(0x40)\n      dup1\n      swap2\n      sub\n      swap1\n      return\n        /* \"SimpleStorage.sol\":320:346  Person[] public listPeople */\n    tag_4:\n      tag_16\n      0x04\n      dup1\n      calldatasize\n      sub\n      dup2\n      add\n      swap1\n      tag_17\n      swap2\n      swap1\n      tag_18\n      jump\t// in\n    tag_17:\n      tag_19\n      jump\t// in\n    tag_16:\n      mload(0x40)\n      tag_20\n      swap3\n      swap2\n      swap1\n      tag_21\n      jump\t// in\n    tag_20:\n      mload(0x40)\n      dup1\n      swap2\n      sub\n      swap1\n      return\n        /* \"SimpleStorage.sol\":163:189  uint public favoriteNumber */\n    tag_5:\n      tag_22\n      tag_23\n      jump\t// in\n    tag_22:\n      mload(0x40)\n      tag_24\n      swap2\n      swap1\n      tag_15\n      jump\t// in\n    tag_24:\n      mload(0x40)\n      dup1\n      swap2\n      sub\n      swap1\n      return\n        /* \"SimpleStorage.sol\":577:745  function addPeople(string memory _name, uint _age) public {... */\n    tag_6:\n      tag_25\n      0x04\n      dup1\n      calldatasize\n      sub\n      dup2\n      add\n      swap1\n      tag_26\n      swap2\n      swap1\n      tag_27\n      jump\t// in\n    tag_26:\n      tag_28\n      jump\t// in\n    tag_25:\n      stop\n        /* \"SimpleStorage.sol\":262:313  mapping(string => uint) public nameToFavoriteNumber */\n    tag_7:\n      tag_29\n      0x04\n      dup1\n      calldatasize\n      sub\n      dup2\n      add\n      swap1\n      tag_30\n      swap2\n      swap1\n      tag_31\n      jump\t// in\n    tag_30:\n      tag_32\n      jump\t// in\n    tag_29:\n      mload(0x40)\n      tag_33\n      swap2\n      swap1\n      tag_15\n      jump\t// in\n    tag_33:\n      mload(0x40)\n      dup1\n      swap2\n      sub\n      swap1\n      return\n        /* \"SimpleStorage.sol\":477:570  function getFavoriteNumber() public view returns(uint){... */\n    tag_8:\n      tag_34\n      tag_35\n      jump\t// in\n    tag_34:\n      mload(0x40)\n      tag_36\n      swap2\n      swap1\n      tag_15\n      jump\t// in\n    tag_36:\n      mload(0x40)\n      dup1\n      swap2\n      sub\n      swap1\n      return\n        /* \"SimpleStorage.sol\":353:470  function storeFavoriteNumber(uint _favoriteNumber) public virtual  {... */\n    tag_9:\n      tag_37\n      0x04\n      dup1\n      calldatasize\n      sub\n      dup2\n      add\n      swap1\n      tag_38\n      swap2\n      swap1\n      tag_18\n      jump\t// in\n    tag_38:\n      tag_39\n      jump\t// in\n    tag_37:\n      stop\n        /* \"SimpleStorage.sol\":857:983  function getAgeFromName(string calldata _name) public view returns (uint ) {... */\n    tag_10:\n      tag_40\n      0x04\n      dup1\n      calldatasize\n      sub\n      dup2\n      add\n      swap1\n      tag_41\n      swap2\n      swap1\n      tag_42\n      jump\t// in\n    tag_41:\n      tag_43\n      jump\t// in\n    tag_40:\n      mload(0x40)\n      tag_44\n      swap2\n      swap1\n      tag_15\n      jump\t// in\n    tag_44:\n      mload(0x40)\n      dup1\n      swap2\n      sub\n      swap1\n      return\n        /* \"SimpleStorage.sol\":756:850  function getSizePeople() public view returns (uint ) {... */\n    tag_13:\n        /* \"SimpleStorage.sol\":802:806  uint */\n      0x00\n        /* \"SimpleStorage.sol\":825:835  listPeople */\n      0x02\n        /* \"SimpleStorage.sol\":825:842  listPeople.length */\n      dup1\n      sload\n      swap1\n      pop\n        /* \"SimpleStorage.sol\":818:842  return listPeople.length */\n      swap1\n      pop\n        /* \"SimpleStorage.sol\":756:850  function getSizePeople() public view returns (uint ) {... */\n      swap1\n      jump\t// out\n        /* \"SimpleStorage.sol\":320:346  Person[] public listPeople */\n    tag_19:\n      0x02\n      dup2\n      dup2\n      sload\n      dup2\n      lt\n      tag_46\n      jumpi\n      0x00\n      dup1\n      revert\n    tag_46:\n      swap1\n      0x00\n      mstore\n      keccak256(0x00, 0x20)\n      swap1\n      0x02\n      mul\n      add\n      0x00\n      swap2\n      pop\n      swap1\n      pop\n      dup1\n      0x00\n      add\n      dup1\n      sload\n      tag_48\n      swap1\n      tag_49\n      jump\t// in\n    tag_48:\n      dup1\n      0x1f\n      add\n      0x20\n      dup1\n      swap2\n      div\n      mul\n      0x20\n      add\n      mload(0x40)\n      swap1\n      dup2\n      add\n      0x40\n      mstore\n      dup1\n      swap3\n      swap2\n      swap1\n      dup2\n      dup2\n      mstore\n      0x20\n      add\n      dup3\n      dup1\n      sload\n      tag_50\n      swap1\n      tag_49\n      jump\t// in\n    tag_50:\n      dup1\n      iszero\n      tag_51\n      jumpi\n      dup1\n      0x1f\n      lt\n      tag_52\n      jumpi\n      0x0100\n      dup1\n      dup4\n      sload\n      div\n      mul\n      dup4\n      mstore\n      swap2\n      0x20\n      add\n      swap2\n      jump(tag_51)\n    tag_52:\n      dup3\n      add\n      swap2\n      swap1\n      0x00\n      mstore\n      keccak256(0x00, 0x20)\n      swap1\n    tag_53:\n      dup2\n      sload\n      dup2\n      mstore\n      swap1\n      0x01\n      add\n      swap1\n      0x20\n      add\n      dup1\n      dup4\n      gt\n      tag_53\n      jumpi\n      dup3\n      swap1\n      sub\n      0x1f\n      and\n      dup3\n      add\n      swap2\n    tag_51:\n      pop\n      pop\n      pop\n      pop\n      pop\n      swap1\n      dup1\n      0x01\n      add\n      sload\n      swap1\n      pop\n      dup3\n      jump\t// out\n        /* \"SimpleStorage.sol\":163:189  uint public favoriteNumber */\n    tag_23:\n      sload(0x00)\n      dup2\n      jump\t// out\n        /* \"SimpleStorage.sol\":577:745  function addPeople(string memory _name, uint _age) public {... */\n    tag_28:\n        /* \"SimpleStorage.sol\":645:655  listPeople */\n      0x02\n        /* \"SimpleStorage.sol\":661:692  Person({name:_name , age:_age}) */\n      mload(0x40)\n      dup1\n      0x40\n      add\n      0x40\n      mstore\n      dup1\n        /* \"SimpleStorage.sol\":674:679  _name */\n      dup5\n        /* \"SimpleStorage.sol\":661:692  Person({name:_name , age:_age}) */\n      dup2\n      mstore\n      0x20\n      add\n        /* \"SimpleStorage.sol\":686:690  _age */\n      dup4\n        /* \"SimpleStorage.sol\":661:692  Person({name:_name , age:_age}) */\n      dup2\n      mstore\n      pop\n        /* \"SimpleStorage.sol\":645:693  listPeople.push(Person({name:_name , age:_age})) */\n      swap1\n      dup1\n      0x01\n      dup2\n      sload\n      add\n      dup1\n      dup3\n      sstore\n      dup1\n      swap2\n      pop\n      pop\n      0x01\n      swap1\n      sub\n      swap1\n      0x00\n      mstore\n      keccak256(0x00, 0x20)\n      swap1\n      0x02\n      mul\n      add\n      0x00\n      swap1\n      swap2\n      swap1\n      swap2\n      swap1\n      swap2\n      pop\n      0x00\n      dup3\n      add\n      mload\n      dup2\n      0x00\n      add\n      swap1\n      dup2\n      tag_56\n      swap2\n      swap1\n      tag_57\n      jump\t// in\n    tag_56:\n      pop\n      0x20\n      dup3\n      add\n      mload\n      dup2\n      0x01\n      add\n      sstore\n      pop\n      pop\n        /* \"SimpleStorage.sol\":733:737  _age */\n      dup1\n        /* \"SimpleStorage.sol\":703:723  nameToFavoriteNumber */\n      0x01\n        /* \"SimpleStorage.sol\":724:729  _name */\n      dup4\n        /* \"SimpleStorage.sol\":703:730  nameToFavoriteNumber[_name] */\n      mload(0x40)\n      tag_58\n      swap2\n      swap1\n      tag_59\n      jump\t// in\n    tag_58:\n      swap1\n      dup2\n      mstore\n      0x20\n      add\n      mload(0x40)\n      dup1\n      swap2\n      sub\n      swap1\n      keccak256\n        /* \"SimpleStorage.sol\":703:737  nameToFavoriteNumber[_name] = _age */\n      dup2\n      swap1\n      sstore\n      pop\n        /* \"SimpleStorage.sol\":577:745  function addPeople(string memory _name, uint _age) public {... */\n      pop\n      pop\n      jump\t// out\n        /* \"SimpleStorage.sol\":262:313  mapping(string => uint) public nameToFavoriteNumber */\n    tag_32:\n      0x01\n      dup2\n      dup1\n      mload\n      0x20\n      dup2\n      add\n      dup3\n      add\n      dup1\n      mload\n      dup5\n      dup3\n      mstore\n      0x20\n      dup4\n      add\n      0x20\n      dup6\n      add\n      keccak256\n      dup2\n      dup4\n      mstore\n      dup1\n      swap6\n      pop\n      pop\n      pop\n      pop\n      pop\n      pop\n      0x00\n      swap2\n      pop\n      swap1\n      pop\n      sload\n      dup2\n      jump\t// out\n        /* \"SimpleStorage.sol\":477:570  function getFavoriteNumber() public view returns(uint){... */\n    tag_35:\n        /* \"SimpleStorage.sol\":526:530  uint */\n      0x00\n        /* \"SimpleStorage.sol\":548:562  favoriteNumber */\n      dup1\n      sload\n        /* \"SimpleStorage.sol\":541:562  return favoriteNumber */\n      swap1\n      pop\n        /* \"SimpleStorage.sol\":477:570  function getFavoriteNumber() public view returns(uint){... */\n      swap1\n      jump\t// out\n        /* \"SimpleStorage.sol\":353:470  function storeFavoriteNumber(uint _favoriteNumber) public virtual  {... */\n    tag_39:\n        /* \"SimpleStorage.sol\":447:462  _favoriteNumber */\n      dup1\n        /* \"SimpleStorage.sol\":430:444  favoriteNumber */\n      0x00\n        /* \"SimpleStorage.sol\":430:462  favoriteNumber = _favoriteNumber */\n      dup2\n      swap1\n      sstore\n      pop\n        /* \"SimpleStorage.sol\":353:470  function storeFavoriteNumber(uint _favoriteNumber) public virtual  {... */\n      pop\n      jump\t// out\n        /* \"SimpleStorage.sol\":857:983  function getAgeFromName(string calldata _name) public view returns (uint ) {... */\n    tag_43:\n        /* \"SimpleStorage.sol\":925:929  uint */\n      0x00\n        /* \"SimpleStorage.sol\":948:968  nameToFavoriteNumber */\n      0x01\n        /* \"SimpleStorage.sol\":969:974  _name */\n      dup4\n      dup4\n        /* \"SimpleStorage.sol\":948:975  nameToFavoriteNumber[_name] */\n      mload(0x40)\n      tag_63\n      swap3\n      swap2\n      swap1\n      tag_64\n      jump\t// in\n    tag_63:\n      swap1\n      dup2\n      mstore\n      0x20\n      add\n      mload(0x40)\n      dup1\n      swap2\n      sub\n      swap1\n      keccak256\n      sload\n        /* \"SimpleStorage.sol\":941:975  return nameToFavoriteNumber[_name] */\n      swap1\n      pop\n        /* \"SimpleStorage.sol\":857:983  function getAgeFromName(string calldata _name) public view returns (uint ) {... */\n      swap3\n      swap2\n      pop\n      pop\n      jump\t// out\n        /* \"#utility.yul\":7:84   */\n    tag_65:\n        /* \"#utility.yul\":44:51   */\n      0x00\n        /* \"#utility.yul\":73:78   */\n      dup2\n        /* \"#utility.yul\":62:78   */\n      swap1\n      pop\n        /* \"#utility.yul\":7:84   */\n      swap2\n      swap1\n      pop\n      jump\t// out\n        /* \"#utility.yul\":90:208   */\n    tag_66:\n        /* \"#utility.yul\":177:201   */\n      tag_111\n        /* \"#utility.yul\":195:200   */\n      dup2\n        /* \"#utility.yul\":177:201   */\n      tag_65\n      jump\t// in\n    tag_111:\n        /* \"#utility.yul\":172:175   */\n      dup3\n        /* \"#utility.yul\":165:202   */\n      mstore\n        /* \"#utility.yul\":90:208   */\n      pop\n      pop\n      jump\t// out\n        /* \"#utility.yul\":214:436   */\n    tag_15:\n        /* \"#utility.yul\":307:311   */\n      0x00\n        /* \"#utility.yul\":345:347   */\n      0x20\n        /* \"#utility.yul\":334:343   */\n      dup3\n        /* \"#utility.yul\":330:348   */\n      add\n        /* \"#utility.yul\":322:348   */\n      swap1\n      pop\n        /* \"#utility.yul\":358:429   */\n      tag_113\n        /* \"#utility.yul\":426:427   */\n      0x00\n        /* \"#utility.yul\":415:424   */\n      dup4\n        /* \"#utility.yul\":411:428   */\n      add\n        /* \"#utility.yul\":402:408   */\n      dup5\n        /* \"#utility.yul\":358:429   */\n      tag_66\n      jump\t// in\n    tag_113:\n        /* \"#utility.yul\":214:436   */\n      swap3\n      swap2\n      pop\n      pop\n      jump\t// out\n        /* \"#utility.yul\":442:517   */\n    tag_67:\n        /* \"#utility.yul\":475:481   */\n      0x00\n        /* \"#utility.yul\":508:510   */\n      0x40\n        /* \"#utility.yul\":502:511   */\n      mload\n        /* \"#utility.yul\":492:511   */\n      swap1\n      pop\n        /* \"#utility.yul\":442:517   */\n      swap1\n      jump\t// out\n        /* \"#utility.yul\":523:640   */\n    tag_68:\n        /* \"#utility.yul\":632:633   */\n      0x00\n        /* \"#utility.yul\":629:630   */\n      dup1\n        /* \"#utility.yul\":622:634   */\n      revert\n        /* \"#utility.yul\":646:763   */\n    tag_69:\n        /* \"#utility.yul\":755:756   */\n      0x00\n        /* \"#utility.yul\":752:753   */\n      dup1\n        /* \"#utility.yul\":745:757   */\n      revert\n        /* \"#utility.yul\":769:891   */\n    tag_70:\n        /* \"#utility.yul\":842:866   */\n      tag_118\n        /* \"#utility.yul\":860:865   */\n      dup2\n        /* \"#utility.yul\":842:866   */\n      tag_65\n      jump\t// in\n    tag_118:\n        /* \"#utility.yul\":835:840   */\n      dup2\n        /* \"#utility.yul\":832:867   */\n      eq\n        /* \"#utility.yul\":822:885   */\n      tag_119\n      jumpi\n        /* \"#utility.yul\":881:882   */\n      0x00\n        /* \"#utility.yul\":878:879   */\n      dup1\n        /* \"#utility.yul\":871:883   */\n      revert\n        /* \"#utility.yul\":822:885   */\n    tag_119:\n        /* \"#utility.yul\":769:891   */\n      pop\n      jump\t// out\n        /* \"#utility.yul\":897:1036   */\n    tag_71:\n        /* \"#utility.yul\":943:948   */\n      0x00\n        /* \"#utility.yul\":981:987   */\n      dup2\n        /* \"#utility.yul\":968:988   */\n      calldataload\n        /* \"#utility.yul\":959:988   */\n      swap1\n      pop\n        /* \"#utility.yul\":997:1030   */\n      tag_121\n        /* \"#utility.yul\":1024:1029   */\n      dup2\n        /* \"#utility.yul\":997:1030   */\n      tag_70\n      jump\t// in\n    tag_121:\n        /* \"#utility.yul\":897:1036   */\n      swap3\n      swap2\n      pop\n      pop\n      jump\t// out\n        /* \"#utility.yul\":1042:1371   */\n    tag_18:\n        /* \"#utility.yul\":1101:1107   */\n      0x00\n        /* \"#utility.yul\":1150:1152   */\n      0x20\n        /* \"#utility.yul\":1138:1147   */\n      dup3\n        /* \"#utility.yul\":1129:1136   */\n      dup5\n        /* \"#utility.yul\":1125:1148   */\n      sub\n        /* \"#utility.yul\":1121:1153   */\n      slt\n        /* \"#utility.yul\":1118:1237   */\n      iszero\n      tag_123\n      jumpi\n        /* \"#utility.yul\":1156:1235   */\n      tag_124\n      tag_68\n      jump\t// in\n    tag_124:\n        /* \"#utility.yul\":1118:1237   */\n    tag_123:\n        /* \"#utility.yul\":1276:1277   */\n      0x00\n        /* \"#utility.yul\":1301:1354   */\n      tag_125\n        /* \"#utility.yul\":1346:1353   */\n      dup5\n        /* \"#utility.yul\":1337:1343   */\n      dup3\n        /* \"#utility.yul\":1326:1335   */\n      dup6\n        /* \"#utility.yul\":1322:1344   */\n      add\n        /* \"#utility.yul\":1301:1354   */\n      tag_71\n      jump\t// in\n    tag_125:\n        /* \"#utility.yul\":1291:1354   */\n      swap2\n      pop\n        /* \"#utility.yul\":1247:1364   */\n      pop\n        /* \"#utility.yul\":1042:1371   */\n      swap3\n      swap2\n      pop\n      pop\n      jump\t// out\n        /* \"#utility.yul\":1377:1476   */\n    tag_72:\n        /* \"#utility.yul\":1429:1435   */\n      0x00\n        /* \"#utility.yul\":1463:1468   */\n      dup2\n        /* \"#utility.yul\":1457:1469   */\n      mload\n        /* \"#utility.yul\":1447:1469   */\n      swap1\n      pop\n        /* \"#utility.yul\":1377:1476   */\n      swap2\n      swap1\n      pop\n      jump\t// out\n        /* \"#utility.yul\":1482:1651   */\n    tag_73:\n        /* \"#utility.yul\":1566:1577   */\n      0x00\n        /* \"#utility.yul\":1600:1606   */\n      dup3\n        /* \"#utility.yul\":1595:1598   */\n      dup3\n        /* \"#utility.yul\":1588:1607   */\n      mstore\n        /* \"#utility.yul\":1640:1644   */\n      0x20\n        /* \"#utility.yul\":1635:1638   */\n      dup3\n        /* \"#utility.yul\":1631:1645   */\n      add\n        /* \"#utility.yul\":1616:1645   */\n      swap1\n      pop\n        /* \"#utility.yul\":1482:1651   */\n      swap3\n      swap2\n      pop\n      pop\n      jump\t// out\n        /* \"#utility.yul\":1657:1796   */\n    tag_74:\n        /* \"#utility.yul\":1746:1752   */\n      dup3\n        /* \"#utility.yul\":1741:1744   */\n      dup2\n        /* \"#utility.yul\":1736:1739   */\n      dup4\n        /* \"#utility.yul\":1730:1753   */\n      mcopy\n        /* \"#utility.yul\":1787:1788   */\n      0x00\n        /* \"#utility.yul\":1778:1784   */\n      dup4\n        /* \"#utility.yul\":1773:1776   */\n      dup4\n        /* \"#utility.yul\":1769:1785   */\n      add\n        /* \"#utility.yul\":1762:1789   */\n      mstore\n        /* \"#utility.yul\":1657:1796   */\n      pop\n      pop\n      pop\n      jump\t// out\n        /* \"#utility.yul\":1802:1904   */\n    tag_75:\n        /* \"#utility.yul\":1843:1849   */\n      0x00\n        /* \"#utility.yul\":1894:1896   */\n      0x1f\n        /* \"#utility.yul\":1890:1897   */\n      not\n        /* \"#utility.yul\":1885:1887   */\n      0x1f\n        /* \"#utility.yul\":1878:1883   */\n      dup4\n        /* \"#utility.yul\":1874:1888   */\n      add\n        /* \"#utility.yul\":1870:1898   */\n      and\n        /* \"#utility.yul\":1860:1898   */\n      swap1\n      pop\n        /* \"#utility.yul\":1802:1904   */\n      swap2\n      swap1\n      pop\n      jump\t// out\n        /* \"#utility.yul\":1910:2287   */\n    tag_76:\n        /* \"#utility.yul\":1998:2001   */\n      0x00\n        /* \"#utility.yul\":2026:2065   */\n      tag_131\n        /* \"#utility.yul\":2059:2064   */\n      dup3\n        /* \"#utility.yul\":2026:2065   */\n      tag_72\n      jump\t// in\n    tag_131:\n        /* \"#utility.yul\":2081:2152   */\n      tag_132\n        /* \"#utility.yul\":2145:2151   */\n      dup2\n        /* \"#utility.yul\":2140:2143   */\n      dup6\n        /* \"#utility.yul\":2081:2152   */\n      tag_73\n      jump\t// in\n    tag_132:\n        /* \"#utility.yul\":2074:2152   */\n      swap4\n      pop\n        /* \"#utility.yul\":2161:2226   */\n      tag_133\n        /* \"#utility.yul\":2219:2225   */\n      dup2\n        /* \"#utility.yul\":2214:2217   */\n      dup6\n        /* \"#utility.yul\":2207:2211   */\n      0x20\n        /* \"#utility.yul\":2200:2205   */\n      dup7\n        /* \"#utility.yul\":2196:2212   */\n      add\n        /* \"#utility.yul\":2161:2226   */\n      tag_74\n      jump\t// in\n    tag_133:\n        /* \"#utility.yul\":2251:2280   */\n      tag_134\n        /* \"#utility.yul\":2273:2279   */\n      dup2\n        /* \"#utility.yul\":2251:2280   */\n      tag_75\n      jump\t// in\n    tag_134:\n        /* \"#utility.yul\":2246:2249   */\n      dup5\n        /* \"#utility.yul\":2242:2281   */\n      add\n        /* \"#utility.yul\":2235:2281   */\n      swap2\n      pop\n        /* \"#utility.yul\":2002:2287   */\n      pop\n        /* \"#utility.yul\":1910:2287   */\n      swap3\n      swap2\n      pop\n      pop\n      jump\t// out\n        /* \"#utility.yul\":2293:2716   */\n    tag_21:\n        /* \"#utility.yul\":2434:2438   */\n      0x00\n        /* \"#utility.yul\":2472:2474   */\n      0x40\n        /* \"#utility.yul\":2461:2470   */\n      dup3\n        /* \"#utility.yul\":2457:2475   */\n      add\n        /* \"#utility.yul\":2449:2475   */\n      swap1\n      pop\n        /* \"#utility.yul\":2521:2530   */\n      dup2\n        /* \"#utility.yul\":2515:2519   */\n      dup2\n        /* \"#utility.yul\":2511:2531   */\n      sub\n        /* \"#utility.yul\":2507:2508   */\n      0x00\n        /* \"#utility.yul\":2496:2505   */\n      dup4\n        /* \"#utility.yul\":2492:2509   */\n      add\n        /* \"#utility.yul\":2485:2532   */\n      mstore\n        /* \"#utility.yul\":2549:2627   */\n      tag_136\n        /* \"#utility.yul\":2622:2626   */\n      dup2\n        /* \"#utility.yul\":2613:2619   */\n      dup6\n        /* \"#utility.yul\":2549:2627   */\n      tag_76\n      jump\t// in\n    tag_136:\n        /* \"#utility.yul\":2541:2627   */\n      swap1\n      pop\n        /* \"#utility.yul\":2637:2709   */\n      tag_137\n        /* \"#utility.yul\":2705:2707   */\n      0x20\n        /* \"#utility.yul\":2694:2703   */\n      dup4\n        /* \"#utility.yul\":2690:2708   */\n      add\n        /* \"#utility.yul\":2681:2687   */\n      dup5\n        /* \"#utility.yul\":2637:2709   */\n      tag_66\n      jump\t// in\n    tag_137:\n        /* \"#utility.yul\":2293:2716   */\n      swap4\n      swap3\n      pop\n      pop\n      pop\n      jump\t// out\n        /* \"#utility.yul\":2722:2839   */\n    tag_77:\n        /* \"#utility.yul\":2831:2832   */\n      0x00\n        /* \"#utility.yul\":2828:2829   */\n      dup1\n        /* \"#utility.yul\":2821:2833   */\n      revert\n        /* \"#utility.yul\":2845:2962   */\n    tag_78:\n        /* \"#utility.yul\":2954:2955   */\n      0x00\n        /* \"#utility.yul\":2951:2952   */\n      dup1\n        /* \"#utility.yul\":2944:2956   */\n      revert\n        /* \"#utility.yul\":2968:3148   */\n    tag_79:\n        /* \"#utility.yul\":3016:3093   */\n      0x4e487b7100000000000000000000000000000000000000000000000000000000\n        /* \"#utility.yul\":3013:3014   */\n      0x00\n        /* \"#utility.yul\":3006:3094   */\n      mstore\n        /* \"#utility.yul\":3113:3117   */\n      0x41\n        /* \"#utility.yul\":3110:3111   */\n      0x04\n        /* \"#utility.yul\":3103:3118   */\n      mstore\n        /* \"#utility.yul\":3137:3141   */\n      0x24\n        /* \"#utility.yul\":3134:3135   */\n      0x00\n        /* \"#utility.yul\":3127:3142   */\n      revert\n        /* \"#utility.yul\":3154:3435   */\n    tag_80:\n        /* \"#utility.yul\":3237:3264   */\n      tag_142\n        /* \"#utility.yul\":3259:3263   */\n      dup3\n        /* \"#utility.yul\":3237:3264   */\n      tag_75\n      jump\t// in\n    tag_142:\n        /* \"#utility.yul\":3229:3235   */\n      dup2\n        /* \"#utility.yul\":3225:3265   */\n      add\n        /* \"#utility.yul\":3367:3373   */\n      dup2\n        /* \"#utility.yul\":3355:3365   */\n      dup2\n        /* \"#utility.yul\":3352:3374   */\n      lt\n        /* \"#utility.yul\":3331:3349   */\n      0xffffffffffffffff\n        /* \"#utility.yul\":3319:3329   */\n      dup3\n        /* \"#utility.yul\":3316:3350   */\n      gt\n        /* \"#utility.yul\":3313:3375   */\n      or\n        /* \"#utility.yul\":3310:3398   */\n      iszero\n      tag_143\n      jumpi\n        /* \"#utility.yul\":3378:3396   */\n      tag_144\n      tag_79\n      jump\t// in\n    tag_144:\n        /* \"#utility.yul\":3310:3398   */\n    tag_143:\n        /* \"#utility.yul\":3418:3428   */\n      dup1\n        /* \"#utility.yul\":3414:3416   */\n      0x40\n        /* \"#utility.yul\":3407:3429   */\n      mstore\n        /* \"#utility.yul\":3197:3435   */\n      pop\n        /* \"#utility.yul\":3154:3435   */\n      pop\n      pop\n      jump\t// out\n        /* \"#utility.yul\":3441:3570   */\n    tag_81:\n        /* \"#utility.yul\":3475:3481   */\n      0x00\n        /* \"#utility.yul\":3502:3522   */\n      tag_146\n      tag_67\n      jump\t// in\n    tag_146:\n        /* \"#utility.yul\":3492:3522   */\n      swap1\n      pop\n        /* \"#utility.yul\":3531:3564   */\n      tag_147\n        /* \"#utility.yul\":3559:3563   */\n      dup3\n        /* \"#utility.yul\":3551:3557   */\n      dup3\n        /* \"#utility.yul\":3531:3564   */\n      tag_80\n      jump\t// in\n    tag_147:\n        /* \"#utility.yul\":3441:3570   */\n      swap2\n      swap1\n      pop\n      jump\t// out\n        /* \"#utility.yul\":3576:3884   */\n    tag_82:\n        /* \"#utility.yul\":3638:3642   */\n      0x00\n        /* \"#utility.yul\":3728:3746   */\n      0xffffffffffffffff\n        /* \"#utility.yul\":3720:3726   */\n      dup3\n        /* \"#utility.yul\":3717:3747   */\n      gt\n        /* \"#utility.yul\":3714:3770   */\n      iszero\n      tag_149\n      jumpi\n        /* \"#utility.yul\":3750:3768   */\n      tag_150\n      tag_79\n      jump\t// in\n    tag_150:\n        /* \"#utility.yul\":3714:3770   */\n    tag_149:\n        /* \"#utility.yul\":3788:3817   */\n      tag_151\n        /* \"#utility.yul\":3810:3816   */\n      dup3\n        /* \"#utility.yul\":3788:3817   */\n      tag_75\n      jump\t// in\n    tag_151:\n        /* \"#utility.yul\":3780:3817   */\n      swap1\n      pop\n        /* \"#utility.yul\":3872:3876   */\n      0x20\n        /* \"#utility.yul\":3866:3870   */\n      dup2\n        /* \"#utility.yul\":3862:3877   */\n      add\n        /* \"#utility.yul\":3854:3877   */\n      swap1\n      pop\n        /* \"#utility.yul\":3576:3884   */\n      swap2\n      swap1\n      pop\n      jump\t// out\n        /* \"#utility.yul\":3890:4038   */\n    tag_83:\n        /* \"#utility.yul\":3988:3994   */\n      dup3\n        /* \"#utility.yul\":3983:3986   */\n      dup2\n        /* \"#utility.yul\":3978:3981   */\n      dup4\n        /* \"#utility.yul\":3965:3995   */\n      calldatacopy\n        /* \"#utility.yul\":4029:4030   */\n      0x00\n        /* \"#utility.yul\":4020:4026   */\n      dup4\n        /* \"#utility.yul\":4015:4018   */\n      dup4\n        /* \"#utility.yul\":4011:4027   */\n      add\n        /* \"#utility.yul\":4004:4031   */\n      mstore\n        /* \"#utility.yul\":3890:4038   */\n      pop\n      pop\n      pop\n      jump\t// out\n        /* \"#utility.yul\":4044:4469   */\n    tag_84:\n        /* \"#utility.yul\":4122:4127   */\n      0x00\n        /* \"#utility.yul\":4147:4213   */\n      tag_154\n        /* \"#utility.yul\":4163:4212   */\n      tag_155\n        /* \"#utility.yul\":4205:4211   */\n      dup5\n        /* \"#utility.yul\":4163:4212   */\n      tag_82\n      jump\t// in\n    tag_155:\n        /* \"#utility.yul\":4147:4213   */\n      tag_81\n      jump\t// in\n    tag_154:\n        /* \"#utility.yul\":4138:4213   */\n      swap1\n      pop\n        /* \"#utility.yul\":4236:4242   */\n      dup3\n        /* \"#utility.yul\":4229:4234   */\n      dup2\n        /* \"#utility.yul\":4222:4243   */\n      mstore\n        /* \"#utility.yul\":4274:4278   */\n      0x20\n        /* \"#utility.yul\":4267:4272   */\n      dup2\n        /* \"#utility.yul\":4263:4279   */\n      add\n        /* \"#utility.yul\":4312:4315   */\n      dup5\n        /* \"#utility.yul\":4303:4309   */\n      dup5\n        /* \"#utility.yul\":4298:4301   */\n      dup5\n        /* \"#utility.yul\":4294:4310   */\n      add\n        /* \"#utility.yul\":4291:4316   */\n      gt\n        /* \"#utility.yul\":4288:4400   */\n      iszero\n      tag_156\n      jumpi\n        /* \"#utility.yul\":4319:4398   */\n      tag_157\n      tag_78\n      jump\t// in\n    tag_157:\n        /* \"#utility.yul\":4288:4400   */\n    tag_156:\n        /* \"#utility.yul\":4409:4463   */\n      tag_158\n        /* \"#utility.yul\":4456:4462   */\n      dup5\n        /* \"#utility.yul\":4451:4454   */\n      dup3\n        /* \"#utility.yul\":4446:4449   */\n      dup6\n        /* \"#utility.yul\":4409:4463   */\n      tag_83\n      jump\t// in\n    tag_158:\n        /* \"#utility.yul\":4128:4469   */\n      pop\n        /* \"#utility.yul\":4044:4469   */\n      swap4\n      swap3\n      pop\n      pop\n      pop\n      jump\t// out\n        /* \"#utility.yul\":4489:4829   */\n    tag_85:\n        /* \"#utility.yul\":4545:4550   */\n      0x00\n        /* \"#utility.yul\":4594:4597   */\n      dup3\n        /* \"#utility.yul\":4587:4591   */\n      0x1f\n        /* \"#utility.yul\":4579:4585   */\n      dup4\n        /* \"#utility.yul\":4575:4592   */\n      add\n        /* \"#utility.yul\":4571:4598   */\n      slt\n        /* \"#utility.yul\":4561:4683   */\n      tag_160\n      jumpi\n        /* \"#utility.yul\":4602:4681   */\n      tag_161\n      tag_77\n      jump\t// in\n    tag_161:\n        /* \"#utility.yul\":4561:4683   */\n    tag_160:\n        /* \"#utility.yul\":4719:4725   */\n      dup2\n        /* \"#utility.yul\":4706:4726   */\n      calldataload\n        /* \"#utility.yul\":4744:4823   */\n      tag_162\n        /* \"#utility.yul\":4819:4822   */\n      dup5\n        /* \"#utility.yul\":4811:4817   */\n      dup3\n        /* \"#utility.yul\":4804:4808   */\n      0x20\n        /* \"#utility.yul\":4796:4802   */\n      dup7\n        /* \"#utility.yul\":4792:4809   */\n      add\n        /* \"#utility.yul\":4744:4823   */\n      tag_84\n      jump\t// in\n    tag_162:\n        /* \"#utility.yul\":4735:4823   */\n      swap2\n      pop\n        /* \"#utility.yul\":4551:4829   */\n      pop\n        /* \"#utility.yul\":4489:4829   */\n      swap3\n      swap2\n      pop\n      pop\n      jump\t// out\n        /* \"#utility.yul\":4835:5489   */\n    tag_27:\n        /* \"#utility.yul\":4913:4919   */\n      0x00\n        /* \"#utility.yul\":4921:4927   */\n      dup1\n        /* \"#utility.yul\":4970:4972   */\n      0x40\n        /* \"#utility.yul\":4958:4967   */\n      dup4\n        /* \"#utility.yul\":4949:4956   */\n      dup6\n        /* \"#utility.yul\":4945:4968   */\n      sub\n        /* \"#utility.yul\":4941:4973   */\n      slt\n        /* \"#utility.yul\":4938:5057   */\n      iszero\n      tag_164\n      jumpi\n        /* \"#utility.yul\":4976:5055   */\n      tag_165\n      tag_68\n      jump\t// in\n    tag_165:\n        /* \"#utility.yul\":4938:5057   */\n    tag_164:\n        /* \"#utility.yul\":5124:5125   */\n      0x00\n        /* \"#utility.yul\":5113:5122   */\n      dup4\n        /* \"#utility.yul\":5109:5126   */\n      add\n        /* \"#utility.yul\":5096:5127   */\n      calldataload\n        /* \"#utility.yul\":5154:5172   */\n      0xffffffffffffffff\n        /* \"#utility.yul\":5146:5152   */\n      dup2\n        /* \"#utility.yul\":5143:5173   */\n      gt\n        /* \"#utility.yul\":5140:5257   */\n      iszero\n      tag_166\n      jumpi\n        /* \"#utility.yul\":5176:5255   */\n      tag_167\n      tag_69\n      jump\t// in\n    tag_167:\n        /* \"#utility.yul\":5140:5257   */\n    tag_166:\n        /* \"#utility.yul\":5281:5344   */\n      tag_168\n        /* \"#utility.yul\":5336:5343   */\n      dup6\n        /* \"#utility.yul\":5327:5333   */\n      dup3\n        /* \"#utility.yul\":5316:5325   */\n      dup7\n        /* \"#utility.yul\":5312:5334   */\n      add\n        /* \"#utility.yul\":5281:5344   */\n      tag_85\n      jump\t// in\n    tag_168:\n        /* \"#utility.yul\":5271:5344   */\n      swap3\n      pop\n        /* \"#utility.yul\":5067:5354   */\n      pop\n        /* \"#utility.yul\":5393:5395   */\n      0x20\n        /* \"#utility.yul\":5419:5472   */\n      tag_169\n        /* \"#utility.yul\":5464:5471   */\n      dup6\n        /* \"#utility.yul\":5455:5461   */\n      dup3\n        /* \"#utility.yul\":5444:5453   */\n      dup7\n        /* \"#utility.yul\":5440:5462   */\n      add\n        /* \"#utility.yul\":5419:5472   */\n      tag_71\n      jump\t// in\n    tag_169:\n        /* \"#utility.yul\":5409:5472   */\n      swap2\n      pop\n        /* \"#utility.yul\":5364:5482   */\n      pop\n        /* \"#utility.yul\":4835:5489   */\n      swap3\n      pop\n      swap3\n      swap1\n      pop\n      jump\t// out\n        /* \"#utility.yul\":5495:6004   */\n    tag_31:\n        /* \"#utility.yul\":5564:5570   */\n      0x00\n        /* \"#utility.yul\":5613:5615   */\n      0x20\n        /* \"#utility.yul\":5601:5610   */\n      dup3\n        /* \"#utility.yul\":5592:5599   */\n      dup5\n        /* \"#utility.yul\":5588:5611   */\n      sub\n        /* \"#utility.yul\":5584:5616   */\n      slt\n        /* \"#utility.yul\":5581:5700   */\n      iszero\n      tag_171\n      jumpi\n        /* \"#utility.yul\":5619:5698   */\n      tag_172\n      tag_68\n      jump\t// in\n    tag_172:\n        /* \"#utility.yul\":5581:5700   */\n    tag_171:\n        /* \"#utility.yul\":5767:5768   */\n      0x00\n        /* \"#utility.yul\":5756:5765   */\n      dup3\n        /* \"#utility.yul\":5752:5769   */\n      add\n        /* \"#utility.yul\":5739:5770   */\n      calldataload\n        /* \"#utility.yul\":5797:5815   */\n      0xffffffffffffffff\n        /* \"#utility.yul\":5789:5795   */\n      dup2\n        /* \"#utility.yul\":5786:5816   */\n      gt\n        /* \"#utility.yul\":5783:5900   */\n      iszero\n      tag_173\n      jumpi\n        /* \"#utility.yul\":5819:5898   */\n      tag_174\n      tag_69\n      jump\t// in\n    tag_174:\n        /* \"#utility.yul\":5783:5900   */\n    tag_173:\n        /* \"#utility.yul\":5924:5987   */\n      tag_175\n        /* \"#utility.yul\":5979:5986   */\n      dup5\n        /* \"#utility.yul\":5970:5976   */\n      dup3\n        /* \"#utility.yul\":5959:5968   */\n      dup6\n        /* \"#utility.yul\":5955:5977   */\n      add\n        /* \"#utility.yul\":5924:5987   */\n      tag_85\n      jump\t// in\n    tag_175:\n        /* \"#utility.yul\":5914:5987   */\n      swap2\n      pop\n        /* \"#utility.yul\":5710:5997   */\n      pop\n        /* \"#utility.yul\":5495:6004   */\n      swap3\n      swap2\n      pop\n      pop\n      jump\t// out\n        /* \"#utility.yul\":6010:6127   */\n    tag_86:\n        /* \"#utility.yul\":6119:6120   */\n      0x00\n        /* \"#utility.yul\":6116:6117   */\n      dup1\n        /* \"#utility.yul\":6109:6121   */\n      revert\n        /* \"#utility.yul\":6133:6250   */\n    tag_87:\n        /* \"#utility.yul\":6242:6243   */\n      0x00\n        /* \"#utility.yul\":6239:6240   */\n      dup1\n        /* \"#utility.yul\":6232:6244   */\n      revert\n        /* \"#utility.yul\":6270:6823   */\n    tag_88:\n        /* \"#utility.yul\":6328:6336   */\n      0x00\n        /* \"#utility.yul\":6338:6344   */\n      dup1\n        /* \"#utility.yul\":6388:6391   */\n      dup4\n        /* \"#utility.yul\":6381:6385   */\n      0x1f\n        /* \"#utility.yul\":6373:6379   */\n      dup5\n        /* \"#utility.yul\":6369:6386   */\n      add\n        /* \"#utility.yul\":6365:6392   */\n      slt\n        /* \"#utility.yul\":6355:6477   */\n      tag_179\n      jumpi\n        /* \"#utility.yul\":6396:6475   */\n      tag_180\n      tag_77\n      jump\t// in\n    tag_180:\n        /* \"#utility.yul\":6355:6477   */\n    tag_179:\n        /* \"#utility.yul\":6509:6515   */\n      dup3\n        /* \"#utility.yul\":6496:6516   */\n      calldataload\n        /* \"#utility.yul\":6486:6516   */\n      swap1\n      pop\n        /* \"#utility.yul\":6539:6557   */\n      0xffffffffffffffff\n        /* \"#utility.yul\":6531:6537   */\n      dup2\n        /* \"#utility.yul\":6528:6558   */\n      gt\n        /* \"#utility.yul\":6525:6642   */\n      iszero\n      tag_181\n      jumpi\n        /* \"#utility.yul\":6561:6640   */\n      tag_182\n      tag_86\n      jump\t// in\n    tag_182:\n        /* \"#utility.yul\":6525:6642   */\n    tag_181:\n        /* \"#utility.yul\":6675:6679   */\n      0x20\n        /* \"#utility.yul\":6667:6673   */\n      dup4\n        /* \"#utility.yul\":6663:6680   */\n      add\n        /* \"#utility.yul\":6651:6680   */\n      swap2\n      pop\n        /* \"#utility.yul\":6729:6732   */\n      dup4\n        /* \"#utility.yul\":6721:6725   */\n      0x01\n        /* \"#utility.yul\":6713:6719   */\n      dup3\n        /* \"#utility.yul\":6709:6726   */\n      mul\n        /* \"#utility.yul\":6699:6707   */\n      dup4\n        /* \"#utility.yul\":6695:6727   */\n      add\n        /* \"#utility.yul\":6692:6733   */\n      gt\n        /* \"#utility.yul\":6689:6817   */\n      iszero\n      tag_183\n      jumpi\n        /* \"#utility.yul\":6736:6815   */\n      tag_184\n      tag_87\n      jump\t// in\n    tag_184:\n        /* \"#utility.yul\":6689:6817   */\n    tag_183:\n        /* \"#utility.yul\":6270:6823   */\n      swap3\n      pop\n      swap3\n      swap1\n      pop\n      jump\t// out\n        /* \"#utility.yul\":6829:7358   */\n    tag_42:\n        /* \"#utility.yul\":6900:6906   */\n      0x00\n        /* \"#utility.yul\":6908:6914   */\n      dup1\n        /* \"#utility.yul\":6957:6959   */\n      0x20\n        /* \"#utility.yul\":6945:6954   */\n      dup4\n        /* \"#utility.yul\":6936:6943   */\n      dup6\n        /* \"#utility.yul\":6932:6955   */\n      sub\n        /* \"#utility.yul\":6928:6960   */\n      slt\n        /* \"#utility.yul\":6925:7044   */\n      iszero\n      tag_186\n      jumpi\n        /* \"#utility.yul\":6963:7042   */\n      tag_187\n      tag_68\n      jump\t// in\n    tag_187:\n        /* \"#utility.yul\":6925:7044   */\n    tag_186:\n        /* \"#utility.yul\":7111:7112   */\n      0x00\n        /* \"#utility.yul\":7100:7109   */\n      dup4\n        /* \"#utility.yul\":7096:7113   */\n      add\n        /* \"#utility.yul\":7083:7114   */\n      calldataload\n        /* \"#utility.yul\":7141:7159   */\n      0xffffffffffffffff\n        /* \"#utility.yul\":7133:7139   */\n      dup2\n        /* \"#utility.yul\":7130:7160   */\n      gt\n        /* \"#utility.yul\":7127:7244   */\n      iszero\n      tag_188\n      jumpi\n        /* \"#utility.yul\":7163:7242   */\n      tag_189\n      tag_69\n      jump\t// in\n    tag_189:\n        /* \"#utility.yul\":7127:7244   */\n    tag_188:\n        /* \"#utility.yul\":7276:7341   */\n      tag_190\n        /* \"#utility.yul\":7333:7340   */\n      dup6\n        /* \"#utility.yul\":7324:7330   */\n      dup3\n        /* \"#utility.yul\":7313:7322   */\n      dup7\n        /* \"#utility.yul\":7309:7331   */\n      add\n        /* \"#utility.yul\":7276:7341   */\n      tag_88\n      jump\t// in\n    tag_190:\n        /* \"#utility.yul\":7258:7341   */\n      swap3\n      pop\n      swap3\n      pop\n        /* \"#utility.yul\":7054:7351   */\n      pop\n        /* \"#utility.yul\":6829:7358   */\n      swap3\n      pop\n      swap3\n      swap1\n      pop\n      jump\t// out\n        /* \"#utility.yul\":7364:7544   */\n    tag_89:\n        /* \"#utility.yul\":7412:7489   */\n      0x4e487b7100000000000000000000000000000000000000000000000000000000\n        /* \"#utility.yul\":7409:7410   */\n      0x00\n        /* \"#utility.yul\":7402:7490   */\n      mstore\n        /* \"#utility.yul\":7509:7513   */\n      0x22\n        /* \"#utility.yul\":7506:7507   */\n      0x04\n        /* \"#utility.yul\":7499:7514   */\n      mstore\n        /* \"#utility.yul\":7533:7537   */\n      0x24\n        /* \"#utility.yul\":7530:7531   */\n      0x00\n        /* \"#utility.yul\":7523:7538   */\n      revert\n        /* \"#utility.yul\":7550:7870   */\n    tag_49:\n        /* \"#utility.yul\":7594:7600   */\n      0x00\n        /* \"#utility.yul\":7631:7632   */\n      0x02\n        /* \"#utility.yul\":7625:7629   */\n      dup3\n        /* \"#utility.yul\":7621:7633   */\n      div\n        /* \"#utility.yul\":7611:7633   */\n      swap1\n      pop\n        /* \"#utility.yul\":7678:7679   */\n      0x01\n        /* \"#utility.yul\":7672:7676   */\n      dup3\n        /* \"#utility.yul\":7668:7680   */\n      and\n        /* \"#utility.yul\":7699:7717   */\n      dup1\n        /* \"#utility.yul\":7689:7770   */\n      tag_193\n      jumpi\n        /* \"#utility.yul\":7755:7759   */\n      0x7f\n        /* \"#utility.yul\":7747:7753   */\n      dup3\n        /* \"#utility.yul\":7743:7760   */\n      and\n        /* \"#utility.yul\":7733:7760   */\n      swap2\n      pop\n        /* \"#utility.yul\":7689:7770   */\n    tag_193:\n        /* \"#utility.yul\":7817:7819   */\n      0x20\n        /* \"#utility.yul\":7809:7815   */\n      dup3\n        /* \"#utility.yul\":7806:7820   */\n      lt\n        /* \"#utility.yul\":7786:7804   */\n      dup2\n        /* \"#utility.yul\":7783:7821   */\n      sub\n        /* \"#utility.yul\":7780:7864   */\n      tag_194\n      jumpi\n        /* \"#utility.yul\":7836:7854   */\n      tag_195\n      tag_89\n      jump\t// in\n    tag_195:\n        /* \"#utility.yul\":7780:7864   */\n    tag_194:\n        /* \"#utility.yul\":7601:7870   */\n      pop\n        /* \"#utility.yul\":7550:7870   */\n      swap2\n      swap1\n      pop\n      jump\t// out\n        /* \"#utility.yul\":7876:8017   */\n    tag_90:\n        /* \"#utility.yul\":7925:7929   */\n      0x00\n        /* \"#utility.yul\":7948:7951   */\n      dup2\n        /* \"#utility.yul\":7940:7951   */\n      swap1\n      pop\n        /* \"#utility.yul\":7971:7974   */\n      dup2\n        /* \"#utility.yul\":7968:7969   */\n      0x00\n        /* \"#utility.yul\":7961:7975   */\n      mstore\n        /* \"#utility.yul\":8005:8009   */\n      0x20\n        /* \"#utility.yul\":8002:8003   */\n      0x00\n        /* \"#utility.yul\":7992:8010   */\n      keccak256\n        /* \"#utility.yul\":7984:8010   */\n      swap1\n      pop\n        /* \"#utility.yul\":7876:8017   */\n      swap2\n      swap1\n      pop\n      jump\t// out\n        /* \"#utility.yul\":8023:8116   */\n    tag_91:\n        /* \"#utility.yul\":8060:8066   */\n      0x00\n        /* \"#utility.yul\":8107:8109   */\n      0x20\n        /* \"#utility.yul\":8102:8104   */\n      0x1f\n        /* \"#utility.yul\":8095:8100   */\n      dup4\n        /* \"#utility.yul\":8091:8105   */\n      add\n        /* \"#utility.yul\":8087:8110   */\n      div\n        /* \"#utility.yul\":8077:8110   */\n      swap1\n      pop\n        /* \"#utility.yul\":8023:8116   */\n      swap2\n      swap1\n      pop\n      jump\t// out\n        /* \"#utility.yul\":8122:8229   */\n    tag_92:\n        /* \"#utility.yul\":8166:8174   */\n      0x00\n        /* \"#utility.yul\":8216:8221   */\n      dup3\n        /* \"#utility.yul\":8210:8214   */\n      dup3\n        /* \"#utility.yul\":8206:8222   */\n      shl\n        /* \"#utility.yul\":8185:8222   */\n      swap1\n      pop\n        /* \"#utility.yul\":8122:8229   */\n      swap3\n      swap2\n      pop\n      pop\n      jump\t// out\n        /* \"#utility.yul\":8235:8628   */\n    tag_93:\n        /* \"#utility.yul\":8304:8310   */\n      0x00\n        /* \"#utility.yul\":8354:8355   */\n      0x08\n        /* \"#utility.yul\":8342:8352   */\n      dup4\n        /* \"#utility.yul\":8338:8356   */\n      mul\n        /* \"#utility.yul\":8377:8474   */\n      tag_200\n        /* \"#utility.yul\":8407:8473   */\n      0xffffffffffffffffffffffffffffffffffffffffffffffffffffffffffffffff\n        /* \"#utility.yul\":8396:8405   */\n      dup3\n        /* \"#utility.yul\":8377:8474   */\n      tag_92\n      jump\t// in\n    tag_200:\n        /* \"#utility.yul\":8495:8534   */\n      tag_201\n        /* \"#utility.yul\":8525:8533   */\n      dup7\n        /* \"#utility.yul\":8514:8523   */\n      dup4\n        /* \"#utility.yul\":8495:8534   */\n      tag_92\n      jump\t// in\n    tag_201:\n        /* \"#utility.yul\":8483:8534   */\n      swap6\n      pop\n        /* \"#utility.yul\":8567:8571   */\n      dup1\n        /* \"#utility.yul\":8563:8572   */\n      not\n        /* \"#utility.yul\":8556:8561   */\n      dup5\n        /* \"#utility.yul\":8552:8573   */\n      and\n        /* \"#utility.yul\":8543:8573   */\n      swap4\n      pop\n        /* \"#utility.yul\":8616:8620   */\n      dup1\n        /* \"#utility.yul\":8606:8614   */\n      dup7\n        /* \"#utility.yul\":8602:8621   */\n      and\n        /* \"#utility.yul\":8595:8600   */\n      dup5\n        /* \"#utility.yul\":8592:8622   */\n      or\n        /* \"#utility.yul\":8582:8622   */\n      swap3\n      pop\n        /* \"#utility.yul\":8311:8628   */\n      pop\n      pop\n        /* \"#utility.yul\":8235:8628   */\n      swap4\n      swap3\n      pop\n      pop\n      pop\n      jump\t// out\n        /* \"#utility.yul\":8634:8694   */\n    tag_94:\n        /* \"#utility.yul\":8662:8665   */\n      0x00\n        /* \"#utility.yul\":8683:8688   */\n      dup2\n        /* \"#utility.yul\":8676:8688   */\n      swap1\n      pop\n        /* \"#utility.yul\":8634:8694   */\n      swap2\n      swap1\n      pop\n      jump\t// out\n        /* \"#utility.yul\":8700:8842   */\n    tag_95:\n        /* \"#utility.yul\":8750:8759   */\n      0x00\n        /* \"#utility.yul\":8783:8836   */\n      tag_204\n        /* \"#utility.yul\":8801:8835   */\n      tag_205\n        /* \"#utility.yul\":8810:8834   */\n      tag_206\n        /* \"#utility.yul\":8828:8833   */\n      dup5\n        /* \"#utility.yul\":8810:8834   */\n      tag_65\n      jump\t// in\n    tag_206:\n        /* \"#utility.yul\":8801:8835   */\n      tag_94\n      jump\t// in\n    tag_205:\n        /* \"#utility.yul\":8783:8836   */\n      tag_65\n      jump\t// in\n    tag_204:\n        /* \"#utility.yul\":8770:8836   */\n      swap1\n      pop\n        /* \"#utility.yul\":8700:8842   */\n      swap2\n      swap1\n      pop\n      jump\t// out\n        /* \"#utility.yul\":8848:8923   */\n    tag_96:\n        /* \"#utility.yul\":8891:8894   */\n      0x00\n        /* \"#utility.yul\":8912:8917   */\n      dup2\n        /* \"#utility.yul\":8905:8917   */\n      swap1\n      pop\n        /* \"#utility.yul\":8848:8923   */\n      swap2\n      swap1\n      pop\n      jump\t// out\n        /* \"#utility.yul\":8929:9198   */\n    tag_97:\n        /* \"#utility.yul\":9039:9078   */\n      tag_209\n        /* \"#utility.yul\":9070:9077   */\n      dup4\n        /* \"#utility.yul\":9039:9078   */\n      tag_95\n      jump\t// in\n    tag_209:\n        /* \"#utility.yul\":9100:9191   */\n      tag_210\n        /* \"#utility.yul\":9149:9190   */\n      tag_211\n        /* \"#utility.yul\":9173:9189   */\n      dup3\n        /* \"#utility.yul\":9149:9190   */\n      tag_96\n      jump\t// in\n    tag_211:\n        /* \"#utility.yul\":9141:9147   */\n      dup5\n        /* \"#utility.yul\":9134:9138   */\n      dup5\n        /* \"#utility.yul\":9128:9139   */\n      sload\n        /* \"#utility.yul\":9100:9191   */\n      tag_93\n      jump\t// in\n    tag_210:\n        /* \"#utility.yul\":9094:9098   */\n      dup3\n        /* \"#utility.yul\":9087:9192   */\n      sstore\n        /* \"#utility.yul\":9005:9198   */\n      pop\n        /* \"#utility.yul\":8929:9198   */\n      pop\n      pop\n      pop\n      jump\t// out\n        /* \"#utility.yul\":9204:9277   */\n    tag_98:\n        /* \"#utility.yul\":9249:9252   */\n      0x00\n        /* \"#utility.yul\":9204:9277   */\n      swap1\n      jump\t// out\n        /* \"#utility.yul\":9283:9472   */\n    tag_99:\n        /* \"#utility.yul\":9360:9392   */\n      tag_214\n      tag_98\n      jump\t// in\n    tag_214:\n        /* \"#utility.yul\":9401:9466   */\n      tag_215\n        /* \"#utility.yul\":9459:9465   */\n      dup2\n        /* \"#utility.yul\":9451:9457   */\n      dup5\n        /* \"#utility.yul\":9445:9449   */\n      dup5\n        /* \"#utility.yul\":9401:9466   */\n      tag_97\n      jump\t// in\n    tag_215:\n        /* \"#utility.yul\":9336:9472   */\n      pop\n        /* \"#utility.yul\":9283:9472   */\n      pop\n      pop\n      jump\t// out\n        /* \"#utility.yul\":9478:9664   */\n    tag_100:\n        /* \"#utility.yul\":9538:9658   */\n    tag_217:\n        /* \"#utility.yul\":9555:9558   */\n      dup2\n        /* \"#utility.yul\":9548:9553   */\n      dup2\n        /* \"#utility.yul\":9545:9559   */\n      lt\n        /* \"#utility.yul\":9538:9658   */\n      iszero\n      tag_219\n      jumpi\n        /* \"#utility.yul\":9609:9648   */\n      tag_220\n        /* \"#utility.yul\":9646:9647   */\n      0x00\n        /* \"#utility.yul\":9639:9644   */\n      dup3\n        /* \"#utility.yul\":9609:9648   */\n      tag_99\n      jump\t// in\n    tag_220:\n        /* \"#utility.yul\":9582:9583   */\n      0x01\n        /* \"#utility.yul\":9575:9580   */\n      dup2\n        /* \"#utility.yul\":9571:9584   */\n      add\n        /* \"#utility.yul\":9562:9584   */\n      swap1\n      pop\n        /* \"#utility.yul\":9538:9658   */\n      jump(tag_217)\n    tag_219:\n        /* \"#utility.yul\":9478:9664   */\n      pop\n      pop\n      jump\t// out\n        /* \"#utility.yul\":9670:10213   */\n    tag_101:\n        /* \"#utility.yul\":9771:9773   */\n      0x1f\n        /* \"#utility.yul\":9766:9769   */\n      dup3\n        /* \"#utility.yul\":9763:9774   */\n      gt\n        /* \"#utility.yul\":9760:10206   */\n      iszero\n      tag_222\n      jumpi\n        /* \"#utility.yul\":9805:9843   */\n      tag_223\n        /* \"#utility.yul\":9837:9842   */\n      dup2\n        /* \"#utility.yul\":9805:9843   */\n      tag_90\n      jump\t// in\n    tag_223:\n        /* \"#utility.yul\":9889:9918   */\n      tag_224\n        /* \"#utility.yul\":9907:9917   */\n      dup5\n        /* \"#utility.yul\":9889:9918   */\n      tag_91\n      jump\t// in\n    tag_224:\n        /* \"#utility.yul\":9879:9887   */\n      dup2\n        /* \"#utility.yul\":9875:9919   */\n      add\n        /* \"#utility.yul\":10072:10074   */\n      0x20\n        /* \"#utility.yul\":10060:10070   */\n      dup6\n        /* \"#utility.yul\":10057:10075   */\n      lt\n        /* \"#utility.yul\":10054:10103   */\n      iszero\n      tag_225\n      jumpi\n        /* \"#utility.yul\":10093:10101   */\n      dup2\n        /* \"#utility.yul\":10078:10101   */\n      swap1\n      pop\n        /* \"#utility.yul\":10054:10103   */\n    tag_225:\n        /* \"#utility.yul\":10116:10196   */\n      tag_226\n        /* \"#utility.yul\":10172:10194   */\n      tag_227\n        /* \"#utility.yul\":10190:10193   */\n      dup6\n        /* \"#utility.yul\":10172:10194   */\n      tag_91\n      jump\t// in\n    tag_227:\n        /* \"#utility.yul\":10162:10170   */\n      dup4\n        /* \"#utility.yul\":10158:10195   */\n      add\n        /* \"#utility.yul\":10145:10156   */\n      dup3\n        /* \"#utility.yul\":10116:10196   */\n      tag_100\n      jump\t// in\n    tag_226:\n        /* \"#utility.yul\":9775:10206   */\n      pop\n      pop\n        /* \"#utility.yul\":9760:10206   */\n    tag_222:\n        /* \"#utility.yul\":9670:10213   */\n      pop\n      pop\n      pop\n      jump\t// out\n        /* \"#utility.yul\":10219:10336   */\n    tag_102:\n        /* \"#utility.yul\":10273:10281   */\n      0x00\n        /* \"#utility.yul\":10323:10328   */\n      dup3\n        /* \"#utility.yul\":10317:10321   */\n      dup3\n        /* \"#utility.yul\":10313:10329   */\n      shr\n        /* \"#utility.yul\":10292:10329   */\n      swap1\n      pop\n        /* \"#utility.yul\":10219:10336   */\n      swap3\n      swap2\n      pop\n      pop\n      jump\t// out\n        /* \"#utility.yul\":10342:10511   */\n    tag_103:\n        /* \"#utility.yul\":10386:10392   */\n      0x00\n        /* \"#utility.yul\":10419:10470   */\n      tag_230\n        /* \"#utility.yul\":10467:10468   */\n      0x00\n        /* \"#utility.yul\":10463:10469   */\n      not\n        /* \"#utility.yul\":10455:10460   */\n      dup5\n        /* \"#utility.yul\":10452:10453   */\n      0x08\n        /* \"#utility.yul\":10448:10461   */\n      mul\n        /* \"#utility.yul\":10419:10470   */\n      tag_102\n      jump\t// in\n    tag_230:\n        /* \"#utility.yul\":10415:10471   */\n      not\n        /* \"#utility.yul\":10500:10504   */\n      dup1\n        /* \"#utility.yul\":10494:10498   */\n      dup4\n        /* \"#utility.yul\":10490:10505   */\n      and\n        /* \"#utility.yul\":10480:10505   */\n      swap2\n      pop\n        /* \"#utility.yul\":10393:10511   */\n      pop\n        /* \"#utility.yul\":10342:10511   */\n      swap3\n      swap2\n      pop\n      pop\n      jump\t// out\n        /* \"#utility.yul\":10516:10811   */\n    tag_104:\n        /* \"#utility.yul\":10592:10596   */\n      0x00\n        /* \"#utility.yul\":10738:10767   */\n      tag_232\n        /* \"#utility.yul\":10763:10766   */\n      dup4\n        /* \"#utility.yul\":10757:10761   */\n      dup4\n        /* \"#utility.yul\":10738:10767   */\n      tag_103\n      jump\t// in\n    tag_232:\n        /* \"#utility.yul\":10730:10767   */\n      swap2\n      pop\n        /* \"#utility.yul\":10800:10803   */\n      dup3\n        /* \"#utility.yul\":10797:10798   */\n      0x02\n        /* \"#utility.yul\":10793:10804   */\n      mul\n        /* \"#utility.yul\":10787:10791   */\n      dup3\n        /* \"#utility.yul\":10784:10805   */\n      or\n        /* \"#utility.yul\":10776:10805   */\n      swap1\n      pop\n        /* \"#utility.yul\":10516:10811   */\n      swap3\n      swap2\n      pop\n      pop\n      jump\t// out\n        /* \"#utility.yul\":10816:12211   */\n    tag_57:\n        /* \"#utility.yul\":10933:10970   */\n      tag_234\n        /* \"#utility.yul\":10966:10969   */\n      dup3\n        /* \"#utility.yul\":10933:10970   */\n      tag_72\n      jump\t// in\n    tag_234:\n        /* \"#utility.yul\":11035:11053   */\n      0xffffffffffffffff\n        /* \"#utility.yul\":11027:11033   */\n      dup2\n        /* \"#utility.yul\":11024:11054   */\n      gt\n        /* \"#utility.yul\":11021:11077   */\n      iszero\n      tag_235\n      jumpi\n        /* \"#utility.yul\":11057:11075   */\n      tag_236\n      tag_79\n      jump\t// in\n    tag_236:\n        /* \"#utility.yul\":11021:11077   */\n    tag_235:\n        /* \"#utility.yul\":11101:11139   */\n      tag_237\n        /* \"#utility.yul\":11133:11137   */\n      dup3\n        /* \"#utility.yul\":11127:11138   */\n      sload\n        /* \"#utility.yul\":11101:11139   */\n      tag_49\n      jump\t// in\n    tag_237:\n        /* \"#utility.yul\":11186:11253   */\n      tag_238\n        /* \"#utility.yul\":11246:11252   */\n      dup3\n        /* \"#utility.yul\":11238:11244   */\n      dup3\n        /* \"#utility.yul\":11232:11236   */\n      dup6\n        /* \"#utility.yul\":11186:11253   */\n      tag_101\n      jump\t// in\n    tag_238:\n        /* \"#utility.yul\":11280:11281   */\n      0x00\n        /* \"#utility.yul\":11304:11308   */\n      0x20\n        /* \"#utility.yul\":11291:11308   */\n      swap1\n      pop\n        /* \"#utility.yul\":11336:11338   */\n      0x1f\n        /* \"#utility.yul\":11328:11334   */\n      dup4\n        /* \"#utility.yul\":11325:11339   */\n      gt\n        /* \"#utility.yul\":11353:11354   */\n      0x01\n        /* \"#utility.yul\":11348:11966   */\n      dup2\n      eq\n      tag_240\n      jumpi\n        /* \"#utility.yul\":12010:12011   */\n      0x00\n        /* \"#utility.yul\":12027:12033   */\n      dup5\n        /* \"#utility.yul\":12024:12101   */\n      iszero\n      tag_241\n      jumpi\n        /* \"#utility.yul\":12076:12085   */\n      dup3\n        /* \"#utility.yul\":12071:12074   */\n      dup8\n        /* \"#utility.yul\":12067:12086   */\n      add\n        /* \"#utility.yul\":12061:12087   */\n      mload\n        /* \"#utility.yul\":12052:12087   */\n      swap1\n      pop\n        /* \"#utility.yul\":12024:12101   */\n    tag_241:\n        /* \"#utility.yul\":12127:12194   */\n      tag_242\n        /* \"#utility.yul\":12187:12193   */\n      dup6\n        /* \"#utility.yul\":12180:12185   */\n      dup3\n        /* \"#utility.yul\":12127:12194   */\n      tag_104\n      jump\t// in\n    tag_242:\n        /* \"#utility.yul\":12121:12125   */\n      dup7\n        /* \"#utility.yul\":12114:12195   */\n      sstore\n        /* \"#utility.yul\":11983:12205   */\n      pop\n        /* \"#utility.yul\":11318:12205   */\n      jump(tag_239)\n        /* \"#utility.yul\":11348:11966   */\n    tag_240:\n        /* \"#utility.yul\":11400:11404   */\n      0x1f\n        /* \"#utility.yul\":11396:11405   */\n      not\n        /* \"#utility.yul\":11388:11394   */\n      dup5\n        /* \"#utility.yul\":11384:11406   */\n      and\n        /* \"#utility.yul\":11434:11471   */\n      tag_243\n        /* \"#utility.yul\":11466:11470   */\n      dup7\n        /* \"#utility.yul\":11434:11471   */\n      tag_90\n      jump\t// in\n    tag_243:\n        /* \"#utility.yul\":11493:11494   */\n      0x00\n        /* \"#utility.yul\":11507:11715   */\n    tag_244:\n        /* \"#utility.yul\":11521:11528   */\n      dup3\n        /* \"#utility.yul\":11518:11519   */\n      dup2\n        /* \"#utility.yul\":11515:11529   */\n      lt\n        /* \"#utility.yul\":11507:11715   */\n      iszero\n      tag_246\n      jumpi\n        /* \"#utility.yul\":11600:11609   */\n      dup5\n        /* \"#utility.yul\":11595:11598   */\n      dup10\n        /* \"#utility.yul\":11591:11610   */\n      add\n        /* \"#utility.yul\":11585:11611   */\n      mload\n        /* \"#utility.yul\":11577:11583   */\n      dup3\n        /* \"#utility.yul\":11570:11612   */\n      sstore\n        /* \"#utility.yul\":11651:11652   */\n      0x01\n        /* \"#utility.yul\":11643:11649   */\n      dup3\n        /* \"#utility.yul\":11639:11653   */\n      add\n        /* \"#utility.yul\":11629:11653   */\n      swap2\n      pop\n        /* \"#utility.yul\":11698:11700   */\n      0x20\n        /* \"#utility.yul\":11687:11696   */\n      dup6\n        /* \"#utility.yul\":11683:11701   */\n      add\n        /* \"#utility.yul\":11670:11701   */\n      swap5\n      pop\n        /* \"#utility.yul\":11544:11548   */\n      0x20\n        /* \"#utility.yul\":11541:11542   */\n      dup2\n        /* \"#utility.yul\":11537:11549   */\n      add\n        /* \"#utility.yul\":11532:11549   */\n      swap1\n      pop\n        /* \"#utility.yul\":11507:11715   */\n      jump(tag_244)\n    tag_246:\n        /* \"#utility.yul\":11743:11749   */\n      dup7\n        /* \"#utility.yul\":11734:11741   */\n      dup4\n        /* \"#utility.yul\":11731:11750   */\n      lt\n        /* \"#utility.yul\":11728:11907   */\n      iszero\n      tag_247\n      jumpi\n        /* \"#utility.yul\":11801:11810   */\n      dup5\n        /* \"#utility.yul\":11796:11799   */\n      dup10\n        /* \"#utility.yul\":11792:11811   */\n      add\n        /* \"#utility.yul\":11786:11812   */\n      mload\n        /* \"#utility.yul\":11844:11892   */\n      tag_248\n        /* \"#utility.yul\":11886:11890   */\n      0x1f\n        /* \"#utility.yul\":11878:11884   */\n      dup10\n        /* \"#utility.yul\":11874:11891   */\n      and\n        /* \"#utility.yul\":11863:11872   */\n      dup3\n        /* \"#utility.yul\":11844:11892   */\n      tag_103\n      jump\t// in\n    tag_248:\n        /* \"#utility.yul\":11836:11842   */\n      dup4\n        /* \"#utility.yul\":11829:11893   */\n      sstore\n        /* \"#utility.yul\":11751:11907   */\n      pop\n        /* \"#utility.yul\":11728:11907   */\n    tag_247:\n        /* \"#utility.yul\":11953:11954   */\n      0x01\n        /* \"#utility.yul\":11949:11950   */\n      0x02\n        /* \"#utility.yul\":11941:11947   */\n      dup9\n        /* \"#utility.yul\":11937:11951   */\n      mul\n        /* \"#utility.yul\":11933:11955   */\n      add\n        /* \"#utility.yul\":11927:11931   */\n      dup9\n        /* \"#utility.yul\":11920:11956   */\n      sstore\n        /* \"#utility.yul\":11355:11966   */\n      pop\n      pop\n      pop\n        /* \"#utility.yul\":11318:12205   */\n    tag_239:\n      pop\n        /* \"#utility.yul\":10908:12211   */\n      pop\n      pop\n      pop\n        /* \"#utility.yul\":10816:12211   */\n      pop\n      pop\n      jump\t// out\n        /* \"#utility.yul\":12217:12365   */\n    tag_105:\n        /* \"#utility.yul\":12319:12330   */\n      0x00\n        /* \"#utility.yul\":12356:12359   */\n      dup2\n        /* \"#utility.yul\":12341:12359   */\n      swap1\n      pop\n        /* \"#utility.yul\":12217:12365   */\n      swap3\n      swap2\n      pop\n      pop\n      jump\t// out\n        /* \"#utility.yul\":12371:12761   */\n    tag_106:\n        /* \"#utility.yul\":12477:12480   */\n      0x00\n        /* \"#utility.yul\":12505:12544   */\n      tag_251\n        /* \"#utility.yul\":12538:12543   */\n      dup3\n        /* \"#utility.yul\":12505:12544   */\n      tag_72\n      jump\t// in\n    tag_251:\n        /* \"#utility.yul\":12560:12649   */\n      tag_252\n        /* \"#utility.yul\":12642:12648   */\n      dup2\n        /* \"#utility.yul\":12637:12640   */\n      dup6\n        /* \"#utility.yul\":12560:12649   */\n      tag_105\n      jump\t// in\n    tag_252:\n        /* \"#utility.yul\":12553:12649   */\n      swap4\n      pop\n        /* \"#utility.yul\":12658:12723   */\n      tag_253\n        /* \"#utility.yul\":12716:12722   */\n      dup2\n        /* \"#utility.yul\":12711:12714   */\n      dup6\n        /* \"#utility.yul\":12704:12708   */\n      0x20\n        /* \"#utility.yul\":12697:12702   */\n      dup7\n        /* \"#utility.yul\":12693:12709   */\n      add\n        /* \"#utility.yul\":12658:12723   */\n      tag_74\n      jump\t// in\n    tag_253:\n        /* \"#utility.yul\":12748:12754   */\n      dup1\n        /* \"#utility.yul\":12743:12746   */\n      dup5\n        /* \"#utility.yul\":12739:12755   */\n      add\n        /* \"#utility.yul\":12732:12755   */\n      swap2\n      pop\n        /* \"#utility.yul\":12481:12761   */\n      pop\n        /* \"#utility.yul\":12371:12761   */\n      swap3\n      swap2\n      pop\n      pop\n      jump\t// out\n        /* \"#utility.yul\":12767:13042   */\n    tag_59:\n        /* \"#utility.yul\":12899:12902   */\n      0x00\n        /* \"#utility.yul\":12921:13016   */\n      tag_255\n        /* \"#utility.yul\":13012:13015   */\n      dup3\n        /* \"#utility.yul\":13003:13009   */\n      dup5\n        /* \"#utility.yul\":12921:13016   */\n      tag_106\n      jump\t// in\n    tag_255:\n        /* \"#utility.yul\":12914:13016   */\n      swap2\n      pop\n        /* \"#utility.yul\":13033:13036   */\n      dup2\n        /* \"#utility.yul\":13026:13036   */\n      swap1\n      pop\n        /* \"#utility.yul\":12767:13042   */\n      swap3\n      swap2\n      pop\n      pop\n      jump\t// out\n        /* \"#utility.yul\":13072:13402   */\n    tag_107:\n        /* \"#utility.yul\":13188:13191   */\n      0x00\n        /* \"#utility.yul\":13209:13298   */\n      tag_257\n        /* \"#utility.yul\":13291:13297   */\n      dup4\n        /* \"#utility.yul\":13286:13289   */\n      dup6\n        /* \"#utility.yul\":13209:13298   */\n      tag_105\n      jump\t// in\n    tag_257:\n        /* \"#utility.yul\":13202:13298   */\n      swap4\n      pop\n        /* \"#utility.yul\":13308:13364   */\n      tag_258\n        /* \"#utility.yul\":13357:13363   */\n      dup4\n        /* \"#utility.yul\":13352:13355   */\n      dup6\n        /* \"#utility.yul\":13345:13350   */\n      dup5\n        /* \"#utility.yul\":13308:13364   */\n      tag_83\n      jump\t// in\n    tag_258:\n        /* \"#utility.yul\":13389:13395   */\n      dup3\n        /* \"#utility.yul\":13384:13387   */\n      dup5\n        /* \"#utility.yul\":13380:13396   */\n      add\n        /* \"#utility.yul\":13373:13396   */\n      swap1\n      pop\n        /* \"#utility.yul\":13072:13402   */\n      swap4\n      swap3\n      pop\n      pop\n      pop\n      jump\t// out\n        /* \"#utility.yul\":13408:13703   */\n    tag_64:\n        /* \"#utility.yul\":13550:13553   */\n      0x00\n        /* \"#utility.yul\":13572:13677   */\n      tag_260\n        /* \"#utility.yul\":13673:13676   */\n      dup3\n        /* \"#utility.yul\":13664:13670   */\n      dup5\n        /* \"#utility.yul\":13656:13662   */\n      dup7\n        /* \"#utility.yul\":13572:13677   */\n      tag_107\n      jump\t// in\n    tag_260:\n        /* \"#utility.yul\":13565:13677   */\n      swap2\n      pop\n        /* \"#utility.yul\":13694:13697   */\n      dup2\n        /* \"#utility.yul\":13687:13697   */\n      swap1\n      pop\n        /* \"#utility.yul\":13408:13703   */\n      swap4\n      swap3\n      pop\n      pop\n      pop\n      jump\t// out\n\n    auxdata: 0xa26469706673582212203a5e6ac7b2b3b9ee91eaa05a3f6290b1a7c60086c6390a4398da3bfe87a3a73e64736f6c634300081a0033\n}\n",
				"bytecode": {
					"linkReferences": {},
					"object": "6080604052348015600e575f80fd5b50610a948061001c5f395ff3fe608060405234801561000f575f80fd5b5060043610610086575f3560e01c80638bab8dd5116100595780638bab8dd514610113578063a621d15e14610143578063c03ece0614610161578063c6a3d5901461017d57610086565b806313a2c5bb1461008a578063452e7591146100a8578063471f7cdf146100d9578063795fff1d146100f7575b5f80fd5b6100926101ad565b60405161009f9190610377565b60405180910390f35b6100c260048036038101906100bd91906103cb565b6101b9565b6040516100d0929190610466565b60405180910390f35b6100e161026e565b6040516100ee9190610377565b60405180910390f35b610111600480360381019061010c91906105c0565b610273565b005b61012d6004803603810190610128919061061a565b6102f7565b60405161013a9190610377565b60405180910390f35b61014b610324565b6040516101589190610377565b60405180910390f35b61017b600480360381019061017691906103cb565b61032c565b005b610197600480360381019061019291906106be565b610335565b6040516101a49190610377565b60405180910390f35b5f600280549050905090565b600281815481106101c8575f80fd5b905f5260205f2090600202015f91509050805f0180546101e790610736565b80601f016020809104026020016040519081016040528092919081815260200182805461021390610736565b801561025e5780601f106102355761010080835404028352916020019161025e565b820191905f5260205f20905b81548152906001019060200180831161024157829003601f168201915b5050505050908060010154905082565b5f5481565b6002604051806040016040528084815260200183815250908060018154018082558091505060019003905f5260205f2090600202015f909190919091505f820151815f0190816102c39190610903565b50602082015181600101555050806001836040516102e19190610a0c565b9081526020016040518091039020819055505050565b6001818051602081018201805184825260208301602085012081835280955050505050505f915090505481565b5f8054905090565b805f8190555050565b5f60018383604051610348929190610a46565b908152602001604051809103902054905092915050565b5f819050919050565b6103718161035f565b82525050565b5f60208201905061038a5f830184610368565b92915050565b5f604051905090565b5f80fd5b5f80fd5b6103aa8161035f565b81146103b4575f80fd5b50565b5f813590506103c5816103a1565b92915050565b5f602082840312156103e0576103df610399565b5b5f6103ed848285016103b7565b91505092915050565b5f81519050919050565b5f82825260208201905092915050565b8281835e5f83830152505050565b5f601f19601f8301169050919050565b5f610438826103f6565b6104428185610400565b9350610452818560208601610410565b61045b8161041e565b840191505092915050565b5f6040820190508181035f83015261047e818561042e565b905061048d6020830184610368565b9392505050565b5f80fd5b5f80fd5b7f4e487b71000000000000000000000000000000000000000000000000000000005f52604160045260245ffd5b6104d28261041e565b810181811067ffffffffffffffff821117156104f1576104f061049c565b5b80604052505050565b5f610503610390565b905061050f82826104c9565b919050565b5f67ffffffffffffffff82111561052e5761052d61049c565b5b6105378261041e565b9050602081019050919050565b828183375f83830152505050565b5f61056461055f84610514565b6104fa565b9050828152602081018484840111156105805761057f610498565b5b61058b848285610544565b509392505050565b5f82601f8301126105a7576105a6610494565b5b81356105b7848260208601610552565b91505092915050565b5f80604083850312156105d6576105d5610399565b5b5f83013567ffffffffffffffff8111156105f3576105f261039d565b5b6105ff85828601610593565b9250506020610610858286016103b7565b9150509250929050565b5f6020828403121561062f5761062e610399565b5b5f82013567ffffffffffffffff81111561064c5761064b61039d565b5b61065884828501610593565b91505092915050565b5f80fd5b5f80fd5b5f8083601f84011261067e5761067d610494565b5b8235905067ffffffffffffffff81111561069b5761069a610661565b5b6020830191508360018202830111156106b7576106b6610665565b5b9250929050565b5f80602083850312156106d4576106d3610399565b5b5f83013567ffffffffffffffff8111156106f1576106f061039d565b5b6106fd85828601610669565b92509250509250929050565b7f4e487b71000000000000000000000000000000000000000000000000000000005f52602260045260245ffd5b5f600282049050600182168061074d57607f821691505b6020821081036107605761075f610709565b5b50919050565b5f819050815f5260205f209050919050565b5f6020601f8301049050919050565b5f82821b905092915050565b5f600883026107c27fffffffffffffffffffffffffffffffffffffffffffffffffffffffffffffffff82610787565b6107cc8683610787565b95508019841693508086168417925050509392505050565b5f819050919050565b5f6108076108026107fd8461035f565b6107e4565b61035f565b9050919050565b5f819050919050565b610820836107ed565b61083461082c8261080e565b848454610793565b825550505050565b5f90565b61084861083c565b610853818484610817565b505050565b5b818110156108765761086b5f82610840565b600181019050610859565b5050565b601f8211156108bb5761088c81610766565b61089584610778565b810160208510156108a4578190505b6108b86108b085610778565b830182610858565b50505b505050565b5f82821c905092915050565b5f6108db5f19846008026108c0565b1980831691505092915050565b5f6108f383836108cc565b9150826002028217905092915050565b61090c826103f6565b67ffffffffffffffff8111156109255761092461049c565b5b61092f8254610736565b61093a82828561087a565b5f60209050601f83116001811461096b575f8415610959578287015190505b61096385826108e8565b8655506109ca565b601f19841661097986610766565b5f5b828110156109a05784890151825560018201915060208501945060208101905061097b565b868310156109bd57848901516109b9601f8916826108cc565b8355505b6001600288020188555050505b505050505050565b5f81905092915050565b5f6109e6826103f6565b6109f081856109d2565b9350610a00818560208601610410565b80840191505092915050565b5f610a1782846109dc565b915081905092915050565b5f610a2d83856109d2565b9350610a3a838584610544565b82840190509392505050565b5f610a52828486610a22565b9150819050939250505056fea26469706673582212203a5e6ac7b2b3b9ee91eaa05a3f6290b1a7c60086c6390a4398da3bfe87a3a73e64736f6c634300081a0033",
					"opcodes": "PUSH1 0x80 PUSH1 0x40 MSTORE CALLVALUE DUP1 ISZERO PUSH1 0xE JUMPI PUSH0 DUP1 REVERT JUMPDEST POP PUSH2 0xA94 DUP1 PUSH2 0x1C PUSH0 CODECOPY PUSH0 RETURN INVALID PUSH1 0x80 PUSH1 0x40 MSTORE CALLVALUE DUP1 ISZERO PUSH2 0xF JUMPI PUSH0 DUP1 REVERT JUMPDEST POP PUSH1 0x4 CALLDATASIZE LT PUSH2 0x86 JUMPI PUSH0 CALLDATALOAD PUSH1 0xE0 SHR DUP1 PUSH4 0x8BAB8DD5 GT PUSH2 0x59 JUMPI DUP1 PUSH4 0x8BAB8DD5 EQ PUSH2 0x113 JUMPI DUP1 PUSH4 0xA621D15E EQ PUSH2 0x143 JUMPI DUP1 PUSH4 0xC03ECE06 EQ PUSH2 0x161 JUMPI DUP1 PUSH4 0xC6A3D590 EQ PUSH2 0x17D JUMPI PUSH2 0x86 JUMP JUMPDEST DUP1 PUSH4 0x13A2C5BB EQ PUSH2 0x8A JUMPI DUP1 PUSH4 0x452E7591 EQ PUSH2 0xA8 JUMPI DUP1 PUSH4 0x471F7CDF EQ PUSH2 0xD9 JUMPI DUP1 PUSH4 0x795FFF1D EQ PUSH2 0xF7 JUMPI JUMPDEST PUSH0 DUP1 REVERT JUMPDEST PUSH2 0x92 PUSH2 0x1AD JUMP JUMPDEST PUSH1 0x40 MLOAD PUSH2 0x9F SWAP2 SWAP1 PUSH2 0x377 JUMP JUMPDEST PUSH1 0x40 MLOAD DUP1 SWAP2 SUB SWAP1 RETURN JUMPDEST PUSH2 0xC2 PUSH1 0x4 DUP1 CALLDATASIZE SUB DUP2 ADD SWAP1 PUSH2 0xBD SWAP2 SWAP1 PUSH2 0x3CB JUMP JUMPDEST PUSH2 0x1B9 JUMP JUMPDEST PUSH1 0x40 MLOAD PUSH2 0xD0 SWAP3 SWAP2 SWAP1 PUSH2 0x466 JUMP JUMPDEST PUSH1 0x40 MLOAD DUP1 SWAP2 SUB SWAP1 RETURN JUMPDEST PUSH2 0xE1 PUSH2 0x26E JUMP JUMPDEST PUSH1 0x40 MLOAD PUSH2 0xEE SWAP2 SWAP1 PUSH2 0x377 JUMP JUMPDEST PUSH1 0x40 MLOAD DUP1 SWAP2 SUB SWAP1 RETURN JUMPDEST PUSH2 0x111 PUSH1 0x4 DUP1 CALLDATASIZE SUB DUP2 ADD SWAP1 PUSH2 0x10C SWAP2 SWAP1 PUSH2 0x5C0 JUMP JUMPDEST PUSH2 0x273 JUMP JUMPDEST STOP JUMPDEST PUSH2 0x12D PUSH1 0x4 DUP1 CALLDATASIZE SUB DUP2 ADD SWAP1 PUSH2 0x128 SWAP2 SWAP1 PUSH2 0x61A JUMP JUMPDEST PUSH2 0x2F7 JUMP JUMPDEST PUSH1 0x40 MLOAD PUSH2 0x13A SWAP2 SWAP1 PUSH2 0x377 JUMP JUMPDEST PUSH1 0x40 MLOAD DUP1 SWAP2 SUB SWAP1 RETURN JUMPDEST PUSH2 0x14B PUSH2 0x324 JUMP JUMPDEST PUSH1 0x40 MLOAD PUSH2 0x158 SWAP2 SWAP1 PUSH2 0x377 JUMP JUMPDEST PUSH1 0x40 MLOAD DUP1 SWAP2 SUB SWAP1 RETURN JUMPDEST PUSH2 0x17B PUSH1 0x4 DUP1 CALLDATASIZE SUB DUP2 ADD SWAP1 PUSH2 0x176 SWAP2 SWAP1 PUSH2 0x3CB JUMP JUMPDEST PUSH2 0x32C JUMP JUMPDEST STOP JUMPDEST PUSH2 0x197 PUSH1 0x4 DUP1 CALLDATASIZE SUB DUP2 ADD SWAP1 PUSH2 0x192 SWAP2 SWAP1 PUSH2 0x6BE JUMP JUMPDEST PUSH2 0x335 JUMP JUMPDEST PUSH1 0x40 MLOAD PUSH2 0x1A4 SWAP2 SWAP1 PUSH2 0x377 JUMP JUMPDEST PUSH1 0x40 MLOAD DUP1 SWAP2 SUB SWAP1 RETURN JUMPDEST PUSH0 PUSH1 0x2 DUP1 SLOAD SWAP1 POP SWAP1 POP SWAP1 JUMP JUMPDEST PUSH1 0x2 DUP2 DUP2 SLOAD DUP2 LT PUSH2 0x1C8 JUMPI PUSH0 DUP1 REVERT JUMPDEST SWAP1 PUSH0 MSTORE PUSH1 0x20 PUSH0 KECCAK256 SWAP1 PUSH1 0x2 MUL ADD PUSH0 SWAP2 POP SWAP1 POP DUP1 PUSH0 ADD DUP1 SLOAD PUSH2 0x1E7 SWAP1 PUSH2 0x736 JUMP JUMPDEST DUP1 PUSH1 0x1F ADD PUSH1 0x20 DUP1 SWAP2 DIV MUL PUSH1 0x20 ADD PUSH1 0x40 MLOAD SWAP1 DUP2 ADD PUSH1 0x40 MSTORE DUP1 SWAP3 SWAP2 SWAP1 DUP2 DUP2 MSTORE PUSH1 0x20 ADD DUP3 DUP1 SLOAD PUSH2 0x213 SWAP1 PUSH2 0x736 JUMP JUMPDEST DUP1 ISZERO PUSH2 0x25E JUMPI DUP1 PUSH1 0x1F LT PUSH2 0x235 JUMPI PUSH2 0x100 DUP1 DUP4 SLOAD DIV MUL DUP4 MSTORE SWAP2 PUSH1 0x20 ADD SWAP2 PUSH2 0x25E JUMP JUMPDEST DUP3 ADD SWAP2 SWAP1 PUSH0 MSTORE PUSH1 0x20 PUSH0 KECCAK256 SWAP1 JUMPDEST DUP2 SLOAD DUP2 MSTORE SWAP1 PUSH1 0x1 ADD SWAP1 PUSH1 0x20 ADD DUP1 DUP4 GT PUSH2 0x241 JUMPI DUP3 SWAP1 SUB PUSH1 0x1F AND DUP3 ADD SWAP2 JUMPDEST POP POP POP POP POP SWAP1 DUP1 PUSH1 0x1 ADD SLOAD SWAP1 POP DUP3 JUMP JUMPDEST PUSH0 SLOAD DUP2 JUMP JUMPDEST PUSH1 0x2 PUSH1 0x40 MLOAD DUP1 PUSH1 0x40 ADD PUSH1 0x40 MSTORE DUP1 DUP5 DUP2 MSTORE PUSH1 0x20 ADD DUP4 DUP2 MSTORE POP SWAP1 DUP1 PUSH1 0x1 DUP2 SLOAD ADD DUP1 DUP3 SSTORE DUP1 SWAP2 POP POP PUSH1 0x1 SWAP1 SUB SWAP1 PUSH0 MSTORE PUSH1 0x20 PUSH0 KECCAK256 SWAP1 PUSH1 0x2 MUL ADD PUSH0 SWAP1 SWAP2 SWAP1 SWAP2 SWAP1 SWAP2 POP PUSH0 DUP3 ADD MLOAD DUP2 PUSH0 ADD SWAP1 DUP2 PUSH2 0x2C3 SWAP2 SWAP1 PUSH2 0x903 JUMP JUMPDEST POP PUSH1 0x20 DUP3 ADD MLOAD DUP2 PUSH1 0x1 ADD SSTORE POP POP DUP1 PUSH1 0x1 DUP4 PUSH1 0x40 MLOAD PUSH2 0x2E1 SWAP2 SWAP1 PUSH2 0xA0C JUMP JUMPDEST SWAP1 DUP2 MSTORE PUSH1 0x20 ADD PUSH1 0x40 MLOAD DUP1 SWAP2 SUB SWAP1 KECCAK256 DUP2 SWAP1 SSTORE POP POP POP JUMP JUMPDEST PUSH1 0x1 DUP2 DUP1 MLOAD PUSH1 0x20 DUP2 ADD DUP3 ADD DUP1 MLOAD DUP5 DUP3 MSTORE PUSH1 0x20 DUP4 ADD PUSH1 0x20 DUP6 ADD KECCAK256 DUP2 DUP4 MSTORE DUP1 SWAP6 POP POP POP POP POP POP PUSH0 SWAP2 POP SWAP1 POP SLOAD DUP2 JUMP JUMPDEST PUSH0 DUP1 SLOAD SWAP1 POP SWAP1 JUMP JUMPDEST DUP1 PUSH0 DUP2 SWAP1 SSTORE POP POP JUMP JUMPDEST PUSH0 PUSH1 0x1 DUP4 DUP4 PUSH1 0x40 MLOAD PUSH2 0x348 SWAP3 SWAP2 SWAP1 PUSH2 0xA46 JUMP JUMPDEST SWAP1 DUP2 MSTORE PUSH1 0x20 ADD PUSH1 0x40 MLOAD DUP1 SWAP2 SUB SWAP1 KECCAK256 SLOAD SWAP1 POP SWAP3 SWAP2 POP POP JUMP JUMPDEST PUSH0 DUP2 SWAP1 POP SWAP2 SWAP1 POP JUMP JUMPDEST PUSH2 0x371 DUP2 PUSH2 0x35F JUMP JUMPDEST DUP3 MSTORE POP POP JUMP JUMPDEST PUSH0 PUSH1 0x20 DUP3 ADD SWAP1 POP PUSH2 0x38A PUSH0 DUP4 ADD DUP5 PUSH2 0x368 JUMP JUMPDEST SWAP3 SWAP2 POP POP JUMP JUMPDEST PUSH0 PUSH1 0x40 MLOAD SWAP1 POP SWAP1 JUMP JUMPDEST PUSH0 DUP1 REVERT JUMPDEST PUSH0 DUP1 REVERT JUMPDEST PUSH2 0x3AA DUP2 PUSH2 0x35F JUMP JUMPDEST DUP2 EQ PUSH2 0x3B4 JUMPI PUSH0 DUP1 REVERT JUMPDEST POP JUMP JUMPDEST PUSH0 DUP2 CALLDATALOAD SWAP1 POP PUSH2 0x3C5 DUP2 PUSH2 0x3A1 JUMP JUMPDEST SWAP3 SWAP2 POP POP JUMP JUMPDEST PUSH0 PUSH1 0x20 DUP3 DUP5 SUB SLT ISZERO PUSH2 0x3E0 JUMPI PUSH2 0x3DF PUSH2 0x399 JUMP JUMPDEST JUMPDEST PUSH0 PUSH2 0x3ED DUP5 DUP3 DUP6 ADD PUSH2 0x3B7 JUMP JUMPDEST SWAP2 POP POP SWAP3 SWAP2 POP POP JUMP JUMPDEST PUSH0 DUP2 MLOAD SWAP1 POP SWAP2 SWAP1 POP JUMP JUMPDEST PUSH0 DUP3 DUP3 MSTORE PUSH1 0x20 DUP3 ADD SWAP1 POP SWAP3 SWAP2 POP POP JUMP JUMPDEST DUP3 DUP2 DUP4 MCOPY PUSH0 DUP4 DUP4 ADD MSTORE POP POP POP JUMP JUMPDEST PUSH0 PUSH1 0x1F NOT PUSH1 0x1F DUP4 ADD AND SWAP1 POP SWAP2 SWAP1 POP JUMP JUMPDEST PUSH0 PUSH2 0x438 DUP3 PUSH2 0x3F6 JUMP JUMPDEST PUSH2 0x442 DUP2 DUP6 PUSH2 0x400 JUMP JUMPDEST SWAP4 POP PUSH2 0x452 DUP2 DUP6 PUSH1 0x20 DUP7 ADD PUSH2 0x410 JUMP JUMPDEST PUSH2 0x45B DUP2 PUSH2 0x41E JUMP JUMPDEST DUP5 ADD SWAP2 POP POP SWAP3 SWAP2 POP POP JUMP JUMPDEST PUSH0 PUSH1 0x40 DUP3 ADD SWAP1 POP DUP2 DUP2 SUB PUSH0 DUP4 ADD MSTORE PUSH2 0x47E DUP2 DUP6 PUSH2 0x42E JUMP JUMPDEST SWAP1 POP PUSH2 0x48D PUSH1 0x20 DUP4 ADD DUP5 PUSH2 0x368 JUMP JUMPDEST SWAP4 SWAP3 POP POP POP JUMP JUMPDEST PUSH0 DUP1 REVERT JUMPDEST PUSH0 DUP1 REVERT JUMPDEST PUSH32 0x4E487B7100000000000000000000000000000000000000000000000000000000 PUSH0 MSTORE PUSH1 0x41 PUSH1 0x4 MSTORE PUSH1 0x24 PUSH0 REVERT JUMPDEST PUSH2 0x4D2 DUP3 PUSH2 0x41E JUMP JUMPDEST DUP2 ADD DUP2 DUP2 LT PUSH8 0xFFFFFFFFFFFFFFFF DUP3 GT OR ISZERO PUSH2 0x4F1 JUMPI PUSH2 0x4F0 PUSH2 0x49C JUMP JUMPDEST JUMPDEST DUP1 PUSH1 0x40 MSTORE POP POP POP JUMP JUMPDEST PUSH0 PUSH2 0x503 PUSH2 0x390 JUMP JUMPDEST SWAP1 POP PUSH2 0x50F DUP3 DUP3 PUSH2 0x4C9 JUMP JUMPDEST SWAP2 SWAP1 POP JUMP JUMPDEST PUSH0 PUSH8 0xFFFFFFFFFFFFFFFF DUP3 GT ISZERO PUSH2 0x52E JUMPI PUSH2 0x52D PUSH2 0x49C JUMP JUMPDEST JUMPDEST PUSH2 0x537 DUP3 PUSH2 0x41E JUMP JUMPDEST SWAP1 POP PUSH1 0x20 DUP2 ADD SWAP1 POP SWAP2 SWAP1 POP JUMP JUMPDEST DUP3 DUP2 DUP4 CALLDATACOPY PUSH0 DUP4 DUP4 ADD MSTORE POP POP POP JUMP JUMPDEST PUSH0 PUSH2 0x564 PUSH2 0x55F DUP5 PUSH2 0x514 JUMP JUMPDEST PUSH2 0x4FA JUMP JUMPDEST SWAP1 POP DUP3 DUP2 MSTORE PUSH1 0x20 DUP2 ADD DUP5 DUP5 DUP5 ADD GT ISZERO PUSH2 0x580 JUMPI PUSH2 0x57F PUSH2 0x498 JUMP JUMPDEST JUMPDEST PUSH2 0x58B DUP5 DUP3 DUP6 PUSH2 0x544 JUMP JUMPDEST POP SWAP4 SWAP3 POP POP POP JUMP JUMPDEST PUSH0 DUP3 PUSH1 0x1F DUP4 ADD SLT PUSH2 0x5A7 JUMPI PUSH2 0x5A6 PUSH2 0x494 JUMP JUMPDEST JUMPDEST DUP2 CALLDATALOAD PUSH2 0x5B7 DUP5 DUP3 PUSH1 0x20 DUP7 ADD PUSH2 0x552 JUMP JUMPDEST SWAP2 POP POP SWAP3 SWAP2 POP POP JUMP JUMPDEST PUSH0 DUP1 PUSH1 0x40 DUP4 DUP6 SUB SLT ISZERO PUSH2 0x5D6 JUMPI PUSH2 0x5D5 PUSH2 0x399 JUMP JUMPDEST JUMPDEST PUSH0 DUP4 ADD CALLDATALOAD PUSH8 0xFFFFFFFFFFFFFFFF DUP2 GT ISZERO PUSH2 0x5F3 JUMPI PUSH2 0x5F2 PUSH2 0x39D JUMP JUMPDEST JUMPDEST PUSH2 0x5FF DUP6 DUP3 DUP7 ADD PUSH2 0x593 JUMP JUMPDEST SWAP3 POP POP PUSH1 0x20 PUSH2 0x610 DUP6 DUP3 DUP7 ADD PUSH2 0x3B7 JUMP JUMPDEST SWAP2 POP POP SWAP3 POP SWAP3 SWAP1 POP JUMP JUMPDEST PUSH0 PUSH1 0x20 DUP3 DUP5 SUB SLT ISZERO PUSH2 0x62F JUMPI PUSH2 0x62E PUSH2 0x399 JUMP JUMPDEST JUMPDEST PUSH0 DUP3 ADD CALLDATALOAD PUSH8 0xFFFFFFFFFFFFFFFF DUP2 GT ISZERO PUSH2 0x64C JUMPI PUSH2 0x64B PUSH2 0x39D JUMP JUMPDEST JUMPDEST PUSH2 0x658 DUP5 DUP3 DUP6 ADD PUSH2 0x593 JUMP JUMPDEST SWAP2 POP POP SWAP3 SWAP2 POP POP JUMP JUMPDEST PUSH0 DUP1 REVERT JUMPDEST PUSH0 DUP1 REVERT JUMPDEST PUSH0 DUP1 DUP4 PUSH1 0x1F DUP5 ADD SLT PUSH2 0x67E JUMPI PUSH2 0x67D PUSH2 0x494 JUMP JUMPDEST JUMPDEST DUP3 CALLDATALOAD SWAP1 POP PUSH8 0xFFFFFFFFFFFFFFFF DUP2 GT ISZERO PUSH2 0x69B JUMPI PUSH2 0x69A PUSH2 0x661 JUMP JUMPDEST JUMPDEST PUSH1 0x20 DUP4 ADD SWAP2 POP DUP4 PUSH1 0x1 DUP3 MUL DUP4 ADD GT ISZERO PUSH2 0x6B7 JUMPI PUSH2 0x6B6 PUSH2 0x665 JUMP JUMPDEST JUMPDEST SWAP3 POP SWAP3 SWAP1 POP JUMP JUMPDEST PUSH0 DUP1 PUSH1 0x20 DUP4 DUP6 SUB SLT ISZERO PUSH2 0x6D4 JUMPI PUSH2 0x6D3 PUSH2 0x399 JUMP JUMPDEST JUMPDEST PUSH0 DUP4 ADD CALLDATALOAD PUSH8 0xFFFFFFFFFFFFFFFF DUP2 GT ISZERO PUSH2 0x6F1 JUMPI PUSH2 0x6F0 PUSH2 0x39D JUMP JUMPDEST JUMPDEST PUSH2 0x6FD DUP6 DUP3 DUP7 ADD PUSH2 0x669 JUMP JUMPDEST SWAP3 POP SWAP3 POP POP SWAP3 POP SWAP3 SWAP1 POP JUMP JUMPDEST PUSH32 0x4E487B7100000000000000000000000000000000000000000000000000000000 PUSH0 MSTORE PUSH1 0x22 PUSH1 0x4 MSTORE PUSH1 0x24 PUSH0 REVERT JUMPDEST PUSH0 PUSH1 0x2 DUP3 DIV SWAP1 POP PUSH1 0x1 DUP3 AND DUP1 PUSH2 0x74D JUMPI PUSH1 0x7F DUP3 AND SWAP2 POP JUMPDEST PUSH1 0x20 DUP3 LT DUP2 SUB PUSH2 0x760 JUMPI PUSH2 0x75F PUSH2 0x709 JUMP JUMPDEST JUMPDEST POP SWAP2 SWAP1 POP JUMP JUMPDEST PUSH0 DUP2 SWAP1 POP DUP2 PUSH0 MSTORE PUSH1 0x20 PUSH0 KECCAK256 SWAP1 POP SWAP2 SWAP1 POP JUMP JUMPDEST PUSH0 PUSH1 0x20 PUSH1 0x1F DUP4 ADD DIV SWAP1 POP SWAP2 SWAP1 POP JUMP JUMPDEST PUSH0 DUP3 DUP3 SHL SWAP1 POP SWAP3 SWAP2 POP POP JUMP JUMPDEST PUSH0 PUSH1 0x8 DUP4 MUL PUSH2 0x7C2 PUSH32 0xFFFFFFFFFFFFFFFFFFFFFFFFFFFFFFFFFFFFFFFFFFFFFFFFFFFFFFFFFFFFFFFF DUP3 PUSH2 0x787 JUMP JUMPDEST PUSH2 0x7CC DUP7 DUP4 PUSH2 0x787 JUMP JUMPDEST SWAP6 POP DUP1 NOT DUP5 AND SWAP4 POP DUP1 DUP7 AND DUP5 OR SWAP3 POP POP POP SWAP4 SWAP3 POP POP POP JUMP JUMPDEST PUSH0 DUP2 SWAP1 POP SWAP2 SWAP1 POP JUMP JUMPDEST PUSH0 PUSH2 0x807 PUSH2 0x802 PUSH2 0x7FD DUP5 PUSH2 0x35F JUMP JUMPDEST PUSH2 0x7E4 JUMP JUMPDEST PUSH2 0x35F JUMP JUMPDEST SWAP1 POP SWAP2 SWAP1 POP JUMP JUMPDEST PUSH0 DUP2 SWAP1 POP SWAP2 SWAP1 POP JUMP JUMPDEST PUSH2 0x820 DUP4 PUSH2 0x7ED JUMP JUMPDEST PUSH2 0x834 PUSH2 0x82C DUP3 PUSH2 0x80E JUMP JUMPDEST DUP5 DUP5 SLOAD PUSH2 0x793 JUMP JUMPDEST DUP3 SSTORE POP POP POP POP JUMP JUMPDEST PUSH0 SWAP1 JUMP JUMPDEST PUSH2 0x848 PUSH2 0x83C JUMP JUMPDEST PUSH2 0x853 DUP2 DUP5 DUP5 PUSH2 0x817 JUMP JUMPDEST POP POP POP JUMP JUMPDEST JUMPDEST DUP2 DUP2 LT ISZERO PUSH2 0x876 JUMPI PUSH2 0x86B PUSH0 DUP3 PUSH2 0x840 JUMP JUMPDEST PUSH1 0x1 DUP2 ADD SWAP1 POP PUSH2 0x859 JUMP JUMPDEST POP POP JUMP JUMPDEST PUSH1 0x1F DUP3 GT ISZERO PUSH2 0x8BB JUMPI PUSH2 0x88C DUP2 PUSH2 0x766 JUMP JUMPDEST PUSH2 0x895 DUP5 PUSH2 0x778 JUMP JUMPDEST DUP2 ADD PUSH1 0x20 DUP6 LT ISZERO PUSH2 0x8A4 JUMPI DUP2 SWAP1 POP JUMPDEST PUSH2 0x8B8 PUSH2 0x8B0 DUP6 PUSH2 0x778 JUMP JUMPDEST DUP4 ADD DUP3 PUSH2 0x858 JUMP JUMPDEST POP POP JUMPDEST POP POP POP JUMP JUMPDEST PUSH0 DUP3 DUP3 SHR SWAP1 POP SWAP3 SWAP2 POP POP JUMP JUMPDEST PUSH0 PUSH2 0x8DB PUSH0 NOT DUP5 PUSH1 0x8 MUL PUSH2 0x8C0 JUMP JUMPDEST NOT DUP1 DUP4 AND SWAP2 POP POP SWAP3 SWAP2 POP POP JUMP JUMPDEST PUSH0 PUSH2 0x8F3 DUP4 DUP4 PUSH2 0x8CC JUMP JUMPDEST SWAP2 POP DUP3 PUSH1 0x2 MUL DUP3 OR SWAP1 POP SWAP3 SWAP2 POP POP JUMP JUMPDEST PUSH2 0x90C DUP3 PUSH2 0x3F6 JUMP JUMPDEST PUSH8 0xFFFFFFFFFFFFFFFF DUP2 GT ISZERO PUSH2 0x925 JUMPI PUSH2 0x924 PUSH2 0x49C JUMP JUMPDEST JUMPDEST PUSH2 0x92F DUP3 SLOAD PUSH2 0x736 JUMP JUMPDEST PUSH2 0x93A DUP3 DUP3 DUP6 PUSH2 0x87A JUMP JUMPDEST PUSH0 PUSH1 0x20 SWAP1 POP PUSH1 0x1F DUP4 GT PUSH1 0x1 DUP2 EQ PUSH2 0x96B JUMPI PUSH0 DUP5 ISZERO PUSH2 0x959 JUMPI DUP3 DUP8 ADD MLOAD SWAP1 POP JUMPDEST PUSH2 0x963 DUP6 DUP3 PUSH2 0x8E8 JUMP JUMPDEST DUP7 SSTORE POP PUSH2 0x9CA JUMP JUMPDEST PUSH1 0x1F NOT DUP5 AND PUSH2 0x979 DUP7 PUSH2 0x766 JUMP JUMPDEST PUSH0 JUMPDEST DUP3 DUP2 LT ISZERO PUSH2 0x9A0 JUMPI DUP5 DUP10 ADD MLOAD DUP3 SSTORE PUSH1 0x1 DUP3 ADD SWAP2 POP PUSH1 0x20 DUP6 ADD SWAP5 POP PUSH1 0x20 DUP2 ADD SWAP1 POP PUSH2 0x97B JUMP JUMPDEST DUP7 DUP4 LT ISZERO PUSH2 0x9BD JUMPI DUP5 DUP10 ADD MLOAD PUSH2 0x9B9 PUSH1 0x1F DUP10 AND DUP3 PUSH2 0x8CC JUMP JUMPDEST DUP4 SSTORE POP JUMPDEST PUSH1 0x1 PUSH1 0x2 DUP9 MUL ADD DUP9 SSTORE POP POP POP JUMPDEST POP POP POP POP POP POP JUMP JUMPDEST PUSH0 DUP2 SWAP1 POP SWAP3 SWAP2 POP POP JUMP JUMPDEST PUSH0 PUSH2 0x9E6 DUP3 PUSH2 0x3F6 JUMP JUMPDEST PUSH2 0x9F0 DUP2 DUP6 PUSH2 0x9D2 JUMP JUMPDEST SWAP4 POP PUSH2 0xA00 DUP2 DUP6 PUSH1 0x20 DUP7 ADD PUSH2 0x410 JUMP JUMPDEST DUP1 DUP5 ADD SWAP2 POP POP SWAP3 SWAP2 POP POP JUMP JUMPDEST PUSH0 PUSH2 0xA17 DUP3 DUP5 PUSH2 0x9DC JUMP JUMPDEST SWAP2 POP DUP2 SWAP1 POP SWAP3 SWAP2 POP POP JUMP JUMPDEST PUSH0 PUSH2 0xA2D DUP4 DUP6 PUSH2 0x9D2 JUMP JUMPDEST SWAP4 POP PUSH2 0xA3A DUP4 DUP6 DUP5 PUSH2 0x544 JUMP JUMPDEST DUP3 DUP5 ADD SWAP1 POP SWAP4 SWAP3 POP POP POP JUMP JUMPDEST PUSH0 PUSH2 0xA52 DUP3 DUP5 DUP7 PUSH2 0xA22 JUMP JUMPDEST SWAP2 POP DUP2 SWAP1 POP SWAP4 SWAP3 POP POP POP JUMP INVALID LOG2 PUSH5 0x6970667358 0x22 SLT KECCAK256 GASPRICE MCOPY PUSH11 0xC7B2B3B9EE91EAA05A3F62 SWAP1 0xB1 0xA7 0xC6 STOP DUP7 0xC6 CODECOPY EXP NUMBER SWAP9 0xDA EXTCODESIZE INVALID DUP8 LOG3 0xA7 RETURNDATACOPY PUSH5 0x736F6C6343 STOP ADDMOD BYTE STOP CALLER "
				},
				"gasEstimates": {
					"creation": {
						"codeDepositCost": "541600",
						"executionCost": "573",
						"totalCost": "542173"
					},
					"external": {
						"addPeople(string,uint256)": "infinite",
						"favoriteNumber()": "2469",
						"getAgeFromName(string)": "infinite",
						"getFavoriteNumber()": "2454",
						"getSizePeople()": "2441",
						"listPeople(uint256)": "infinite",
						"nameToFavoriteNumber(string)": "infinite",
						"storeFavoriteNumber(uint256)": "22558"
					}
				},
				"methodIdentifiers": {
					"addPeople(string,uint256)": "795fff1d",
					"favoriteNumber()": "471f7cdf",
					"getAgeFromName(string)": "c6a3d590",
					"getFavoriteNumber()": "a621d15e",
					"getSizePeople()": "13a2c5bb",
					"listPeople(uint256)": "452e7591",
					"nameToFavoriteNumber(string)": "8bab8dd5",
					"storeFavoriteNumber(uint256)": "c03ece06"
				}
			},
			"storageLayout": {
				"storage": [
					{
						"astId": 3,
						"contract": "SimpleStorage.sol:SimpleStorage",
						"label": "favoriteNumber",
						"offset": 0,
						"slot": "0",
						"type": "t_uint256"
					},
					{
						"astId": 12,
						"contract": "SimpleStorage.sol:SimpleStorage",
						"label": "nameToFavoriteNumber",
						"offset": 0,
						"slot": "1",
						"type": "t_mapping(t_string_memory_ptr,t_uint256)"
					},
					{
						"astId": 16,
						"contract": "SimpleStorage.sol:SimpleStorage",
						"label": "listPeople",
						"offset": 0,
						"slot": "2",
						"type": "t_array(t_struct(Person)8_storage)dyn_storage"
					}
				],
				"types": {
					"t_array(t_struct(Person)8_storage)dyn_storage": {
						"base": "t_struct(Person)8_storage",
						"encoding": "dynamic_array",
						"label": "struct SimpleStorage.Person[]",
						"numberOfBytes": "32"
					},
					"t_mapping(t_string_memory_ptr,t_uint256)": {
						"encoding": "mapping",
						"key": "t_string_memory_ptr",
						"label": "mapping(string => uint256)",
						"numberOfBytes": "32",
						"value": "t_uint256"
					},
					"t_string_memory_ptr": {
						"encoding": "bytes",
						"label": "string",
						"numberOfBytes": "32"
					},
					"t_string_storage": {
						"encoding": "bytes",
						"label": "string",
						"numberOfBytes": "32"
					},
					"t_struct(Person)8_storage": {
						"encoding": "inplace",
						"label": "struct SimpleStorage.Person",
						"members": [
							{
								"astId": 5,
								"contract": "SimpleStorage.sol:SimpleStorage",
								"label": "name",
								"offset": 0,
								"slot": "0",
								"type": "t_string_storage"
							},
							{
								"astId": 7,
								"contract": "SimpleStorage.sol:SimpleStorage",
								"label": "age",
								"offset": 0,
								"slot": "1",
								"type": "t_uint256"
							}
						],
						"numberOfBytes": "64"
					},
					"t_uint256": {
						"encoding": "inplace",
						"label": "uint256",
						"numberOfBytes": "32"
					}
				}
			},
			"userdoc": {
				"kind": "user",
				"methods": {},
				"version": 1
			}
		}
	}
}