{
	"ErrorTriage.sol": {
		"ErrorTriageExercise": {
			"abi": [
				{
					"inputs": [
						{
							"internalType": "uint256",
							"name": "_num",
							"type": "uint256"
						}
					],
					"name": "addToArr",
					"outputs": [],
					"stateMutability": "nonpayable",
					"type": "function"
				},
				{
					"inputs": [
						{
							"internalType": "uint256",
							"name": "_base",
							"type": "uint256"
						},
						{
							"internalType": "int256",
							"name": "_modifier",
							"type": "int256"
						}
					],
					"name": "applyModifier",
					"outputs": [
						{
							"internalType": "uint256",
							"name": "",
							"type": "uint256"
						}
					],
					"stateMutability": "pure",
					"type": "function"
				},
				{
					"inputs": [
						{
							"internalType": "uint256",
							"name": "_a",
							"type": "uint256"
						},
						{
							"internalType": "uint256",
							"name": "_b",
							"type": "uint256"
						},
						{
							"internalType": "uint256",
							"name": "_c",
							"type": "uint256"
						},
						{
							"internalType": "uint256",
							"name": "_d",
							"type": "uint256"
						}
					],
					"name": "diffWithNeighbor",
					"outputs": [
						{
							"internalType": "uint256[]",
							"name": "",
							"type": "uint256[]"
						}
					],
					"stateMutability": "pure",
					"type": "function"
				},
				{
					"inputs": [],
					"name": "getArr",
					"outputs": [
						{
							"internalType": "uint256[]",
							"name": "",
							"type": "uint256[]"
						}
					],
					"stateMutability": "view",
					"type": "function"
				},
				{
					"inputs": [],
					"name": "popWithReturn",
					"outputs": [
						{
							"internalType": "uint256",
							"name": "",
							"type": "uint256"
						}
					],
					"stateMutability": "nonpayable",
					"type": "function"
				},
				{
					"inputs": [],
					"name": "resetArr",
					"outputs": [],
					"stateMutability": "nonpayable",
					"type": "function"
				}
			],
			"devdoc": {
				"kind": "dev",
				"methods": {},
				"version": 1
			},
			"evm": {
				"assembly": "    /* \"ErrorTriage.sol\":58:2081  contract ErrorTriageExercise {... */\n  mstore(0x40, 0x80)\n  callvalue\n  dup1\n  iszero\n  tag_1\n  jumpi\n  revert(0x00, 0x00)\ntag_1:\n  pop\n  dataSize(sub_0)\n  dup1\n  dataOffset(sub_0)\n  0x00\n  codecopy\n  0x00\n  return\nstop\n\nsub_0: assembly {\n        /* \"ErrorTriage.sol\":58:2081  contract ErrorTriageExercise {... */\n      mstore(0x40, 0x80)\n      callvalue\n      dup1\n      iszero\n      tag_1\n      jumpi\n      revert(0x00, 0x00)\n    tag_1:\n      pop\n      jumpi(tag_2, lt(calldatasize, 0x04))\n      shr(0xe0, calldataload(0x00))\n      dup1\n      0x1abe2ac2\n      eq\n      tag_3\n      jumpi\n      dup1\n      0x29432314\n      eq\n      tag_4\n      jumpi\n      dup1\n      0x64529db5\n      eq\n      tag_5\n      jumpi\n      dup1\n      0xe1819ff9\n      eq\n      tag_6\n      jumpi\n      dup1\n      0xf74e51ea\n      eq\n      tag_7\n      jumpi\n      dup1\n      0xfb8cbced\n      eq\n      tag_8\n      jumpi\n    tag_2:\n      revert(0x00, 0x00)\n        /* \"ErrorTriage.sol\":1468:1800  function popWithReturn() public returns (uint) {... */\n    tag_3:\n      tag_9\n      tag_10\n      jump\t// in\n    tag_9:\n      mload(0x40)\n      tag_11\n      swap2\n      swap1\n      tag_12\n      jump\t// in\n    tag_11:\n      mload(0x40)\n      dup1\n      swap2\n      sub\n      swap1\n      return\n        /* \"ErrorTriage.sol\":283:714  function diffWithNeighbor(... */\n    tag_4:\n      tag_13\n      0x04\n      dup1\n      calldatasize\n      sub\n      dup2\n      add\n      swap1\n      tag_14\n      swap2\n      swap1\n      tag_15\n      jump\t// in\n    tag_14:\n      tag_16\n      jump\t// in\n    tag_13:\n      mload(0x40)\n      tag_17\n      swap2\n      swap1\n      tag_18\n      jump\t// in\n    tag_17:\n      mload(0x40)\n      dup1\n      swap2\n      sub\n      swap1\n      return\n        /* \"ErrorTriage.sol\":2025:2079  function resetArr() public {... */\n    tag_5:\n      tag_19\n      tag_20\n      jump\t// in\n    tag_19:\n      stop\n        /* \"ErrorTriage.sol\":1865:1932  function addToArr(uint _num) public {... */\n    tag_6:\n      tag_21\n      0x04\n      dup1\n      calldatasize\n      sub\n      dup2\n      add\n      swap1\n      tag_22\n      swap2\n      swap1\n      tag_23\n      jump\t// in\n    tag_22:\n      tag_24\n      jump\t// in\n    tag_21:\n      stop\n        /* \"ErrorTriage.sol\":873:1310  function applyModifier(... */\n    tag_7:\n      tag_25\n      0x04\n      dup1\n      calldatasize\n      sub\n      dup2\n      add\n      swap1\n      tag_26\n      swap2\n      swap1\n      tag_27\n      jump\t// in\n    tag_26:\n      tag_28\n      jump\t// in\n    tag_25:\n      mload(0x40)\n      tag_29\n      swap2\n      swap1\n      tag_12\n      jump\t// in\n    tag_29:\n      mload(0x40)\n      dup1\n      swap2\n      sub\n      swap1\n      return\n        /* \"ErrorTriage.sol\":1938:2019  function getArr() public view returns (uint[] memory) {... */\n    tag_8:\n      tag_30\n      tag_31\n      jump\t// in\n    tag_30:\n      mload(0x40)\n      tag_32\n      swap2\n      swap1\n      tag_18\n      jump\t// in\n    tag_32:\n      mload(0x40)\n      dup1\n      swap2\n      sub\n      swap1\n      return\n        /* \"ErrorTriage.sol\":1468:1800  function popWithReturn() public returns (uint) {... */\n    tag_10:\n        /* \"ErrorTriage.sol\":1509:1513  uint */\n      0x00\n        /* \"ErrorTriage.sol\":1546:1547  0 */\n      0x00\n        /* \"ErrorTriage.sol\":1533:1536  arr */\n      0x00\n        /* \"ErrorTriage.sol\":1533:1543  arr.length */\n      dup1\n      sload\n      swap1\n      pop\n        /* \"ErrorTriage.sol\":1533:1547  arr.length > 0 */\n      gt\n        /* \"ErrorTriage.sol\":1525:1566  require(arr.length > 0, \"Array is empty\") */\n      tag_34\n      jumpi\n      mload(0x40)\n      0x08c379a000000000000000000000000000000000000000000000000000000000\n      dup2\n      mstore\n      0x04\n      add\n      tag_35\n      swap1\n      tag_36\n      jump\t// in\n    tag_35:\n      mload(0x40)\n      dup1\n      swap2\n      sub\n      swap1\n      revert\n    tag_34:\n        /* \"ErrorTriage.sol\":1666:1682  uint lastElement */\n      0x00\n        /* \"ErrorTriage.sol\":1685:1688  arr */\n      0x00\n        /* \"ErrorTriage.sol\":1702:1703  1 */\n      0x01\n        /* \"ErrorTriage.sol\":1689:1692  arr */\n      0x00\n        /* \"ErrorTriage.sol\":1689:1699  arr.length */\n      dup1\n      sload\n      swap1\n      pop\n        /* \"ErrorTriage.sol\":1689:1703  arr.length - 1 */\n      tag_37\n      swap2\n      swap1\n      tag_38\n      jump\t// in\n    tag_37:\n        /* \"ErrorTriage.sol\":1685:1704  arr[arr.length - 1] */\n      dup2\n      sload\n      dup2\n      lt\n      tag_39\n      jumpi\n      tag_40\n      tag_41\n      jump\t// in\n    tag_40:\n    tag_39:\n      swap1\n      0x00\n      mstore\n      keccak256(0x00, 0x20)\n      add\n      sload\n        /* \"ErrorTriage.sol\":1666:1704  uint lastElement = arr[arr.length - 1] */\n      swap1\n      pop\n        /* \"ErrorTriage.sol\":1714:1717  arr */\n      0x00\n        /* \"ErrorTriage.sol\":1714:1723  arr.pop() */\n      dup1\n      sload\n      dup1\n      tag_43\n      jumpi\n      tag_44\n      tag_45\n      jump\t// in\n    tag_44:\n    tag_43:\n      0x01\n      swap1\n      sub\n      dup2\n      dup2\n      swap1\n      0x00\n      mstore\n      keccak256(0x00, 0x20)\n      add\n      0x00\n      swap1\n      sstore\n      swap1\n      sstore\n        /* \"ErrorTriage.sol\":1782:1793  lastElement */\n      dup1\n        /* \"ErrorTriage.sol\":1775:1793  return lastElement */\n      swap2\n      pop\n      pop\n        /* \"ErrorTriage.sol\":1468:1800  function popWithReturn() public returns (uint) {... */\n      swap1\n      jump\t// out\n        /* \"ErrorTriage.sol\":283:714  function diffWithNeighbor(... */\n    tag_16:\n        /* \"ErrorTriage.sol\":404:417  uint[] memory */\n      0x60\n        /* \"ErrorTriage.sol\":429:450  uint[] memory results */\n      0x00\n        /* \"ErrorTriage.sol\":464:465  3 */\n      0x03\n        /* \"ErrorTriage.sol\":453:466  new uint[](3) */\n      0xffffffffffffffff\n      dup2\n      gt\n      iszero\n      tag_48\n      jumpi\n      tag_49\n      tag_50\n      jump\t// in\n    tag_49:\n    tag_48:\n      mload(0x40)\n      swap1\n      dup1\n      dup3\n      mstore\n      dup1\n      0x20\n      mul\n      0x20\n      add\n      dup3\n      add\n      0x40\n      mstore\n      dup1\n      iszero\n      tag_51\n      jumpi\n      dup2\n      0x20\n      add\n      0x20\n      dup3\n      mul\n      dup1\n      calldatasize\n      dup4\n      calldatacopy\n      dup1\n      dup3\n      add\n      swap2\n      pop\n      pop\n      swap1\n      pop\n    tag_51:\n      pop\n        /* \"ErrorTriage.sol\":429:466  uint[] memory results = new uint[](3) */\n      swap1\n      pop\n        /* \"ErrorTriage.sol\":560:562  _b */\n      dup5\n        /* \"ErrorTriage.sol\":555:557  _a */\n      dup7\n        /* \"ErrorTriage.sol\":555:562  _a > _b */\n      gt\n        /* \"ErrorTriage.sol\":555:582  _a > _b ? _a - _b : _b - _a */\n      tag_52\n      jumpi\n        /* \"ErrorTriage.sol\":580:582  _a */\n      dup6\n        /* \"ErrorTriage.sol\":575:577  _b */\n      dup6\n        /* \"ErrorTriage.sol\":575:582  _b - _a */\n      tag_53\n      swap2\n      swap1\n      tag_38\n      jump\t// in\n    tag_53:\n        /* \"ErrorTriage.sol\":555:582  _a > _b ? _a - _b : _b - _a */\n      jump(tag_54)\n    tag_52:\n        /* \"ErrorTriage.sol\":570:572  _b */\n      dup5\n        /* \"ErrorTriage.sol\":565:567  _a */\n      dup7\n        /* \"ErrorTriage.sol\":565:572  _a - _b */\n      tag_55\n      swap2\n      swap1\n      tag_38\n      jump\t// in\n    tag_55:\n        /* \"ErrorTriage.sol\":555:582  _a > _b ? _a - _b : _b - _a */\n    tag_54:\n        /* \"ErrorTriage.sol\":542:549  results */\n      dup2\n        /* \"ErrorTriage.sol\":550:551  0 */\n      0x00\n        /* \"ErrorTriage.sol\":542:552  results[0] */\n      dup2\n      mload\n      dup2\n      lt\n      tag_56\n      jumpi\n      tag_57\n      tag_41\n      jump\t// in\n    tag_57:\n    tag_56:\n      0x20\n      mul\n      0x20\n      add\n      add\n        /* \"ErrorTriage.sol\":542:582  results[0] = _a > _b ? _a - _b : _b - _a */\n      dup2\n      dup2\n      mstore\n      pop\n      pop\n        /* \"ErrorTriage.sol\":610:612  _c */\n      dup4\n        /* \"ErrorTriage.sol\":605:607  _b */\n      dup6\n        /* \"ErrorTriage.sol\":605:612  _b > _c */\n      gt\n        /* \"ErrorTriage.sol\":605:632  _b > _c ? _b - _c : _c - _b */\n      tag_58\n      jumpi\n        /* \"ErrorTriage.sol\":630:632  _b */\n      dup5\n        /* \"ErrorTriage.sol\":625:627  _c */\n      dup5\n        /* \"ErrorTriage.sol\":625:632  _c - _b */\n      tag_59\n      swap2\n      swap1\n      tag_38\n      jump\t// in\n    tag_59:\n        /* \"ErrorTriage.sol\":605:632  _b > _c ? _b - _c : _c - _b */\n      jump(tag_60)\n    tag_58:\n        /* \"ErrorTriage.sol\":620:622  _c */\n      dup4\n        /* \"ErrorTriage.sol\":615:617  _b */\n      dup6\n        /* \"ErrorTriage.sol\":615:622  _b - _c */\n      tag_61\n      swap2\n      swap1\n      tag_38\n      jump\t// in\n    tag_61:\n        /* \"ErrorTriage.sol\":605:632  _b > _c ? _b - _c : _c - _b */\n    tag_60:\n        /* \"ErrorTriage.sol\":592:599  results */\n      dup2\n        /* \"ErrorTriage.sol\":600:601  1 */\n      0x01\n        /* \"ErrorTriage.sol\":592:602  results[1] */\n      dup2\n      mload\n      dup2\n      lt\n      tag_62\n      jumpi\n      tag_63\n      tag_41\n      jump\t// in\n    tag_63:\n    tag_62:\n      0x20\n      mul\n      0x20\n      add\n      add\n        /* \"ErrorTriage.sol\":592:632  results[1] = _b > _c ? _b - _c : _c - _b */\n      dup2\n      dup2\n      mstore\n      pop\n      pop\n        /* \"ErrorTriage.sol\":660:662  _d */\n      dup3\n        /* \"ErrorTriage.sol\":655:657  _c */\n      dup5\n        /* \"ErrorTriage.sol\":655:662  _c > _d */\n      gt\n        /* \"ErrorTriage.sol\":655:682  _c > _d ? _c - _d : _d - _c */\n      tag_64\n      jumpi\n        /* \"ErrorTriage.sol\":680:682  _c */\n      dup4\n        /* \"ErrorTriage.sol\":675:677  _d */\n      dup4\n        /* \"ErrorTriage.sol\":675:682  _d - _c */\n      tag_65\n      swap2\n      swap1\n      tag_38\n      jump\t// in\n    tag_65:\n        /* \"ErrorTriage.sol\":655:682  _c > _d ? _c - _d : _d - _c */\n      jump(tag_66)\n    tag_64:\n        /* \"ErrorTriage.sol\":670:672  _d */\n      dup3\n        /* \"ErrorTriage.sol\":665:667  _c */\n      dup5\n        /* \"ErrorTriage.sol\":665:672  _c - _d */\n      tag_67\n      swap2\n      swap1\n      tag_38\n      jump\t// in\n    tag_67:\n        /* \"ErrorTriage.sol\":655:682  _c > _d ? _c - _d : _d - _c */\n    tag_66:\n        /* \"ErrorTriage.sol\":642:649  results */\n      dup2\n        /* \"ErrorTriage.sol\":650:651  2 */\n      0x02\n        /* \"ErrorTriage.sol\":642:652  results[2] */\n      dup2\n      mload\n      dup2\n      lt\n      tag_68\n      jumpi\n      tag_69\n      tag_41\n      jump\t// in\n    tag_69:\n    tag_68:\n      0x20\n      mul\n      0x20\n      add\n      add\n        /* \"ErrorTriage.sol\":642:682  results[2] = _c > _d ? _c - _d : _d - _c */\n      dup2\n      dup2\n      mstore\n      pop\n      pop\n        /* \"ErrorTriage.sol\":700:707  results */\n      dup1\n        /* \"ErrorTriage.sol\":693:707  return results */\n      swap2\n      pop\n      pop\n        /* \"ErrorTriage.sol\":283:714  function diffWithNeighbor(... */\n      swap5\n      swap4\n      pop\n      pop\n      pop\n      pop\n      jump\t// out\n        /* \"ErrorTriage.sol\":2025:2079  function resetArr() public {... */\n    tag_20:\n        /* \"ErrorTriage.sol\":2069:2072  arr */\n      0x00\n      0x00\n        /* \"ErrorTriage.sol\":2062:2072  delete arr */\n      tag_71\n      swap2\n      swap1\n      tag_72\n      jump\t// in\n    tag_71:\n        /* \"ErrorTriage.sol\":2025:2079  function resetArr() public {... */\n      jump\t// out\n        /* \"ErrorTriage.sol\":1865:1932  function addToArr(uint _num) public {... */\n    tag_24:\n        /* \"ErrorTriage.sol\":1911:1914  arr */\n      0x00\n        /* \"ErrorTriage.sol\":1920:1924  _num */\n      dup2\n        /* \"ErrorTriage.sol\":1911:1925  arr.push(_num) */\n      swap1\n      dup1\n      0x01\n      dup2\n      sload\n      add\n      dup1\n      dup3\n      sstore\n      dup1\n      swap2\n      pop\n      pop\n      0x01\n      swap1\n      sub\n      swap1\n      0x00\n      mstore\n      keccak256(0x00, 0x20)\n      add\n      0x00\n      swap1\n      swap2\n      swap1\n      swap2\n      swap1\n      swap2\n      pop\n      sstore\n        /* \"ErrorTriage.sol\":1865:1932  function addToArr(uint _num) public {... */\n      pop\n      jump\t// out\n        /* \"ErrorTriage.sol\":873:1310  function applyModifier(... */\n    tag_28:\n        /* \"ErrorTriage.sol\":966:970  uint */\n      0x00\n        /* \"ErrorTriage.sol\":1069:1070  0 */\n      0x00\n        /* \"ErrorTriage.sol\":1056:1065  _modifier */\n      dup3\n        /* \"ErrorTriage.sol\":1056:1070  _modifier >= 0 */\n      slt\n        /* \"ErrorTriage.sol\":1052:1304  if (_modifier >= 0) {... */\n      tag_76\n      jumpi\n        /* \"ErrorTriage.sol\":1106:1115  _modifier */\n      dup2\n        /* \"ErrorTriage.sol\":1093:1098  _base */\n      dup4\n        /* \"ErrorTriage.sol\":1093:1116  _base + uint(_modifier) */\n      tag_77\n      swap2\n      swap1\n      tag_78\n      jump\t// in\n    tag_77:\n        /* \"ErrorTriage.sol\":1086:1116  return _base + uint(_modifier) */\n      swap1\n      pop\n      jump(tag_75)\n        /* \"ErrorTriage.sol\":1052:1304  if (_modifier >= 0) {... */\n    tag_76:\n        /* \"ErrorTriage.sol\":1147:1163  uint absModifier */\n      0x00\n        /* \"ErrorTriage.sol\":1172:1181  _modifier */\n      dup3\n        /* \"ErrorTriage.sol\":1171:1181  -_modifier */\n      tag_80\n      swap1\n      tag_81\n      jump\t// in\n    tag_80:\n        /* \"ErrorTriage.sol\":1147:1182  uint absModifier = uint(-_modifier) */\n      swap1\n      pop\n        /* \"ErrorTriage.sol\":1213:1224  absModifier */\n      dup1\n        /* \"ErrorTriage.sol\":1204:1209  _base */\n      dup5\n        /* \"ErrorTriage.sol\":1204:1224  _base >= absModifier */\n      lt\n      iszero\n        /* \"ErrorTriage.sol\":1196:1253  require(_base >= absModifier, \"Result would be negative\") */\n      tag_82\n      jumpi\n      mload(0x40)\n      0x08c379a000000000000000000000000000000000000000000000000000000000\n      dup2\n      mstore\n      0x04\n      add\n      tag_83\n      swap1\n      tag_84\n      jump\t// in\n    tag_83:\n      mload(0x40)\n      dup1\n      swap2\n      sub\n      swap1\n      revert\n    tag_82:\n        /* \"ErrorTriage.sol\":1282:1293  absModifier */\n      dup1\n        /* \"ErrorTriage.sol\":1274:1279  _base */\n      dup5\n        /* \"ErrorTriage.sol\":1274:1293  _base - absModifier */\n      tag_85\n      swap2\n      swap1\n      tag_38\n      jump\t// in\n    tag_85:\n        /* \"ErrorTriage.sol\":1267:1293  return _base - absModifier */\n      swap2\n      pop\n      pop\n        /* \"ErrorTriage.sol\":873:1310  function applyModifier(... */\n    tag_75:\n      swap3\n      swap2\n      pop\n      pop\n      jump\t// out\n        /* \"ErrorTriage.sol\":1938:2019  function getArr() public view returns (uint[] memory) {... */\n    tag_31:\n        /* \"ErrorTriage.sol\":1977:1990  uint[] memory */\n      0x60\n        /* \"ErrorTriage.sol\":2009:2012  arr */\n      0x00\n        /* \"ErrorTriage.sol\":2002:2012  return arr */\n      dup1\n      sload\n      dup1\n      0x20\n      mul\n      0x20\n      add\n      mload(0x40)\n      swap1\n      dup2\n      add\n      0x40\n      mstore\n      dup1\n      swap3\n      swap2\n      swap1\n      dup2\n      dup2\n      mstore\n      0x20\n      add\n      dup3\n      dup1\n      sload\n      dup1\n      iszero\n      tag_87\n      jumpi\n      0x20\n      mul\n      dup3\n      add\n      swap2\n      swap1\n      0x00\n      mstore\n      keccak256(0x00, 0x20)\n      swap1\n    tag_88:\n      dup2\n      sload\n      dup2\n      mstore\n      0x20\n      add\n      swap1\n      0x01\n      add\n      swap1\n      dup1\n      dup4\n      gt\n      tag_88\n      jumpi\n    tag_87:\n      pop\n      pop\n      pop\n      pop\n      pop\n      swap1\n      pop\n        /* \"ErrorTriage.sol\":1938:2019  function getArr() public view returns (uint[] memory) {... */\n      swap1\n      jump\t// out\n    tag_72:\n      pop\n      dup1\n      sload\n      0x00\n      dup3\n      sstore\n      swap1\n      0x00\n      mstore\n      keccak256(0x00, 0x20)\n      swap1\n      dup2\n      add\n      swap1\n      tag_90\n      swap2\n      swap1\n      tag_91\n      jump\t// in\n    tag_90:\n      pop\n      jump\t// out\n    tag_91:\n    tag_92:\n      dup1\n      dup3\n      gt\n      iszero\n      tag_93\n      jumpi\n      0x00\n      dup2\n      0x00\n      swap1\n      sstore\n      pop\n      0x01\n      add\n      jump(tag_92)\n    tag_93:\n      pop\n      swap1\n      jump\t// out\n        /* \"#utility.yul\":7:84   */\n    tag_94:\n        /* \"#utility.yul\":44:51   */\n      0x00\n        /* \"#utility.yul\":73:78   */\n      dup2\n        /* \"#utility.yul\":62:78   */\n      swap1\n      pop\n        /* \"#utility.yul\":7:84   */\n      swap2\n      swap1\n      pop\n      jump\t// out\n        /* \"#utility.yul\":90:208   */\n    tag_95:\n        /* \"#utility.yul\":177:201   */\n      tag_120\n        /* \"#utility.yul\":195:200   */\n      dup2\n        /* \"#utility.yul\":177:201   */\n      tag_94\n      jump\t// in\n    tag_120:\n        /* \"#utility.yul\":172:175   */\n      dup3\n        /* \"#utility.yul\":165:202   */\n      mstore\n        /* \"#utility.yul\":90:208   */\n      pop\n      pop\n      jump\t// out\n        /* \"#utility.yul\":214:436   */\n    tag_12:\n        /* \"#utility.yul\":307:311   */\n      0x00\n        /* \"#utility.yul\":345:347   */\n      0x20\n        /* \"#utility.yul\":334:343   */\n      dup3\n        /* \"#utility.yul\":330:348   */\n      add\n        /* \"#utility.yul\":322:348   */\n      swap1\n      pop\n        /* \"#utility.yul\":358:429   */\n      tag_122\n        /* \"#utility.yul\":426:427   */\n      0x00\n        /* \"#utility.yul\":415:424   */\n      dup4\n        /* \"#utility.yul\":411:428   */\n      add\n        /* \"#utility.yul\":402:408   */\n      dup5\n        /* \"#utility.yul\":358:429   */\n      tag_95\n      jump\t// in\n    tag_122:\n        /* \"#utility.yul\":214:436   */\n      swap3\n      swap2\n      pop\n      pop\n      jump\t// out\n        /* \"#utility.yul\":523:640   */\n    tag_97:\n        /* \"#utility.yul\":632:633   */\n      0x00\n        /* \"#utility.yul\":629:630   */\n      0x00\n        /* \"#utility.yul\":622:634   */\n      revert\n        /* \"#utility.yul\":769:891   */\n    tag_99:\n        /* \"#utility.yul\":842:866   */\n      tag_127\n        /* \"#utility.yul\":860:865   */\n      dup2\n        /* \"#utility.yul\":842:866   */\n      tag_94\n      jump\t// in\n    tag_127:\n        /* \"#utility.yul\":835:840   */\n      dup2\n        /* \"#utility.yul\":832:867   */\n      eq\n        /* \"#utility.yul\":822:885   */\n      tag_128\n      jumpi\n        /* \"#utility.yul\":881:882   */\n      0x00\n        /* \"#utility.yul\":878:879   */\n      0x00\n        /* \"#utility.yul\":871:883   */\n      revert\n        /* \"#utility.yul\":822:885   */\n    tag_128:\n        /* \"#utility.yul\":769:891   */\n      pop\n      jump\t// out\n        /* \"#utility.yul\":897:1036   */\n    tag_100:\n        /* \"#utility.yul\":943:948   */\n      0x00\n        /* \"#utility.yul\":981:987   */\n      dup2\n        /* \"#utility.yul\":968:988   */\n      calldataload\n        /* \"#utility.yul\":959:988   */\n      swap1\n      pop\n        /* \"#utility.yul\":997:1030   */\n      tag_130\n        /* \"#utility.yul\":1024:1029   */\n      dup2\n        /* \"#utility.yul\":997:1030   */\n      tag_99\n      jump\t// in\n    tag_130:\n        /* \"#utility.yul\":897:1036   */\n      swap3\n      swap2\n      pop\n      pop\n      jump\t// out\n        /* \"#utility.yul\":1042:1807   */\n    tag_15:\n        /* \"#utility.yul\":1128:1134   */\n      0x00\n        /* \"#utility.yul\":1136:1142   */\n      0x00\n        /* \"#utility.yul\":1144:1150   */\n      0x00\n        /* \"#utility.yul\":1152:1158   */\n      0x00\n        /* \"#utility.yul\":1201:1204   */\n      0x80\n        /* \"#utility.yul\":1189:1198   */\n      dup6\n        /* \"#utility.yul\":1180:1187   */\n      dup8\n        /* \"#utility.yul\":1176:1199   */\n      sub\n        /* \"#utility.yul\":1172:1205   */\n      slt\n        /* \"#utility.yul\":1169:1289   */\n      iszero\n      tag_132\n      jumpi\n        /* \"#utility.yul\":1208:1287   */\n      tag_133\n      tag_97\n      jump\t// in\n    tag_133:\n        /* \"#utility.yul\":1169:1289   */\n    tag_132:\n        /* \"#utility.yul\":1328:1329   */\n      0x00\n        /* \"#utility.yul\":1353:1406   */\n      tag_134\n        /* \"#utility.yul\":1398:1405   */\n      dup8\n        /* \"#utility.yul\":1389:1395   */\n      dup3\n        /* \"#utility.yul\":1378:1387   */\n      dup9\n        /* \"#utility.yul\":1374:1396   */\n      add\n        /* \"#utility.yul\":1353:1406   */\n      tag_100\n      jump\t// in\n    tag_134:\n        /* \"#utility.yul\":1343:1406   */\n      swap5\n      pop\n        /* \"#utility.yul\":1299:1416   */\n      pop\n        /* \"#utility.yul\":1455:1457   */\n      0x20\n        /* \"#utility.yul\":1481:1534   */\n      tag_135\n        /* \"#utility.yul\":1526:1533   */\n      dup8\n        /* \"#utility.yul\":1517:1523   */\n      dup3\n        /* \"#utility.yul\":1506:1515   */\n      dup9\n        /* \"#utility.yul\":1502:1524   */\n      add\n        /* \"#utility.yul\":1481:1534   */\n      tag_100\n      jump\t// in\n    tag_135:\n        /* \"#utility.yul\":1471:1534   */\n      swap4\n      pop\n        /* \"#utility.yul\":1426:1544   */\n      pop\n        /* \"#utility.yul\":1583:1585   */\n      0x40\n        /* \"#utility.yul\":1609:1662   */\n      tag_136\n        /* \"#utility.yul\":1654:1661   */\n      dup8\n        /* \"#utility.yul\":1645:1651   */\n      dup3\n        /* \"#utility.yul\":1634:1643   */\n      dup9\n        /* \"#utility.yul\":1630:1652   */\n      add\n        /* \"#utility.yul\":1609:1662   */\n      tag_100\n      jump\t// in\n    tag_136:\n        /* \"#utility.yul\":1599:1662   */\n      swap3\n      pop\n        /* \"#utility.yul\":1554:1672   */\n      pop\n        /* \"#utility.yul\":1711:1713   */\n      0x60\n        /* \"#utility.yul\":1737:1790   */\n      tag_137\n        /* \"#utility.yul\":1782:1789   */\n      dup8\n        /* \"#utility.yul\":1773:1779   */\n      dup3\n        /* \"#utility.yul\":1762:1771   */\n      dup9\n        /* \"#utility.yul\":1758:1780   */\n      add\n        /* \"#utility.yul\":1737:1790   */\n      tag_100\n      jump\t// in\n    tag_137:\n        /* \"#utility.yul\":1727:1790   */\n      swap2\n      pop\n        /* \"#utility.yul\":1682:1800   */\n      pop\n        /* \"#utility.yul\":1042:1807   */\n      swap3\n      swap6\n      swap2\n      swap5\n      pop\n      swap3\n      pop\n      jump\t// out\n        /* \"#utility.yul\":1813:1927   */\n    tag_101:\n        /* \"#utility.yul\":1880:1886   */\n      0x00\n        /* \"#utility.yul\":1914:1919   */\n      dup2\n        /* \"#utility.yul\":1908:1920   */\n      mload\n        /* \"#utility.yul\":1898:1920   */\n      swap1\n      pop\n        /* \"#utility.yul\":1813:1927   */\n      swap2\n      swap1\n      pop\n      jump\t// out\n        /* \"#utility.yul\":1933:2117   */\n    tag_102:\n        /* \"#utility.yul\":2032:2043   */\n      0x00\n        /* \"#utility.yul\":2066:2072   */\n      dup3\n        /* \"#utility.yul\":2061:2064   */\n      dup3\n        /* \"#utility.yul\":2054:2073   */\n      mstore\n        /* \"#utility.yul\":2106:2110   */\n      0x20\n        /* \"#utility.yul\":2101:2104   */\n      dup3\n        /* \"#utility.yul\":2097:2111   */\n      add\n        /* \"#utility.yul\":2082:2111   */\n      swap1\n      pop\n        /* \"#utility.yul\":1933:2117   */\n      swap3\n      swap2\n      pop\n      pop\n      jump\t// out\n        /* \"#utility.yul\":2123:2255   */\n    tag_103:\n        /* \"#utility.yul\":2190:2194   */\n      0x00\n        /* \"#utility.yul\":2213:2216   */\n      dup2\n        /* \"#utility.yul\":2205:2216   */\n      swap1\n      pop\n        /* \"#utility.yul\":2243:2247   */\n      0x20\n        /* \"#utility.yul\":2238:2241   */\n      dup3\n        /* \"#utility.yul\":2234:2248   */\n      add\n        /* \"#utility.yul\":2226:2248   */\n      swap1\n      pop\n        /* \"#utility.yul\":2123:2255   */\n      swap2\n      swap1\n      pop\n      jump\t// out\n        /* \"#utility.yul\":2261:2369   */\n    tag_104:\n        /* \"#utility.yul\":2338:2362   */\n      tag_142\n        /* \"#utility.yul\":2356:2361   */\n      dup2\n        /* \"#utility.yul\":2338:2362   */\n      tag_94\n      jump\t// in\n    tag_142:\n        /* \"#utility.yul\":2333:2336   */\n      dup3\n        /* \"#utility.yul\":2326:2363   */\n      mstore\n        /* \"#utility.yul\":2261:2369   */\n      pop\n      pop\n      jump\t// out\n        /* \"#utility.yul\":2375:2554   */\n    tag_105:\n        /* \"#utility.yul\":2444:2454   */\n      0x00\n        /* \"#utility.yul\":2465:2511   */\n      tag_144\n        /* \"#utility.yul\":2507:2510   */\n      dup4\n        /* \"#utility.yul\":2499:2505   */\n      dup4\n        /* \"#utility.yul\":2465:2511   */\n      tag_104\n      jump\t// in\n    tag_144:\n        /* \"#utility.yul\":2543:2547   */\n      0x20\n        /* \"#utility.yul\":2538:2541   */\n      dup4\n        /* \"#utility.yul\":2534:2548   */\n      add\n        /* \"#utility.yul\":2520:2548   */\n      swap1\n      pop\n        /* \"#utility.yul\":2375:2554   */\n      swap3\n      swap2\n      pop\n      pop\n      jump\t// out\n        /* \"#utility.yul\":2560:2673   */\n    tag_106:\n        /* \"#utility.yul\":2630:2634   */\n      0x00\n        /* \"#utility.yul\":2662:2666   */\n      0x20\n        /* \"#utility.yul\":2657:2660   */\n      dup3\n        /* \"#utility.yul\":2653:2667   */\n      add\n        /* \"#utility.yul\":2645:2667   */\n      swap1\n      pop\n        /* \"#utility.yul\":2560:2673   */\n      swap2\n      swap1\n      pop\n      jump\t// out\n        /* \"#utility.yul\":2709:3441   */\n    tag_107:\n        /* \"#utility.yul\":2828:2831   */\n      0x00\n        /* \"#utility.yul\":2857:2911   */\n      tag_147\n        /* \"#utility.yul\":2905:2910   */\n      dup3\n        /* \"#utility.yul\":2857:2911   */\n      tag_101\n      jump\t// in\n    tag_147:\n        /* \"#utility.yul\":2927:3013   */\n      tag_148\n        /* \"#utility.yul\":3006:3012   */\n      dup2\n        /* \"#utility.yul\":3001:3004   */\n      dup6\n        /* \"#utility.yul\":2927:3013   */\n      tag_102\n      jump\t// in\n    tag_148:\n        /* \"#utility.yul\":2920:3013   */\n      swap4\n      pop\n        /* \"#utility.yul\":3037:3093   */\n      tag_149\n        /* \"#utility.yul\":3087:3092   */\n      dup4\n        /* \"#utility.yul\":3037:3093   */\n      tag_103\n      jump\t// in\n    tag_149:\n        /* \"#utility.yul\":3116:3123   */\n      dup1\n        /* \"#utility.yul\":3147:3148   */\n      0x00\n        /* \"#utility.yul\":3132:3416   */\n    tag_150:\n        /* \"#utility.yul\":3157:3163   */\n      dup4\n        /* \"#utility.yul\":3154:3155   */\n      dup2\n        /* \"#utility.yul\":3151:3164   */\n      lt\n        /* \"#utility.yul\":3132:3416   */\n      iszero\n      tag_152\n      jumpi\n        /* \"#utility.yul\":3233:3239   */\n      dup2\n        /* \"#utility.yul\":3227:3240   */\n      mload\n        /* \"#utility.yul\":3260:3323   */\n      tag_153\n        /* \"#utility.yul\":3319:3322   */\n      dup9\n        /* \"#utility.yul\":3304:3317   */\n      dup3\n        /* \"#utility.yul\":3260:3323   */\n      tag_105\n      jump\t// in\n    tag_153:\n        /* \"#utility.yul\":3253:3323   */\n      swap8\n      pop\n        /* \"#utility.yul\":3346:3406   */\n      tag_154\n        /* \"#utility.yul\":3399:3405   */\n      dup4\n        /* \"#utility.yul\":3346:3406   */\n      tag_106\n      jump\t// in\n    tag_154:\n        /* \"#utility.yul\":3336:3406   */\n      swap3\n      pop\n        /* \"#utility.yul\":3192:3416   */\n      pop\n        /* \"#utility.yul\":3179:3180   */\n      0x01\n        /* \"#utility.yul\":3176:3177   */\n      dup2\n        /* \"#utility.yul\":3172:3181   */\n      add\n        /* \"#utility.yul\":3167:3181   */\n      swap1\n      pop\n        /* \"#utility.yul\":3132:3416   */\n      jump(tag_150)\n    tag_152:\n        /* \"#utility.yul\":3136:3150   */\n      pop\n        /* \"#utility.yul\":3432:3435   */\n      dup6\n        /* \"#utility.yul\":3425:3435   */\n      swap4\n      pop\n        /* \"#utility.yul\":2833:3441   */\n      pop\n      pop\n      pop\n        /* \"#utility.yul\":2709:3441   */\n      swap3\n      swap2\n      pop\n      pop\n      jump\t// out\n        /* \"#utility.yul\":3447:3820   */\n    tag_18:\n        /* \"#utility.yul\":3590:3594   */\n      0x00\n        /* \"#utility.yul\":3628:3630   */\n      0x20\n        /* \"#utility.yul\":3617:3626   */\n      dup3\n        /* \"#utility.yul\":3613:3631   */\n      add\n        /* \"#utility.yul\":3605:3631   */\n      swap1\n      pop\n        /* \"#utility.yul\":3677:3686   */\n      dup2\n        /* \"#utility.yul\":3671:3675   */\n      dup2\n        /* \"#utility.yul\":3667:3687   */\n      sub\n        /* \"#utility.yul\":3663:3664   */\n      0x00\n        /* \"#utility.yul\":3652:3661   */\n      dup4\n        /* \"#utility.yul\":3648:3665   */\n      add\n        /* \"#utility.yul\":3641:3688   */\n      mstore\n        /* \"#utility.yul\":3705:3813   */\n      tag_156\n        /* \"#utility.yul\":3808:3812   */\n      dup2\n        /* \"#utility.yul\":3799:3805   */\n      dup5\n        /* \"#utility.yul\":3705:3813   */\n      tag_107\n      jump\t// in\n    tag_156:\n        /* \"#utility.yul\":3697:3813   */\n      swap1\n      pop\n        /* \"#utility.yul\":3447:3820   */\n      swap3\n      swap2\n      pop\n      pop\n      jump\t// out\n        /* \"#utility.yul\":3826:4155   */\n    tag_23:\n        /* \"#utility.yul\":3885:3891   */\n      0x00\n        /* \"#utility.yul\":3934:3936   */\n      0x20\n        /* \"#utility.yul\":3922:3931   */\n      dup3\n        /* \"#utility.yul\":3913:3920   */\n      dup5\n        /* \"#utility.yul\":3909:3932   */\n      sub\n        /* \"#utility.yul\":3905:3937   */\n      slt\n        /* \"#utility.yul\":3902:4021   */\n      iszero\n      tag_158\n      jumpi\n        /* \"#utility.yul\":3940:4019   */\n      tag_159\n      tag_97\n      jump\t// in\n    tag_159:\n        /* \"#utility.yul\":3902:4021   */\n    tag_158:\n        /* \"#utility.yul\":4060:4061   */\n      0x00\n        /* \"#utility.yul\":4085:4138   */\n      tag_160\n        /* \"#utility.yul\":4130:4137   */\n      dup5\n        /* \"#utility.yul\":4121:4127   */\n      dup3\n        /* \"#utility.yul\":4110:4119   */\n      dup6\n        /* \"#utility.yul\":4106:4128   */\n      add\n        /* \"#utility.yul\":4085:4138   */\n      tag_100\n      jump\t// in\n    tag_160:\n        /* \"#utility.yul\":4075:4138   */\n      swap2\n      pop\n        /* \"#utility.yul\":4031:4148   */\n      pop\n        /* \"#utility.yul\":3826:4155   */\n      swap3\n      swap2\n      pop\n      pop\n      jump\t// out\n        /* \"#utility.yul\":4161:4237   */\n    tag_108:\n        /* \"#utility.yul\":4197:4204   */\n      0x00\n        /* \"#utility.yul\":4226:4231   */\n      dup2\n        /* \"#utility.yul\":4215:4231   */\n      swap1\n      pop\n        /* \"#utility.yul\":4161:4237   */\n      swap2\n      swap1\n      pop\n      jump\t// out\n        /* \"#utility.yul\":4243:4363   */\n    tag_109:\n        /* \"#utility.yul\":4315:4338   */\n      tag_163\n        /* \"#utility.yul\":4332:4337   */\n      dup2\n        /* \"#utility.yul\":4315:4338   */\n      tag_108\n      jump\t// in\n    tag_163:\n        /* \"#utility.yul\":4308:4313   */\n      dup2\n        /* \"#utility.yul\":4305:4339   */\n      eq\n        /* \"#utility.yul\":4295:4357   */\n      tag_164\n      jumpi\n        /* \"#utility.yul\":4353:4354   */\n      0x00\n        /* \"#utility.yul\":4350:4351   */\n      0x00\n        /* \"#utility.yul\":4343:4355   */\n      revert\n        /* \"#utility.yul\":4295:4357   */\n    tag_164:\n        /* \"#utility.yul\":4243:4363   */\n      pop\n      jump\t// out\n        /* \"#utility.yul\":4369:4506   */\n    tag_110:\n        /* \"#utility.yul\":4414:4419   */\n      0x00\n        /* \"#utility.yul\":4452:4458   */\n      dup2\n        /* \"#utility.yul\":4439:4459   */\n      calldataload\n        /* \"#utility.yul\":4430:4459   */\n      swap1\n      pop\n        /* \"#utility.yul\":4468:4500   */\n      tag_166\n        /* \"#utility.yul\":4494:4499   */\n      dup2\n        /* \"#utility.yul\":4468:4500   */\n      tag_109\n      jump\t// in\n    tag_166:\n        /* \"#utility.yul\":4369:4506   */\n      swap3\n      swap2\n      pop\n      pop\n      jump\t// out\n        /* \"#utility.yul\":4512:4984   */\n    tag_27:\n        /* \"#utility.yul\":4579:4585   */\n      0x00\n        /* \"#utility.yul\":4587:4593   */\n      0x00\n        /* \"#utility.yul\":4636:4638   */\n      0x40\n        /* \"#utility.yul\":4624:4633   */\n      dup4\n        /* \"#utility.yul\":4615:4622   */\n      dup6\n        /* \"#utility.yul\":4611:4634   */\n      sub\n        /* \"#utility.yul\":4607:4639   */\n      slt\n        /* \"#utility.yul\":4604:4723   */\n      iszero\n      tag_168\n      jumpi\n        /* \"#utility.yul\":4642:4721   */\n      tag_169\n      tag_97\n      jump\t// in\n    tag_169:\n        /* \"#utility.yul\":4604:4723   */\n    tag_168:\n        /* \"#utility.yul\":4762:4763   */\n      0x00\n        /* \"#utility.yul\":4787:4840   */\n      tag_170\n        /* \"#utility.yul\":4832:4839   */\n      dup6\n        /* \"#utility.yul\":4823:4829   */\n      dup3\n        /* \"#utility.yul\":4812:4821   */\n      dup7\n        /* \"#utility.yul\":4808:4830   */\n      add\n        /* \"#utility.yul\":4787:4840   */\n      tag_100\n      jump\t// in\n    tag_170:\n        /* \"#utility.yul\":4777:4840   */\n      swap3\n      pop\n        /* \"#utility.yul\":4733:4850   */\n      pop\n        /* \"#utility.yul\":4889:4891   */\n      0x20\n        /* \"#utility.yul\":4915:4967   */\n      tag_171\n        /* \"#utility.yul\":4959:4966   */\n      dup6\n        /* \"#utility.yul\":4950:4956   */\n      dup3\n        /* \"#utility.yul\":4939:4948   */\n      dup7\n        /* \"#utility.yul\":4935:4957   */\n      add\n        /* \"#utility.yul\":4915:4967   */\n      tag_110\n      jump\t// in\n    tag_171:\n        /* \"#utility.yul\":4905:4967   */\n      swap2\n      pop\n        /* \"#utility.yul\":4860:4977   */\n      pop\n        /* \"#utility.yul\":4512:4984   */\n      swap3\n      pop\n      swap3\n      swap1\n      pop\n      jump\t// out\n        /* \"#utility.yul\":4990:5159   */\n    tag_111:\n        /* \"#utility.yul\":5074:5085   */\n      0x00\n        /* \"#utility.yul\":5108:5114   */\n      dup3\n        /* \"#utility.yul\":5103:5106   */\n      dup3\n        /* \"#utility.yul\":5096:5115   */\n      mstore\n        /* \"#utility.yul\":5148:5152   */\n      0x20\n        /* \"#utility.yul\":5143:5146   */\n      dup3\n        /* \"#utility.yul\":5139:5153   */\n      add\n        /* \"#utility.yul\":5124:5153   */\n      swap1\n      pop\n        /* \"#utility.yul\":4990:5159   */\n      swap3\n      swap2\n      pop\n      pop\n      jump\t// out\n        /* \"#utility.yul\":5165:5329   */\n    tag_112:\n        /* \"#utility.yul\":5305:5321   */\n      0x417272617920697320656d707479000000000000000000000000000000000000\n        /* \"#utility.yul\":5301:5302   */\n      0x00\n        /* \"#utility.yul\":5293:5299   */\n      dup3\n        /* \"#utility.yul\":5289:5303   */\n      add\n        /* \"#utility.yul\":5282:5322   */\n      mstore\n        /* \"#utility.yul\":5165:5329   */\n      pop\n      jump\t// out\n        /* \"#utility.yul\":5335:5701   */\n    tag_113:\n        /* \"#utility.yul\":5477:5480   */\n      0x00\n        /* \"#utility.yul\":5498:5565   */\n      tag_175\n        /* \"#utility.yul\":5562:5564   */\n      0x0e\n        /* \"#utility.yul\":5557:5560   */\n      dup4\n        /* \"#utility.yul\":5498:5565   */\n      tag_111\n      jump\t// in\n    tag_175:\n        /* \"#utility.yul\":5491:5565   */\n      swap2\n      pop\n        /* \"#utility.yul\":5574:5667   */\n      tag_176\n        /* \"#utility.yul\":5663:5666   */\n      dup3\n        /* \"#utility.yul\":5574:5667   */\n      tag_112\n      jump\t// in\n    tag_176:\n        /* \"#utility.yul\":5692:5694   */\n      0x20\n        /* \"#utility.yul\":5687:5690   */\n      dup3\n        /* \"#utility.yul\":5683:5695   */\n      add\n        /* \"#utility.yul\":5676:5695   */\n      swap1\n      pop\n        /* \"#utility.yul\":5335:5701   */\n      swap2\n      swap1\n      pop\n      jump\t// out\n        /* \"#utility.yul\":5707:6126   */\n    tag_36:\n        /* \"#utility.yul\":5873:5877   */\n      0x00\n        /* \"#utility.yul\":5911:5913   */\n      0x20\n        /* \"#utility.yul\":5900:5909   */\n      dup3\n        /* \"#utility.yul\":5896:5914   */\n      add\n        /* \"#utility.yul\":5888:5914   */\n      swap1\n      pop\n        /* \"#utility.yul\":5960:5969   */\n      dup2\n        /* \"#utility.yul\":5954:5958   */\n      dup2\n        /* \"#utility.yul\":5950:5970   */\n      sub\n        /* \"#utility.yul\":5946:5947   */\n      0x00\n        /* \"#utility.yul\":5935:5944   */\n      dup4\n        /* \"#utility.yul\":5931:5948   */\n      add\n        /* \"#utility.yul\":5924:5971   */\n      mstore\n        /* \"#utility.yul\":5988:6119   */\n      tag_178\n        /* \"#utility.yul\":6114:6118   */\n      dup2\n        /* \"#utility.yul\":5988:6119   */\n      tag_113\n      jump\t// in\n    tag_178:\n        /* \"#utility.yul\":5980:6119   */\n      swap1\n      pop\n        /* \"#utility.yul\":5707:6126   */\n      swap2\n      swap1\n      pop\n      jump\t// out\n        /* \"#utility.yul\":6132:6312   */\n    tag_114:\n        /* \"#utility.yul\":6180:6257   */\n      0x4e487b7100000000000000000000000000000000000000000000000000000000\n        /* \"#utility.yul\":6177:6178   */\n      0x00\n        /* \"#utility.yul\":6170:6258   */\n      mstore\n        /* \"#utility.yul\":6277:6281   */\n      0x11\n        /* \"#utility.yul\":6274:6275   */\n      0x04\n        /* \"#utility.yul\":6267:6282   */\n      mstore\n        /* \"#utility.yul\":6301:6305   */\n      0x24\n        /* \"#utility.yul\":6298:6299   */\n      0x00\n        /* \"#utility.yul\":6291:6306   */\n      revert\n        /* \"#utility.yul\":6318:6512   */\n    tag_38:\n        /* \"#utility.yul\":6358:6362   */\n      0x00\n        /* \"#utility.yul\":6378:6398   */\n      tag_181\n        /* \"#utility.yul\":6396:6397   */\n      dup3\n        /* \"#utility.yul\":6378:6398   */\n      tag_94\n      jump\t// in\n    tag_181:\n        /* \"#utility.yul\":6373:6398   */\n      swap2\n      pop\n        /* \"#utility.yul\":6412:6432   */\n      tag_182\n        /* \"#utility.yul\":6430:6431   */\n      dup4\n        /* \"#utility.yul\":6412:6432   */\n      tag_94\n      jump\t// in\n    tag_182:\n        /* \"#utility.yul\":6407:6432   */\n      swap3\n      pop\n        /* \"#utility.yul\":6456:6457   */\n      dup3\n        /* \"#utility.yul\":6453:6454   */\n      dup3\n        /* \"#utility.yul\":6449:6458   */\n      sub\n        /* \"#utility.yul\":6441:6458   */\n      swap1\n      pop\n        /* \"#utility.yul\":6480:6481   */\n      dup2\n        /* \"#utility.yul\":6474:6478   */\n      dup2\n        /* \"#utility.yul\":6471:6482   */\n      gt\n        /* \"#utility.yul\":6468:6505   */\n      iszero\n      tag_183\n      jumpi\n        /* \"#utility.yul\":6485:6503   */\n      tag_184\n      tag_114\n      jump\t// in\n    tag_184:\n        /* \"#utility.yul\":6468:6505   */\n    tag_183:\n        /* \"#utility.yul\":6318:6512   */\n      swap3\n      swap2\n      pop\n      pop\n      jump\t// out\n        /* \"#utility.yul\":6518:6698   */\n    tag_41:\n        /* \"#utility.yul\":6566:6643   */\n      0x4e487b7100000000000000000000000000000000000000000000000000000000\n        /* \"#utility.yul\":6563:6564   */\n      0x00\n        /* \"#utility.yul\":6556:6644   */\n      mstore\n        /* \"#utility.yul\":6663:6667   */\n      0x32\n        /* \"#utility.yul\":6660:6661   */\n      0x04\n        /* \"#utility.yul\":6653:6668   */\n      mstore\n        /* \"#utility.yul\":6687:6691   */\n      0x24\n        /* \"#utility.yul\":6684:6685   */\n      0x00\n        /* \"#utility.yul\":6677:6692   */\n      revert\n        /* \"#utility.yul\":6704:6884   */\n    tag_45:\n        /* \"#utility.yul\":6752:6829   */\n      0x4e487b7100000000000000000000000000000000000000000000000000000000\n        /* \"#utility.yul\":6749:6750   */\n      0x00\n        /* \"#utility.yul\":6742:6830   */\n      mstore\n        /* \"#utility.yul\":6849:6853   */\n      0x31\n        /* \"#utility.yul\":6846:6847   */\n      0x04\n        /* \"#utility.yul\":6839:6854   */\n      mstore\n        /* \"#utility.yul\":6873:6877   */\n      0x24\n        /* \"#utility.yul\":6870:6871   */\n      0x00\n        /* \"#utility.yul\":6863:6878   */\n      revert\n        /* \"#utility.yul\":6890:7070   */\n    tag_50:\n        /* \"#utility.yul\":6938:7015   */\n      0x4e487b7100000000000000000000000000000000000000000000000000000000\n        /* \"#utility.yul\":6935:6936   */\n      0x00\n        /* \"#utility.yul\":6928:7016   */\n      mstore\n        /* \"#utility.yul\":7035:7039   */\n      0x41\n        /* \"#utility.yul\":7032:7033   */\n      0x04\n        /* \"#utility.yul\":7025:7040   */\n      mstore\n        /* \"#utility.yul\":7059:7063   */\n      0x24\n        /* \"#utility.yul\":7056:7057   */\n      0x00\n        /* \"#utility.yul\":7049:7064   */\n      revert\n        /* \"#utility.yul\":7076:7267   */\n    tag_78:\n        /* \"#utility.yul\":7116:7119   */\n      0x00\n        /* \"#utility.yul\":7135:7155   */\n      tag_189\n        /* \"#utility.yul\":7153:7154   */\n      dup3\n        /* \"#utility.yul\":7135:7155   */\n      tag_94\n      jump\t// in\n    tag_189:\n        /* \"#utility.yul\":7130:7155   */\n      swap2\n      pop\n        /* \"#utility.yul\":7169:7189   */\n      tag_190\n        /* \"#utility.yul\":7187:7188   */\n      dup4\n        /* \"#utility.yul\":7169:7189   */\n      tag_94\n      jump\t// in\n    tag_190:\n        /* \"#utility.yul\":7164:7189   */\n      swap3\n      pop\n        /* \"#utility.yul\":7212:7213   */\n      dup3\n        /* \"#utility.yul\":7209:7210   */\n      dup3\n        /* \"#utility.yul\":7205:7214   */\n      add\n        /* \"#utility.yul\":7198:7214   */\n      swap1\n      pop\n        /* \"#utility.yul\":7233:7236   */\n      dup1\n        /* \"#utility.yul\":7230:7231   */\n      dup3\n        /* \"#utility.yul\":7227:7237   */\n      gt\n        /* \"#utility.yul\":7224:7260   */\n      iszero\n      tag_191\n      jumpi\n        /* \"#utility.yul\":7240:7258   */\n      tag_192\n      tag_114\n      jump\t// in\n    tag_192:\n        /* \"#utility.yul\":7224:7260   */\n    tag_191:\n        /* \"#utility.yul\":7076:7267   */\n      swap3\n      swap2\n      pop\n      pop\n      jump\t// out\n        /* \"#utility.yul\":7273:7501   */\n    tag_81:\n        /* \"#utility.yul\":7308:7311   */\n      0x00\n        /* \"#utility.yul\":7331:7354   */\n      tag_194\n        /* \"#utility.yul\":7348:7353   */\n      dup3\n        /* \"#utility.yul\":7331:7354   */\n      tag_108\n      jump\t// in\n    tag_194:\n        /* \"#utility.yul\":7322:7354   */\n      swap2\n      pop\n        /* \"#utility.yul\":7376:7442   */\n      0x8000000000000000000000000000000000000000000000000000000000000000\n        /* \"#utility.yul\":7369:7374   */\n      dup3\n        /* \"#utility.yul\":7366:7443   */\n      sub\n        /* \"#utility.yul\":7363:7466   */\n      tag_195\n      jumpi\n        /* \"#utility.yul\":7446:7464   */\n      tag_196\n      tag_114\n      jump\t// in\n    tag_196:\n        /* \"#utility.yul\":7363:7466   */\n    tag_195:\n        /* \"#utility.yul\":7489:7494   */\n      dup2\n        /* \"#utility.yul\":7486:7487   */\n      0x00\n        /* \"#utility.yul\":7482:7495   */\n      sub\n        /* \"#utility.yul\":7475:7495   */\n      swap1\n      pop\n        /* \"#utility.yul\":7273:7501   */\n      swap2\n      swap1\n      pop\n      jump\t// out\n        /* \"#utility.yul\":7507:7681   */\n    tag_115:\n        /* \"#utility.yul\":7647:7673   */\n      0x526573756c7420776f756c64206265206e656761746976650000000000000000\n        /* \"#utility.yul\":7643:7644   */\n      0x00\n        /* \"#utility.yul\":7635:7641   */\n      dup3\n        /* \"#utility.yul\":7631:7645   */\n      add\n        /* \"#utility.yul\":7624:7674   */\n      mstore\n        /* \"#utility.yul\":7507:7681   */\n      pop\n      jump\t// out\n        /* \"#utility.yul\":7687:8053   */\n    tag_116:\n        /* \"#utility.yul\":7829:7832   */\n      0x00\n        /* \"#utility.yul\":7850:7917   */\n      tag_199\n        /* \"#utility.yul\":7914:7916   */\n      0x18\n        /* \"#utility.yul\":7909:7912   */\n      dup4\n        /* \"#utility.yul\":7850:7917   */\n      tag_111\n      jump\t// in\n    tag_199:\n        /* \"#utility.yul\":7843:7917   */\n      swap2\n      pop\n        /* \"#utility.yul\":7926:8019   */\n      tag_200\n        /* \"#utility.yul\":8015:8018   */\n      dup3\n        /* \"#utility.yul\":7926:8019   */\n      tag_115\n      jump\t// in\n    tag_200:\n        /* \"#utility.yul\":8044:8046   */\n      0x20\n        /* \"#utility.yul\":8039:8042   */\n      dup3\n        /* \"#utility.yul\":8035:8047   */\n      add\n        /* \"#utility.yul\":8028:8047   */\n      swap1\n      pop\n        /* \"#utility.yul\":7687:8053   */\n      swap2\n      swap1\n      pop\n      jump\t// out\n        /* \"#utility.yul\":8059:8478   */\n    tag_84:\n        /* \"#utility.yul\":8225:8229   */\n      0x00\n        /* \"#utility.yul\":8263:8265   */\n      0x20\n        /* \"#utility.yul\":8252:8261   */\n      dup3\n        /* \"#utility.yul\":8248:8266   */\n      add\n        /* \"#utility.yul\":8240:8266   */\n      swap1\n      pop\n        /* \"#utility.yul\":8312:8321   */\n      dup2\n        /* \"#utility.yul\":8306:8310   */\n      dup2\n        /* \"#utility.yul\":8302:8322   */\n      sub\n        /* \"#utility.yul\":8298:8299   */\n      0x00\n        /* \"#utility.yul\":8287:8296   */\n      dup4\n        /* \"#utility.yul\":8283:8300   */\n      add\n        /* \"#utility.yul\":8276:8323   */\n      mstore\n        /* \"#utility.yul\":8340:8471   */\n      tag_202\n        /* \"#utility.yul\":8466:8470   */\n      dup2\n        /* \"#utility.yul\":8340:8471   */\n      tag_116\n      jump\t// in\n    tag_202:\n        /* \"#utility.yul\":8332:8471   */\n      swap1\n      pop\n        /* \"#utility.yul\":8059:8478   */\n      swap2\n      swap1\n      pop\n      jump\t// out\n\n    auxdata: 0xa2646970667358221220ff66f7a6323bd7a3c0c6d904bdc178f85b0fcb2fa7dfed29a3974fb286c8782f64736f6c634300081e0033\n}\n",
				"bytecode": {
					"linkReferences": {},
					"object": "6080604052348015600e575f5ffd5b506108e18061001c5f395ff3fe608060405234801561000f575f5ffd5b5060043610610060575f3560e01c80631abe2ac214610064578063294323141461008257806364529db5146100b2578063e1819ff9146100bc578063f74e51ea146100d8578063fb8cbced14610108575b5f5ffd5b61006c610126565b604051610079919061044d565b60405180910390f35b61009c60048036038101906100979190610494565b6101c7565b6040516100a991906105af565b60405180910390f35b6100ba6102f0565b005b6100d660048036038101906100d191906105cf565b6102fe565b005b6100f260048036038101906100ed919061062d565b610326565b6040516100ff919061044d565b60405180910390f35b6101106103a7565b60405161011d91906105af565b60405180910390f35b5f5f5f805490501161016d576040517f08c379a0000000000000000000000000000000000000000000000000000000008152600401610164906106c5565b60405180910390fd5b5f5f60015f805490506101809190610710565b8154811061019157610190610743565b5b905f5260205f20015490505f8054806101ad576101ac610770565b5b600190038181905f5260205f20015f905590558091505090565b60605f600367ffffffffffffffff8111156101e5576101e461079d565b5b6040519080825280602002602001820160405280156102135781602001602082028036833780820191505090505b50905084861161022e5785856102299190610710565b61023b565b848661023a9190610710565b5b815f8151811061024e5761024d610743565b5b60200260200101818152505083851161027257848461026d9190610710565b61027f565b838561027e9190610710565b5b8160018151811061029357610292610743565b5b6020026020010181815250508284116102b75783836102b29190610710565b6102c4565b82846102c39190610710565b5b816002815181106102d8576102d7610743565b5b60200260200101818152505080915050949350505050565b5f5f6102fc91906103fc565b565b5f81908060018154018082558091505060019003905f5260205f20015f909190919091505550565b5f5f821261034157818361033a91906107ca565b90506103a1565b5f8261034c906107fd565b905080841015610391576040517f08c379a00000000000000000000000000000000000000000000000000000000081526004016103889061088d565b60405180910390fd5b808461039d9190610710565b9150505b92915050565b60605f8054806020026020016040519081016040528092919081815260200182805480156103f257602002820191905f5260205f20905b8154815260200190600101908083116103de575b5050505050905090565b5080545f8255905f5260205f2090810190610417919061041a565b50565b5b80821115610431575f815f90555060010161041b565b5090565b5f819050919050565b61044781610435565b82525050565b5f6020820190506104605f83018461043e565b92915050565b5f5ffd5b61047381610435565b811461047d575f5ffd5b50565b5f8135905061048e8161046a565b92915050565b5f5f5f5f608085870312156104ac576104ab610466565b5b5f6104b987828801610480565b94505060206104ca87828801610480565b93505060406104db87828801610480565b92505060606104ec87828801610480565b91505092959194509250565b5f81519050919050565b5f82825260208201905092915050565b5f819050602082019050919050565b61052a81610435565b82525050565b5f61053b8383610521565b60208301905092915050565b5f602082019050919050565b5f61055d826104f8565b6105678185610502565b935061057283610512565b805f5b838110156105a25781516105898882610530565b975061059483610547565b925050600181019050610575565b5085935050505092915050565b5f6020820190508181035f8301526105c78184610553565b905092915050565b5f602082840312156105e4576105e3610466565b5b5f6105f184828501610480565b91505092915050565b5f819050919050565b61060c816105fa565b8114610616575f5ffd5b50565b5f8135905061062781610603565b92915050565b5f5f6040838503121561064357610642610466565b5b5f61065085828601610480565b925050602061066185828601610619565b9150509250929050565b5f82825260208201905092915050565b7f417272617920697320656d7074790000000000000000000000000000000000005f82015250565b5f6106af600e8361066b565b91506106ba8261067b565b602082019050919050565b5f6020820190508181035f8301526106dc816106a3565b9050919050565b7f4e487b71000000000000000000000000000000000000000000000000000000005f52601160045260245ffd5b5f61071a82610435565b915061072583610435565b925082820390508181111561073d5761073c6106e3565b5b92915050565b7f4e487b71000000000000000000000000000000000000000000000000000000005f52603260045260245ffd5b7f4e487b71000000000000000000000000000000000000000000000000000000005f52603160045260245ffd5b7f4e487b71000000000000000000000000000000000000000000000000000000005f52604160045260245ffd5b5f6107d482610435565b91506107df83610435565b92508282019050808211156107f7576107f66106e3565b5b92915050565b5f610807826105fa565b91507f80000000000000000000000000000000000000000000000000000000000000008203610839576108386106e3565b5b815f039050919050565b7f526573756c7420776f756c64206265206e6567617469766500000000000000005f82015250565b5f61087760188361066b565b915061088282610843565b602082019050919050565b5f6020820190508181035f8301526108a48161086b565b905091905056fea2646970667358221220ff66f7a6323bd7a3c0c6d904bdc178f85b0fcb2fa7dfed29a3974fb286c8782f64736f6c634300081e0033",
					"opcodes": "PUSH1 0x80 PUSH1 0x40 MSTORE CALLVALUE DUP1 ISZERO PUSH1 0xE JUMPI PUSH0 PUSH0 REVERT JUMPDEST POP PUSH2 0x8E1 DUP1 PUSH2 0x1C PUSH0 CODECOPY PUSH0 RETURN INVALID PUSH1 0x80 PUSH1 0x40 MSTORE CALLVALUE DUP1 ISZERO PUSH2 0xF JUMPI PUSH0 PUSH0 REVERT JUMPDEST POP PUSH1 0x4 CALLDATASIZE LT PUSH2 0x60 JUMPI PUSH0 CALLDATALOAD PUSH1 0xE0 SHR DUP1 PUSH4 0x1ABE2AC2 EQ PUSH2 0x64 JUMPI DUP1 PUSH4 0x29432314 EQ PUSH2 0x82 JUMPI DUP1 PUSH4 0x64529DB5 EQ PUSH2 0xB2 JUMPI DUP1 PUSH4 0xE1819FF9 EQ PUSH2 0xBC JUMPI DUP1 PUSH4 0xF74E51EA EQ PUSH2 0xD8 JUMPI DUP1 PUSH4 0xFB8CBCED EQ PUSH2 0x108 JUMPI JUMPDEST PUSH0 PUSH0 REVERT JUMPDEST PUSH2 0x6C PUSH2 0x126 JUMP JUMPDEST PUSH1 0x40 MLOAD PUSH2 0x79 SWAP2 SWAP1 PUSH2 0x44D JUMP JUMPDEST PUSH1 0x40 MLOAD DUP1 SWAP2 SUB SWAP1 RETURN JUMPDEST PUSH2 0x9C PUSH1 0x4 DUP1 CALLDATASIZE SUB DUP2 ADD SWAP1 PUSH2 0x97 SWAP2 SWAP1 PUSH2 0x494 JUMP JUMPDEST PUSH2 0x1C7 JUMP JUMPDEST PUSH1 0x40 MLOAD PUSH2 0xA9 SWAP2 SWAP1 PUSH2 0x5AF JUMP JUMPDEST PUSH1 0x40 MLOAD DUP1 SWAP2 SUB SWAP1 RETURN JUMPDEST PUSH2 0xBA PUSH2 0x2F0 JUMP JUMPDEST STOP JUMPDEST PUSH2 0xD6 PUSH1 0x4 DUP1 CALLDATASIZE SUB DUP2 ADD SWAP1 PUSH2 0xD1 SWAP2 SWAP1 PUSH2 0x5CF JUMP JUMPDEST PUSH2 0x2FE JUMP JUMPDEST STOP JUMPDEST PUSH2 0xF2 PUSH1 0x4 DUP1 CALLDATASIZE SUB DUP2 ADD SWAP1 PUSH2 0xED SWAP2 SWAP1 PUSH2 0x62D JUMP JUMPDEST PUSH2 0x326 JUMP JUMPDEST PUSH1 0x40 MLOAD PUSH2 0xFF SWAP2 SWAP1 PUSH2 0x44D JUMP JUMPDEST PUSH1 0x40 MLOAD DUP1 SWAP2 SUB SWAP1 RETURN JUMPDEST PUSH2 0x110 PUSH2 0x3A7 JUMP JUMPDEST PUSH1 0x40 MLOAD PUSH2 0x11D SWAP2 SWAP1 PUSH2 0x5AF JUMP JUMPDEST PUSH1 0x40 MLOAD DUP1 SWAP2 SUB SWAP1 RETURN JUMPDEST PUSH0 PUSH0 PUSH0 DUP1 SLOAD SWAP1 POP GT PUSH2 0x16D JUMPI PUSH1 0x40 MLOAD PUSH32 0x8C379A000000000000000000000000000000000000000000000000000000000 DUP2 MSTORE PUSH1 0x4 ADD PUSH2 0x164 SWAP1 PUSH2 0x6C5 JUMP JUMPDEST PUSH1 0x40 MLOAD DUP1 SWAP2 SUB SWAP1 REVERT JUMPDEST PUSH0 PUSH0 PUSH1 0x1 PUSH0 DUP1 SLOAD SWAP1 POP PUSH2 0x180 SWAP2 SWAP1 PUSH2 0x710 JUMP JUMPDEST DUP2 SLOAD DUP2 LT PUSH2 0x191 JUMPI PUSH2 0x190 PUSH2 0x743 JUMP JUMPDEST JUMPDEST SWAP1 PUSH0 MSTORE PUSH1 0x20 PUSH0 KECCAK256 ADD SLOAD SWAP1 POP PUSH0 DUP1 SLOAD DUP1 PUSH2 0x1AD JUMPI PUSH2 0x1AC PUSH2 0x770 JUMP JUMPDEST JUMPDEST PUSH1 0x1 SWAP1 SUB DUP2 DUP2 SWAP1 PUSH0 MSTORE PUSH1 0x20 PUSH0 KECCAK256 ADD PUSH0 SWAP1 SSTORE SWAP1 SSTORE DUP1 SWAP2 POP POP SWAP1 JUMP JUMPDEST PUSH1 0x60 PUSH0 PUSH1 0x3 PUSH8 0xFFFFFFFFFFFFFFFF DUP2 GT ISZERO PUSH2 0x1E5 JUMPI PUSH2 0x1E4 PUSH2 0x79D JUMP JUMPDEST JUMPDEST PUSH1 0x40 MLOAD SWAP1 DUP1 DUP3 MSTORE DUP1 PUSH1 0x20 MUL PUSH1 0x20 ADD DUP3 ADD PUSH1 0x40 MSTORE DUP1 ISZERO PUSH2 0x213 JUMPI DUP2 PUSH1 0x20 ADD PUSH1 0x20 DUP3 MUL DUP1 CALLDATASIZE DUP4 CALLDATACOPY DUP1 DUP3 ADD SWAP2 POP POP SWAP1 POP JUMPDEST POP SWAP1 POP DUP5 DUP7 GT PUSH2 0x22E JUMPI DUP6 DUP6 PUSH2 0x229 SWAP2 SWAP1 PUSH2 0x710 JUMP JUMPDEST PUSH2 0x23B JUMP JUMPDEST DUP5 DUP7 PUSH2 0x23A SWAP2 SWAP1 PUSH2 0x710 JUMP JUMPDEST JUMPDEST DUP2 PUSH0 DUP2 MLOAD DUP2 LT PUSH2 0x24E JUMPI PUSH2 0x24D PUSH2 0x743 JUMP JUMPDEST JUMPDEST PUSH1 0x20 MUL PUSH1 0x20 ADD ADD DUP2 DUP2 MSTORE POP POP DUP4 DUP6 GT PUSH2 0x272 JUMPI DUP5 DUP5 PUSH2 0x26D SWAP2 SWAP1 PUSH2 0x710 JUMP JUMPDEST PUSH2 0x27F JUMP JUMPDEST DUP4 DUP6 PUSH2 0x27E SWAP2 SWAP1 PUSH2 0x710 JUMP JUMPDEST JUMPDEST DUP2 PUSH1 0x1 DUP2 MLOAD DUP2 LT PUSH2 0x293 JUMPI PUSH2 0x292 PUSH2 0x743 JUMP JUMPDEST JUMPDEST PUSH1 0x20 MUL PUSH1 0x20 ADD ADD DUP2 DUP2 MSTORE POP POP DUP3 DUP5 GT PUSH2 0x2B7 JUMPI DUP4 DUP4 PUSH2 0x2B2 SWAP2 SWAP1 PUSH2 0x710 JUMP JUMPDEST PUSH2 0x2C4 JUMP JUMPDEST DUP3 DUP5 PUSH2 0x2C3 SWAP2 SWAP1 PUSH2 0x710 JUMP JUMPDEST JUMPDEST DUP2 PUSH1 0x2 DUP2 MLOAD DUP2 LT PUSH2 0x2D8 JUMPI PUSH2 0x2D7 PUSH2 0x743 JUMP JUMPDEST JUMPDEST PUSH1 0x20 MUL PUSH1 0x20 ADD ADD DUP2 DUP2 MSTORE POP POP DUP1 SWAP2 POP POP SWAP5 SWAP4 POP POP POP POP JUMP JUMPDEST PUSH0 PUSH0 PUSH2 0x2FC SWAP2 SWAP1 PUSH2 0x3FC JUMP JUMPDEST JUMP JUMPDEST PUSH0 DUP2 SWAP1 DUP1 PUSH1 0x1 DUP2 SLOAD ADD DUP1 DUP3 SSTORE DUP1 SWAP2 POP POP PUSH1 0x1 SWAP1 SUB SWAP1 PUSH0 MSTORE PUSH1 0x20 PUSH0 KECCAK256 ADD PUSH0 SWAP1 SWAP2 SWAP1 SWAP2 SWAP1 SWAP2 POP SSTORE POP JUMP JUMPDEST PUSH0 PUSH0 DUP3 SLT PUSH2 0x341 JUMPI DUP2 DUP4 PUSH2 0x33A SWAP2 SWAP1 PUSH2 0x7CA JUMP JUMPDEST SWAP1 POP PUSH2 0x3A1 JUMP JUMPDEST PUSH0 DUP3 PUSH2 0x34C SWAP1 PUSH2 0x7FD JUMP JUMPDEST SWAP1 POP DUP1 DUP5 LT ISZERO PUSH2 0x391 JUMPI PUSH1 0x40 MLOAD PUSH32 0x8C379A000000000000000000000000000000000000000000000000000000000 DUP2 MSTORE PUSH1 0x4 ADD PUSH2 0x388 SWAP1 PUSH2 0x88D JUMP JUMPDEST PUSH1 0x40 MLOAD DUP1 SWAP2 SUB SWAP1 REVERT JUMPDEST DUP1 DUP5 PUSH2 0x39D SWAP2 SWAP1 PUSH2 0x710 JUMP JUMPDEST SWAP2 POP POP JUMPDEST SWAP3 SWAP2 POP POP JUMP JUMPDEST PUSH1 0x60 PUSH0 DUP1 SLOAD DUP1 PUSH1 0x20 MUL PUSH1 0x20 ADD PUSH1 0x40 MLOAD SWAP1 DUP2 ADD PUSH1 0x40 MSTORE DUP1 SWAP3 SWAP2 SWAP1 DUP2 DUP2 MSTORE PUSH1 0x20 ADD DUP3 DUP1 SLOAD DUP1 ISZERO PUSH2 0x3F2 JUMPI PUSH1 0x20 MUL DUP3 ADD SWAP2 SWAP1 PUSH0 MSTORE PUSH1 0x20 PUSH0 KECCAK256 SWAP1 JUMPDEST DUP2 SLOAD DUP2 MSTORE PUSH1 0x20 ADD SWAP1 PUSH1 0x1 ADD SWAP1 DUP1 DUP4 GT PUSH2 0x3DE JUMPI JUMPDEST POP POP POP POP POP SWAP1 POP SWAP1 JUMP JUMPDEST POP DUP1 SLOAD PUSH0 DUP3 SSTORE SWAP1 PUSH0 MSTORE PUSH1 0x20 PUSH0 KECCAK256 SWAP1 DUP2 ADD SWAP1 PUSH2 0x417 SWAP2 SWAP1 PUSH2 0x41A JUMP JUMPDEST POP JUMP JUMPDEST JUMPDEST DUP1 DUP3 GT ISZERO PUSH2 0x431 JUMPI PUSH0 DUP2 PUSH0 SWAP1 SSTORE POP PUSH1 0x1 ADD PUSH2 0x41B JUMP JUMPDEST POP SWAP1 JUMP JUMPDEST PUSH0 DUP2 SWAP1 POP SWAP2 SWAP1 POP JUMP JUMPDEST PUSH2 0x447 DUP2 PUSH2 0x435 JUMP JUMPDEST DUP3 MSTORE POP POP JUMP JUMPDEST PUSH0 PUSH1 0x20 DUP3 ADD SWAP1 POP PUSH2 0x460 PUSH0 DUP4 ADD DUP5 PUSH2 0x43E JUMP JUMPDEST SWAP3 SWAP2 POP POP JUMP JUMPDEST PUSH0 PUSH0 REVERT JUMPDEST PUSH2 0x473 DUP2 PUSH2 0x435 JUMP JUMPDEST DUP2 EQ PUSH2 0x47D JUMPI PUSH0 PUSH0 REVERT JUMPDEST POP JUMP JUMPDEST PUSH0 DUP2 CALLDATALOAD SWAP1 POP PUSH2 0x48E DUP2 PUSH2 0x46A JUMP JUMPDEST SWAP3 SWAP2 POP POP JUMP JUMPDEST PUSH0 PUSH0 PUSH0 PUSH0 PUSH1 0x80 DUP6 DUP8 SUB SLT ISZERO PUSH2 0x4AC JUMPI PUSH2 0x4AB PUSH2 0x466 JUMP JUMPDEST JUMPDEST PUSH0 PUSH2 0x4B9 DUP8 DUP3 DUP9 ADD PUSH2 0x480 JUMP JUMPDEST SWAP5 POP POP PUSH1 0x20 PUSH2 0x4CA DUP8 DUP3 DUP9 ADD PUSH2 0x480 JUMP JUMPDEST SWAP4 POP POP PUSH1 0x40 PUSH2 0x4DB DUP8 DUP3 DUP9 ADD PUSH2 0x480 JUMP JUMPDEST SWAP3 POP POP PUSH1 0x60 PUSH2 0x4EC DUP8 DUP3 DUP9 ADD PUSH2 0x480 JUMP JUMPDEST SWAP2 POP POP SWAP3 SWAP6 SWAP2 SWAP5 POP SWAP3 POP JUMP JUMPDEST PUSH0 DUP2 MLOAD SWAP1 POP SWAP2 SWAP1 POP JUMP JUMPDEST PUSH0 DUP3 DUP3 MSTORE PUSH1 0x20 DUP3 ADD SWAP1 POP SWAP3 SWAP2 POP POP JUMP JUMPDEST PUSH0 DUP2 SWAP1 POP PUSH1 0x20 DUP3 ADD SWAP1 POP SWAP2 SWAP1 POP JUMP JUMPDEST PUSH2 0x52A DUP2 PUSH2 0x435 JUMP JUMPDEST DUP3 MSTORE POP POP JUMP JUMPDEST PUSH0 PUSH2 0x53B DUP4 DUP4 PUSH2 0x521 JUMP JUMPDEST PUSH1 0x20 DUP4 ADD SWAP1 POP SWAP3 SWAP2 POP POP JUMP JUMPDEST PUSH0 PUSH1 0x20 DUP3 ADD SWAP1 POP SWAP2 SWAP1 POP JUMP JUMPDEST PUSH0 PUSH2 0x55D DUP3 PUSH2 0x4F8 JUMP JUMPDEST PUSH2 0x567 DUP2 DUP6 PUSH2 0x502 JUMP JUMPDEST SWAP4 POP PUSH2 0x572 DUP4 PUSH2 0x512 JUMP JUMPDEST DUP1 PUSH0 JUMPDEST DUP4 DUP2 LT ISZERO PUSH2 0x5A2 JUMPI DUP2 MLOAD PUSH2 0x589 DUP9 DUP3 PUSH2 0x530 JUMP JUMPDEST SWAP8 POP PUSH2 0x594 DUP4 PUSH2 0x547 JUMP JUMPDEST SWAP3 POP POP PUSH1 0x1 DUP2 ADD SWAP1 POP PUSH2 0x575 JUMP JUMPDEST POP DUP6 SWAP4 POP POP POP POP SWAP3 SWAP2 POP POP JUMP JUMPDEST PUSH0 PUSH1 0x20 DUP3 ADD SWAP1 POP DUP2 DUP2 SUB PUSH0 DUP4 ADD MSTORE PUSH2 0x5C7 DUP2 DUP5 PUSH2 0x553 JUMP JUMPDEST SWAP1 POP SWAP3 SWAP2 POP POP JUMP JUMPDEST PUSH0 PUSH1 0x20 DUP3 DUP5 SUB SLT ISZERO PUSH2 0x5E4 JUMPI PUSH2 0x5E3 PUSH2 0x466 JUMP JUMPDEST JUMPDEST PUSH0 PUSH2 0x5F1 DUP5 DUP3 DUP6 ADD PUSH2 0x480 JUMP JUMPDEST SWAP2 POP POP SWAP3 SWAP2 POP POP JUMP JUMPDEST PUSH0 DUP2 SWAP1 POP SWAP2 SWAP1 POP JUMP JUMPDEST PUSH2 0x60C DUP2 PUSH2 0x5FA JUMP JUMPDEST DUP2 EQ PUSH2 0x616 JUMPI PUSH0 PUSH0 REVERT JUMPDEST POP JUMP JUMPDEST PUSH0 DUP2 CALLDATALOAD SWAP1 POP PUSH2 0x627 DUP2 PUSH2 0x603 JUMP JUMPDEST SWAP3 SWAP2 POP POP JUMP JUMPDEST PUSH0 PUSH0 PUSH1 0x40 DUP4 DUP6 SUB SLT ISZERO PUSH2 0x643 JUMPI PUSH2 0x642 PUSH2 0x466 JUMP JUMPDEST JUMPDEST PUSH0 PUSH2 0x650 DUP6 DUP3 DUP7 ADD PUSH2 0x480 JUMP JUMPDEST SWAP3 POP POP PUSH1 0x20 PUSH2 0x661 DUP6 DUP3 DUP7 ADD PUSH2 0x619 JUMP JUMPDEST SWAP2 POP POP SWAP3 POP SWAP3 SWAP1 POP JUMP JUMPDEST PUSH0 DUP3 DUP3 MSTORE PUSH1 0x20 DUP3 ADD SWAP1 POP SWAP3 SWAP2 POP POP JUMP JUMPDEST PUSH32 0x417272617920697320656D707479000000000000000000000000000000000000 PUSH0 DUP3 ADD MSTORE POP JUMP JUMPDEST PUSH0 PUSH2 0x6AF PUSH1 0xE DUP4 PUSH2 0x66B JUMP JUMPDEST SWAP2 POP PUSH2 0x6BA DUP3 PUSH2 0x67B JUMP JUMPDEST PUSH1 0x20 DUP3 ADD SWAP1 POP SWAP2 SWAP1 POP JUMP JUMPDEST PUSH0 PUSH1 0x20 DUP3 ADD SWAP1 POP DUP2 DUP2 SUB PUSH0 DUP4 ADD MSTORE PUSH2 0x6DC DUP2 PUSH2 0x6A3 JUMP JUMPDEST SWAP1 POP SWAP2 SWAP1 POP JUMP JUMPDEST PUSH32 0x4E487B7100000000000000000000000000000000000000000000000000000000 PUSH0 MSTORE PUSH1 0x11 PUSH1 0x4 MSTORE PUSH1 0x24 PUSH0 REVERT JUMPDEST PUSH0 PUSH2 0x71A DUP3 PUSH2 0x435 JUMP JUMPDEST SWAP2 POP PUSH2 0x725 DUP4 PUSH2 0x435 JUMP JUMPDEST SWAP3 POP DUP3 DUP3 SUB SWAP1 POP DUP2 DUP2 GT ISZERO PUSH2 0x73D JUMPI PUSH2 0x73C PUSH2 0x6E3 JUMP JUMPDEST JUMPDEST SWAP3 SWAP2 POP POP JUMP JUMPDEST PUSH32 0x4E487B7100000000000000000000000000000000000000000000000000000000 PUSH0 MSTORE PUSH1 0x32 PUSH1 0x4 MSTORE PUSH1 0x24 PUSH0 REVERT JUMPDEST PUSH32 0x4E487B7100000000000000000000000000000000000000000000000000000000 PUSH0 MSTORE PUSH1 0x31 PUSH1 0x4 MSTORE PUSH1 0x24 PUSH0 REVERT JUMPDEST PUSH32 0x4E487B7100000000000000000000000000000000000000000000000000000000 PUSH0 MSTORE PUSH1 0x41 PUSH1 0x4 MSTORE PUSH1 0x24 PUSH0 REVERT JUMPDEST PUSH0 PUSH2 0x7D4 DUP3 PUSH2 0x435 JUMP JUMPDEST SWAP2 POP PUSH2 0x7DF DUP4 PUSH2 0x435 JUMP JUMPDEST SWAP3 POP DUP3 DUP3 ADD SWAP1 POP DUP1 DUP3 GT ISZERO PUSH2 0x7F7 JUMPI PUSH2 0x7F6 PUSH2 0x6E3 JUMP JUMPDEST JUMPDEST SWAP3 SWAP2 POP POP JUMP JUMPDEST PUSH0 PUSH2 0x807 DUP3 PUSH2 0x5FA JUMP JUMPDEST SWAP2 POP PUSH32 0x8000000000000000000000000000000000000000000000000000000000000000 DUP3 SUB PUSH2 0x839 JUMPI PUSH2 0x838 PUSH2 0x6E3 JUMP JUMPDEST JUMPDEST DUP2 PUSH0 SUB SWAP1 POP SWAP2 SWAP1 POP JUMP JUMPDEST PUSH32 0x526573756C7420776F756C64206265206E656761746976650000000000000000 PUSH0 DUP3 ADD MSTORE POP JUMP JUMPDEST PUSH0 PUSH2 0x877 PUSH1 0x18 DUP4 PUSH2 0x66B JUMP JUMPDEST SWAP2 POP PUSH2 0x882 DUP3 PUSH2 0x843 JUMP JUMPDEST PUSH1 0x20 DUP3 ADD SWAP1 POP SWAP2 SWAP1 POP JUMP JUMPDEST PUSH0 PUSH1 0x20 DUP3 ADD SWAP1 POP DUP2 DUP2 SUB PUSH0 DUP4 ADD MSTORE PUSH2 0x8A4 DUP2 PUSH2 0x86B JUMP JUMPDEST SWAP1 POP SWAP2 SWAP1 POP JUMP INVALID LOG2 PUSH5 0x6970667358 0x22 SLT KECCAK256 SELFDESTRUCT PUSH7 0xF7A6323BD7A3C0 0xC6 0xD9 DIV 0xBD 0xC1 PUSH25 0xF85B0FCB2FA7DFED29A3974FB286C8782F64736F6C63430008 0x1E STOP CALLER "
				},
				"gasEstimates": {
					"creation": {
						"codeDepositCost": "454600",
						"executionCost": "491",
						"totalCost": "455091"
					},
					"external": {
						"addToArr(uint256)": "46864",
						"applyModifier(uint256,int256)": "infinite",
						"diffWithNeighbor(uint256,uint256,uint256,uint256)": "infinite",
						"getArr()": "infinite",
						"popWithReturn()": "infinite",
						"resetArr()": "infinite"
					}
				},
				"methodIdentifiers": {
					"addToArr(uint256)": "e1819ff9",
					"applyModifier(uint256,int256)": "f74e51ea",
					"diffWithNeighbor(uint256,uint256,uint256,uint256)": "29432314",
					"getArr()": "fb8cbced",
					"popWithReturn()": "1abe2ac2",
					"resetArr()": "64529db5"
				}
			},
			"storageLayout": {
				"storage": [
					{
						"astId": 122,
						"contract": "ErrorTriage.sol:ErrorTriageExercise",
						"label": "arr",
						"offset": 0,
						"slot": "0",
						"type": "t_array(t_uint256)dyn_storage"
					}
				],
				"types": {
					"t_array(t_uint256)dyn_storage": {
						"base": "t_uint256",
						"encoding": "dynamic_array",
						"label": "uint256[]",
						"numberOfBytes": "32"
					},
					"t_uint256": {
						"encoding": "inplace",
						"label": "uint256",
						"numberOfBytes": "32"
					}
				}
			},
			"userdoc": {
				"kind": "user",
				"methods": {
					"applyModifier(uint256,int256)": {
						"notice": "Changes the _base by the value of _modifier.  Base is always >= 1000.  Modifiers can be between positive and negative 100;"
					},
					"diffWithNeighbor(uint256,uint256,uint256,uint256)": {
						"notice": "Finds the difference between each uint with it's neighbor (a to b, b to c, etc.) and returns a uint array with the absolute integer difference of each pairing."
					}
				},
				"version": 1
			}
		}
	}
}