{
	"ExtendSimpleStorage.sol": {
		"ExtendSimpleStorage": {
			"abi": [
				{
					"inputs": [
						{
							"internalType": "string",
							"name": "_name",
							"type": "string"
						},
						{
							"internalType": "uint256",
							"name": "_age",
							"type": "uint256"
						}
					],
					"name": "addPeople",
					"outputs": [],
					"stateMutability": "nonpayable",
					"type": "function"
				},
				{
					"inputs": [],
					"name": "favoriteNumber",
					"outputs": [
						{
							"internalType": "uint256",
							"name": "",
							"type": "uint256"
						}
					],
					"stateMutability": "view",
					"type": "function"
				},
				{
					"inputs": [
						{
							"internalType": "string",
							"name": "_name",
							"type": "string"
						}
					],
					"name": "getAgeFromName",
					"outputs": [
						{
							"internalType": "uint256",
							"name": "",
							"type": "uint256"
						}
					],
					"stateMutability": "view",
					"type": "function"
				},
				{
					"inputs": [],
					"name": "getFavoriteNumber",
					"outputs": [
						{
							"internalType": "uint256",
							"name": "",
							"type": "uint256"
						}
					],
					"stateMutability": "view",
					"type": "function"
				},
				{
					"inputs": [],
					"name": "getSizePeople",
					"outputs": [
						{
							"internalType": "uint256",
							"name": "",
							"type": "uint256"
						}
					],
					"stateMutability": "view",
					"type": "function"
				},
				{
					"inputs": [
						{
							"internalType": "uint256",
							"name": "",
							"type": "uint256"
						}
					],
					"name": "listPeople",
					"outputs": [
						{
							"internalType": "string",
							"name": "name",
							"type": "string"
						},
						{
							"internalType": "uint256",
							"name": "age",
							"type": "uint256"
						}
					],
					"stateMutability": "view",
					"type": "function"
				},
				{
					"inputs": [
						{
							"internalType": "string",
							"name": "",
							"type": "string"
						}
					],
					"name": "nameToFavoriteNumber",
					"outputs": [
						{
							"internalType": "uint256",
							"name": "",
							"type": "uint256"
						}
					],
					"stateMutability": "view",
					"type": "function"
				},
				{
					"inputs": [],
					"name": "sayHello",
					"outputs": [
						{
							"internalType": "string",
							"name": "",
							"type": "string"
						}
					],
					"stateMutability": "pure",
					"type": "function"
				},
				{
					"inputs": [
						{
							"internalType": "uint256",
							"name": "_favoriteNumber",
							"type": "uint256"
						}
					],
					"name": "storeFavoriteNumber",
					"outputs": [],
					"stateMutability": "nonpayable",
					"type": "function"
				}
			],
			"devdoc": {
				"kind": "dev",
				"methods": {},
				"version": 1
			},
			"evm": {
				"assembly": "    /* \"ExtendSimpleStorage.sol\":119:398  contract ExtendSimpleStorage is SimpleStorage {... */\n  mstore(0x40, 0x80)\n  callvalue\n  dup1\n  iszero\n  tag_1\n  jumpi\n  0x00\n  dup1\n  revert\ntag_1:\n  pop\n  dataSize(sub_0)\n  dup1\n  dataOffset(sub_0)\n  0x00\n  codecopy\n  0x00\n  return\nstop\n\nsub_0: assembly {\n        /* \"ExtendSimpleStorage.sol\":119:398  contract ExtendSimpleStorage is SimpleStorage {... */\n      mstore(0x40, 0x80)\n      callvalue\n      dup1\n      iszero\n      tag_1\n      jumpi\n      0x00\n      dup1\n      revert\n    tag_1:\n      pop\n      jumpi(tag_2, lt(calldatasize, 0x04))\n      shr(0xe0, calldataload(0x00))\n      dup1\n      0x8bab8dd5\n      gt\n      tag_12\n      jumpi\n      dup1\n      0x8bab8dd5\n      eq\n      tag_7\n      jumpi\n      dup1\n      0xa621d15e\n      eq\n      tag_8\n      jumpi\n      dup1\n      0xc03ece06\n      eq\n      tag_9\n      jumpi\n      dup1\n      0xc6a3d590\n      eq\n      tag_10\n      jumpi\n      dup1\n      0xef5fb05b\n      eq\n      tag_11\n      jumpi\n      jump(tag_2)\n    tag_12:\n      dup1\n      0x13a2c5bb\n      eq\n      tag_3\n      jumpi\n      dup1\n      0x452e7591\n      eq\n      tag_4\n      jumpi\n      dup1\n      0x471f7cdf\n      eq\n      tag_5\n      jumpi\n      dup1\n      0x795fff1d\n      eq\n      tag_6\n      jumpi\n    tag_2:\n      0x00\n      dup1\n      revert\n        /* \"SimpleStorage.sol\":756:850  function getSizePeople() public view returns (uint ) {... */\n    tag_3:\n      tag_13\n      tag_14\n      jump\t// in\n    tag_13:\n      mload(0x40)\n      tag_15\n      swap2\n      swap1\n      tag_16\n      jump\t// in\n    tag_15:\n      mload(0x40)\n      dup1\n      swap2\n      sub\n      swap1\n      return\n        /* \"SimpleStorage.sol\":320:346  Person[] public listPeople */\n    tag_4:\n      tag_17\n      0x04\n      dup1\n      calldatasize\n      sub\n      dup2\n      add\n      swap1\n      tag_18\n      swap2\n      swap1\n      tag_19\n      jump\t// in\n    tag_18:\n      tag_20\n      jump\t// in\n    tag_17:\n      mload(0x40)\n      tag_21\n      swap3\n      swap2\n      swap1\n      tag_22\n      jump\t// in\n    tag_21:\n      mload(0x40)\n      dup1\n      swap2\n      sub\n      swap1\n      return\n        /* \"SimpleStorage.sol\":163:189  uint public favoriteNumber */\n    tag_5:\n      tag_23\n      tag_24\n      jump\t// in\n    tag_23:\n      mload(0x40)\n      tag_25\n      swap2\n      swap1\n      tag_16\n      jump\t// in\n    tag_25:\n      mload(0x40)\n      dup1\n      swap2\n      sub\n      swap1\n      return\n        /* \"SimpleStorage.sol\":577:745  function addPeople(string memory _name, uint _age) public {... */\n    tag_6:\n      tag_26\n      0x04\n      dup1\n      calldatasize\n      sub\n      dup2\n      add\n      swap1\n      tag_27\n      swap2\n      swap1\n      tag_28\n      jump\t// in\n    tag_27:\n      tag_29\n      jump\t// in\n    tag_26:\n      stop\n        /* \"SimpleStorage.sol\":262:313  mapping(string => uint) public nameToFavoriteNumber */\n    tag_7:\n      tag_30\n      0x04\n      dup1\n      calldatasize\n      sub\n      dup2\n      add\n      swap1\n      tag_31\n      swap2\n      swap1\n      tag_32\n      jump\t// in\n    tag_31:\n      tag_33\n      jump\t// in\n    tag_30:\n      mload(0x40)\n      tag_34\n      swap2\n      swap1\n      tag_16\n      jump\t// in\n    tag_34:\n      mload(0x40)\n      dup1\n      swap2\n      sub\n      swap1\n      return\n        /* \"SimpleStorage.sol\":477:570  function getFavoriteNumber() public view returns(uint){... */\n    tag_8:\n      tag_35\n      tag_36\n      jump\t// in\n    tag_35:\n      mload(0x40)\n      tag_37\n      swap2\n      swap1\n      tag_16\n      jump\t// in\n    tag_37:\n      mload(0x40)\n      dup1\n      swap2\n      sub\n      swap1\n      return\n        /* \"ExtendSimpleStorage.sol\":271:394  function storeFavoriteNumber(uint _favoriteNumber) public override   {... */\n    tag_9:\n      tag_38\n      0x04\n      dup1\n      calldatasize\n      sub\n      dup2\n      add\n      swap1\n      tag_39\n      swap2\n      swap1\n      tag_19\n      jump\t// in\n    tag_39:\n      tag_40\n      jump\t// in\n    tag_38:\n      stop\n        /* \"SimpleStorage.sol\":857:983  function getAgeFromName(string calldata _name) public view returns (uint ) {... */\n    tag_10:\n      tag_41\n      0x04\n      dup1\n      calldatasize\n      sub\n      dup2\n      add\n      swap1\n      tag_42\n      swap2\n      swap1\n      tag_43\n      jump\t// in\n    tag_42:\n      tag_44\n      jump\t// in\n    tag_41:\n      mload(0x40)\n      tag_45\n      swap2\n      swap1\n      tag_16\n      jump\t// in\n    tag_45:\n      mload(0x40)\n      dup1\n      swap2\n      sub\n      swap1\n      return\n        /* \"ExtendSimpleStorage.sol\":172:265  function sayHello() public pure returns(string memory) {... */\n    tag_11:\n      tag_46\n      tag_47\n      jump\t// in\n    tag_46:\n      mload(0x40)\n      tag_48\n      swap2\n      swap1\n      tag_49\n      jump\t// in\n    tag_48:\n      mload(0x40)\n      dup1\n      swap2\n      sub\n      swap1\n      return\n        /* \"SimpleStorage.sol\":756:850  function getSizePeople() public view returns (uint ) {... */\n    tag_14:\n        /* \"SimpleStorage.sol\":802:806  uint */\n      0x00\n        /* \"SimpleStorage.sol\":825:835  listPeople */\n      0x02\n        /* \"SimpleStorage.sol\":825:842  listPeople.length */\n      dup1\n      sload\n      swap1\n      pop\n        /* \"SimpleStorage.sol\":818:842  return listPeople.length */\n      swap1\n      pop\n        /* \"SimpleStorage.sol\":756:850  function getSizePeople() public view returns (uint ) {... */\n      swap1\n      jump\t// out\n        /* \"SimpleStorage.sol\":320:346  Person[] public listPeople */\n    tag_20:\n      0x02\n      dup2\n      dup2\n      sload\n      dup2\n      lt\n      tag_51\n      jumpi\n      0x00\n      dup1\n      revert\n    tag_51:\n      swap1\n      0x00\n      mstore\n      keccak256(0x00, 0x20)\n      swap1\n      0x02\n      mul\n      add\n      0x00\n      swap2\n      pop\n      swap1\n      pop\n      dup1\n      0x00\n      add\n      dup1\n      sload\n      tag_53\n      swap1\n      tag_54\n      jump\t// in\n    tag_53:\n      dup1\n      0x1f\n      add\n      0x20\n      dup1\n      swap2\n      div\n      mul\n      0x20\n      add\n      mload(0x40)\n      swap1\n      dup2\n      add\n      0x40\n      mstore\n      dup1\n      swap3\n      swap2\n      swap1\n      dup2\n      dup2\n      mstore\n      0x20\n      add\n      dup3\n      dup1\n      sload\n      tag_55\n      swap1\n      tag_54\n      jump\t// in\n    tag_55:\n      dup1\n      iszero\n      tag_56\n      jumpi\n      dup1\n      0x1f\n      lt\n      tag_57\n      jumpi\n      0x0100\n      dup1\n      dup4\n      sload\n      div\n      mul\n      dup4\n      mstore\n      swap2\n      0x20\n      add\n      swap2\n      jump(tag_56)\n    tag_57:\n      dup3\n      add\n      swap2\n      swap1\n      0x00\n      mstore\n      keccak256(0x00, 0x20)\n      swap1\n    tag_58:\n      dup2\n      sload\n      dup2\n      mstore\n      swap1\n      0x01\n      add\n      swap1\n      0x20\n      add\n      dup1\n      dup4\n      gt\n      tag_58\n      jumpi\n      dup3\n      swap1\n      sub\n      0x1f\n      and\n      dup3\n      add\n      swap2\n    tag_56:\n      pop\n      pop\n      pop\n      pop\n      pop\n      swap1\n      dup1\n      0x01\n      add\n      sload\n      swap1\n      pop\n      dup3\n      jump\t// out\n        /* \"SimpleStorage.sol\":163:189  uint public favoriteNumber */\n    tag_24:\n      sload(0x00)\n      dup2\n      jump\t// out\n        /* \"SimpleStorage.sol\":577:745  function addPeople(string memory _name, uint _age) public {... */\n    tag_29:\n        /* \"SimpleStorage.sol\":645:655  listPeople */\n      0x02\n        /* \"SimpleStorage.sol\":661:692  Person({name:_name , age:_age}) */\n      mload(0x40)\n      dup1\n      0x40\n      add\n      0x40\n      mstore\n      dup1\n        /* \"SimpleStorage.sol\":674:679  _name */\n      dup5\n        /* \"SimpleStorage.sol\":661:692  Person({name:_name , age:_age}) */\n      dup2\n      mstore\n      0x20\n      add\n        /* \"SimpleStorage.sol\":686:690  _age */\n      dup4\n        /* \"SimpleStorage.sol\":661:692  Person({name:_name , age:_age}) */\n      dup2\n      mstore\n      pop\n        /* \"SimpleStorage.sol\":645:693  listPeople.push(Person({name:_name , age:_age})) */\n      swap1\n      dup1\n      0x01\n      dup2\n      sload\n      add\n      dup1\n      dup3\n      sstore\n      dup1\n      swap2\n      pop\n      pop\n      0x01\n      swap1\n      sub\n      swap1\n      0x00\n      mstore\n      keccak256(0x00, 0x20)\n      swap1\n      0x02\n      mul\n      add\n      0x00\n      swap1\n      swap2\n      swap1\n      swap2\n      swap1\n      swap2\n      pop\n      0x00\n      dup3\n      add\n      mload\n      dup2\n      0x00\n      add\n      swap1\n      dup2\n      tag_61\n      swap2\n      swap1\n      tag_62\n      jump\t// in\n    tag_61:\n      pop\n      0x20\n      dup3\n      add\n      mload\n      dup2\n      0x01\n      add\n      sstore\n      pop\n      pop\n        /* \"SimpleStorage.sol\":733:737  _age */\n      dup1\n        /* \"SimpleStorage.sol\":703:723  nameToFavoriteNumber */\n      0x01\n        /* \"SimpleStorage.sol\":724:729  _name */\n      dup4\n        /* \"SimpleStorage.sol\":703:730  nameToFavoriteNumber[_name] */\n      mload(0x40)\n      tag_63\n      swap2\n      swap1\n      tag_64\n      jump\t// in\n    tag_63:\n      swap1\n      dup2\n      mstore\n      0x20\n      add\n      mload(0x40)\n      dup1\n      swap2\n      sub\n      swap1\n      keccak256\n        /* \"SimpleStorage.sol\":703:737  nameToFavoriteNumber[_name] = _age */\n      dup2\n      swap1\n      sstore\n      pop\n        /* \"SimpleStorage.sol\":577:745  function addPeople(string memory _name, uint _age) public {... */\n      pop\n      pop\n      jump\t// out\n        /* \"SimpleStorage.sol\":262:313  mapping(string => uint) public nameToFavoriteNumber */\n    tag_33:\n      0x01\n      dup2\n      dup1\n      mload\n      0x20\n      dup2\n      add\n      dup3\n      add\n      dup1\n      mload\n      dup5\n      dup3\n      mstore\n      0x20\n      dup4\n      add\n      0x20\n      dup6\n      add\n      keccak256\n      dup2\n      dup4\n      mstore\n      dup1\n      swap6\n      pop\n      pop\n      pop\n      pop\n      pop\n      pop\n      0x00\n      swap2\n      pop\n      swap1\n      pop\n      sload\n      dup2\n      jump\t// out\n        /* \"SimpleStorage.sol\":477:570  function getFavoriteNumber() public view returns(uint){... */\n    tag_36:\n        /* \"SimpleStorage.sol\":526:530  uint */\n      0x00\n        /* \"SimpleStorage.sol\":548:562  favoriteNumber */\n      dup1\n      sload\n        /* \"SimpleStorage.sol\":541:562  return favoriteNumber */\n      swap1\n      pop\n        /* \"SimpleStorage.sol\":477:570  function getFavoriteNumber() public view returns(uint){... */\n      swap1\n      jump\t// out\n        /* \"ExtendSimpleStorage.sol\":271:394  function storeFavoriteNumber(uint _favoriteNumber) public override   {... */\n    tag_40:\n        /* \"ExtendSimpleStorage.sol\":385:386  5 */\n      0x05\n        /* \"ExtendSimpleStorage.sol\":367:382  _favoriteNumber */\n      dup2\n        /* \"ExtendSimpleStorage.sol\":367:386  _favoriteNumber + 5 */\n      tag_67\n      swap2\n      swap1\n      tag_68\n      jump\t// in\n    tag_67:\n        /* \"ExtendSimpleStorage.sol\":350:364  favoriteNumber */\n      0x00\n        /* \"ExtendSimpleStorage.sol\":350:386  favoriteNumber = _favoriteNumber + 5 */\n      dup2\n      swap1\n      sstore\n      pop\n        /* \"ExtendSimpleStorage.sol\":271:394  function storeFavoriteNumber(uint _favoriteNumber) public override   {... */\n      pop\n      jump\t// out\n        /* \"SimpleStorage.sol\":857:983  function getAgeFromName(string calldata _name) public view returns (uint ) {... */\n    tag_44:\n        /* \"SimpleStorage.sol\":925:929  uint */\n      0x00\n        /* \"SimpleStorage.sol\":948:968  nameToFavoriteNumber */\n      0x01\n        /* \"SimpleStorage.sol\":969:974  _name */\n      dup4\n      dup4\n        /* \"SimpleStorage.sol\":948:975  nameToFavoriteNumber[_name] */\n      mload(0x40)\n      tag_70\n      swap3\n      swap2\n      swap1\n      tag_71\n      jump\t// in\n    tag_70:\n      swap1\n      dup2\n      mstore\n      0x20\n      add\n      mload(0x40)\n      dup1\n      swap2\n      sub\n      swap1\n      keccak256\n      sload\n        /* \"SimpleStorage.sol\":941:975  return nameToFavoriteNumber[_name] */\n      swap1\n      pop\n        /* \"SimpleStorage.sol\":857:983  function getAgeFromName(string calldata _name) public view returns (uint ) {... */\n      swap3\n      swap2\n      pop\n      pop\n      jump\t// out\n        /* \"ExtendSimpleStorage.sol\":172:265  function sayHello() public pure returns(string memory) {... */\n    tag_47:\n        /* \"ExtendSimpleStorage.sol\":212:225  string memory */\n      0x60\n        /* \"ExtendSimpleStorage.sol\":237:258  return \"hello world!\" */\n      mload(0x40)\n      dup1\n      0x40\n      add\n      0x40\n      mstore\n      dup1\n      0x0c\n      dup2\n      mstore\n      0x20\n      add\n      0x68656c6c6f20776f726c64210000000000000000000000000000000000000000\n      dup2\n      mstore\n      pop\n      swap1\n      pop\n        /* \"ExtendSimpleStorage.sol\":172:265  function sayHello() public pure returns(string memory) {... */\n      swap1\n      jump\t// out\n        /* \"#utility.yul\":7:84   */\n    tag_73:\n        /* \"#utility.yul\":44:51   */\n      0x00\n        /* \"#utility.yul\":73:78   */\n      dup2\n        /* \"#utility.yul\":62:78   */\n      swap1\n      pop\n        /* \"#utility.yul\":7:84   */\n      swap2\n      swap1\n      pop\n      jump\t// out\n        /* \"#utility.yul\":90:208   */\n    tag_74:\n        /* \"#utility.yul\":177:201   */\n      tag_120\n        /* \"#utility.yul\":195:200   */\n      dup2\n        /* \"#utility.yul\":177:201   */\n      tag_73\n      jump\t// in\n    tag_120:\n        /* \"#utility.yul\":172:175   */\n      dup3\n        /* \"#utility.yul\":165:202   */\n      mstore\n        /* \"#utility.yul\":90:208   */\n      pop\n      pop\n      jump\t// out\n        /* \"#utility.yul\":214:436   */\n    tag_16:\n        /* \"#utility.yul\":307:311   */\n      0x00\n        /* \"#utility.yul\":345:347   */\n      0x20\n        /* \"#utility.yul\":334:343   */\n      dup3\n        /* \"#utility.yul\":330:348   */\n      add\n        /* \"#utility.yul\":322:348   */\n      swap1\n      pop\n        /* \"#utility.yul\":358:429   */\n      tag_122\n        /* \"#utility.yul\":426:427   */\n      0x00\n        /* \"#utility.yul\":415:424   */\n      dup4\n        /* \"#utility.yul\":411:428   */\n      add\n        /* \"#utility.yul\":402:408   */\n      dup5\n        /* \"#utility.yul\":358:429   */\n      tag_74\n      jump\t// in\n    tag_122:\n        /* \"#utility.yul\":214:436   */\n      swap3\n      swap2\n      pop\n      pop\n      jump\t// out\n        /* \"#utility.yul\":442:517   */\n    tag_75:\n        /* \"#utility.yul\":475:481   */\n      0x00\n        /* \"#utility.yul\":508:510   */\n      0x40\n        /* \"#utility.yul\":502:511   */\n      mload\n        /* \"#utility.yul\":492:511   */\n      swap1\n      pop\n        /* \"#utility.yul\":442:517   */\n      swap1\n      jump\t// out\n        /* \"#utility.yul\":523:640   */\n    tag_76:\n        /* \"#utility.yul\":632:633   */\n      0x00\n        /* \"#utility.yul\":629:630   */\n      dup1\n        /* \"#utility.yul\":622:634   */\n      revert\n        /* \"#utility.yul\":646:763   */\n    tag_77:\n        /* \"#utility.yul\":755:756   */\n      0x00\n        /* \"#utility.yul\":752:753   */\n      dup1\n        /* \"#utility.yul\":745:757   */\n      revert\n        /* \"#utility.yul\":769:891   */\n    tag_78:\n        /* \"#utility.yul\":842:866   */\n      tag_127\n        /* \"#utility.yul\":860:865   */\n      dup2\n        /* \"#utility.yul\":842:866   */\n      tag_73\n      jump\t// in\n    tag_127:\n        /* \"#utility.yul\":835:840   */\n      dup2\n        /* \"#utility.yul\":832:867   */\n      eq\n        /* \"#utility.yul\":822:885   */\n      tag_128\n      jumpi\n        /* \"#utility.yul\":881:882   */\n      0x00\n        /* \"#utility.yul\":878:879   */\n      dup1\n        /* \"#utility.yul\":871:883   */\n      revert\n        /* \"#utility.yul\":822:885   */\n    tag_128:\n        /* \"#utility.yul\":769:891   */\n      pop\n      jump\t// out\n        /* \"#utility.yul\":897:1036   */\n    tag_79:\n        /* \"#utility.yul\":943:948   */\n      0x00\n        /* \"#utility.yul\":981:987   */\n      dup2\n        /* \"#utility.yul\":968:988   */\n      calldataload\n        /* \"#utility.yul\":959:988   */\n      swap1\n      pop\n        /* \"#utility.yul\":997:1030   */\n      tag_130\n        /* \"#utility.yul\":1024:1029   */\n      dup2\n        /* \"#utility.yul\":997:1030   */\n      tag_78\n      jump\t// in\n    tag_130:\n        /* \"#utility.yul\":897:1036   */\n      swap3\n      swap2\n      pop\n      pop\n      jump\t// out\n        /* \"#utility.yul\":1042:1371   */\n    tag_19:\n        /* \"#utility.yul\":1101:1107   */\n      0x00\n        /* \"#utility.yul\":1150:1152   */\n      0x20\n        /* \"#utility.yul\":1138:1147   */\n      dup3\n        /* \"#utility.yul\":1129:1136   */\n      dup5\n        /* \"#utility.yul\":1125:1148   */\n      sub\n        /* \"#utility.yul\":1121:1153   */\n      slt\n        /* \"#utility.yul\":1118:1237   */\n      iszero\n      tag_132\n      jumpi\n        /* \"#utility.yul\":1156:1235   */\n      tag_133\n      tag_76\n      jump\t// in\n    tag_133:\n        /* \"#utility.yul\":1118:1237   */\n    tag_132:\n        /* \"#utility.yul\":1276:1277   */\n      0x00\n        /* \"#utility.yul\":1301:1354   */\n      tag_134\n        /* \"#utility.yul\":1346:1353   */\n      dup5\n        /* \"#utility.yul\":1337:1343   */\n      dup3\n        /* \"#utility.yul\":1326:1335   */\n      dup6\n        /* \"#utility.yul\":1322:1344   */\n      add\n        /* \"#utility.yul\":1301:1354   */\n      tag_79\n      jump\t// in\n    tag_134:\n        /* \"#utility.yul\":1291:1354   */\n      swap2\n      pop\n        /* \"#utility.yul\":1247:1364   */\n      pop\n        /* \"#utility.yul\":1042:1371   */\n      swap3\n      swap2\n      pop\n      pop\n      jump\t// out\n        /* \"#utility.yul\":1377:1476   */\n    tag_80:\n        /* \"#utility.yul\":1429:1435   */\n      0x00\n        /* \"#utility.yul\":1463:1468   */\n      dup2\n        /* \"#utility.yul\":1457:1469   */\n      mload\n        /* \"#utility.yul\":1447:1469   */\n      swap1\n      pop\n        /* \"#utility.yul\":1377:1476   */\n      swap2\n      swap1\n      pop\n      jump\t// out\n        /* \"#utility.yul\":1482:1651   */\n    tag_81:\n        /* \"#utility.yul\":1566:1577   */\n      0x00\n        /* \"#utility.yul\":1600:1606   */\n      dup3\n        /* \"#utility.yul\":1595:1598   */\n      dup3\n        /* \"#utility.yul\":1588:1607   */\n      mstore\n        /* \"#utility.yul\":1640:1644   */\n      0x20\n        /* \"#utility.yul\":1635:1638   */\n      dup3\n        /* \"#utility.yul\":1631:1645   */\n      add\n        /* \"#utility.yul\":1616:1645   */\n      swap1\n      pop\n        /* \"#utility.yul\":1482:1651   */\n      swap3\n      swap2\n      pop\n      pop\n      jump\t// out\n        /* \"#utility.yul\":1657:1796   */\n    tag_82:\n        /* \"#utility.yul\":1746:1752   */\n      dup3\n        /* \"#utility.yul\":1741:1744   */\n      dup2\n        /* \"#utility.yul\":1736:1739   */\n      dup4\n        /* \"#utility.yul\":1730:1753   */\n      mcopy\n        /* \"#utility.yul\":1787:1788   */\n      0x00\n        /* \"#utility.yul\":1778:1784   */\n      dup4\n        /* \"#utility.yul\":1773:1776   */\n      dup4\n        /* \"#utility.yul\":1769:1785   */\n      add\n        /* \"#utility.yul\":1762:1789   */\n      mstore\n        /* \"#utility.yul\":1657:1796   */\n      pop\n      pop\n      pop\n      jump\t// out\n        /* \"#utility.yul\":1802:1904   */\n    tag_83:\n        /* \"#utility.yul\":1843:1849   */\n      0x00\n        /* \"#utility.yul\":1894:1896   */\n      0x1f\n        /* \"#utility.yul\":1890:1897   */\n      not\n        /* \"#utility.yul\":1885:1887   */\n      0x1f\n        /* \"#utility.yul\":1878:1883   */\n      dup4\n        /* \"#utility.yul\":1874:1888   */\n      add\n        /* \"#utility.yul\":1870:1898   */\n      and\n        /* \"#utility.yul\":1860:1898   */\n      swap1\n      pop\n        /* \"#utility.yul\":1802:1904   */\n      swap2\n      swap1\n      pop\n      jump\t// out\n        /* \"#utility.yul\":1910:2287   */\n    tag_84:\n        /* \"#utility.yul\":1998:2001   */\n      0x00\n        /* \"#utility.yul\":2026:2065   */\n      tag_140\n        /* \"#utility.yul\":2059:2064   */\n      dup3\n        /* \"#utility.yul\":2026:2065   */\n      tag_80\n      jump\t// in\n    tag_140:\n        /* \"#utility.yul\":2081:2152   */\n      tag_141\n        /* \"#utility.yul\":2145:2151   */\n      dup2\n        /* \"#utility.yul\":2140:2143   */\n      dup6\n        /* \"#utility.yul\":2081:2152   */\n      tag_81\n      jump\t// in\n    tag_141:\n        /* \"#utility.yul\":2074:2152   */\n      swap4\n      pop\n        /* \"#utility.yul\":2161:2226   */\n      tag_142\n        /* \"#utility.yul\":2219:2225   */\n      dup2\n        /* \"#utility.yul\":2214:2217   */\n      dup6\n        /* \"#utility.yul\":2207:2211   */\n      0x20\n        /* \"#utility.yul\":2200:2205   */\n      dup7\n        /* \"#utility.yul\":2196:2212   */\n      add\n        /* \"#utility.yul\":2161:2226   */\n      tag_82\n      jump\t// in\n    tag_142:\n        /* \"#utility.yul\":2251:2280   */\n      tag_143\n        /* \"#utility.yul\":2273:2279   */\n      dup2\n        /* \"#utility.yul\":2251:2280   */\n      tag_83\n      jump\t// in\n    tag_143:\n        /* \"#utility.yul\":2246:2249   */\n      dup5\n        /* \"#utility.yul\":2242:2281   */\n      add\n        /* \"#utility.yul\":2235:2281   */\n      swap2\n      pop\n        /* \"#utility.yul\":2002:2287   */\n      pop\n        /* \"#utility.yul\":1910:2287   */\n      swap3\n      swap2\n      pop\n      pop\n      jump\t// out\n        /* \"#utility.yul\":2293:2716   */\n    tag_22:\n        /* \"#utility.yul\":2434:2438   */\n      0x00\n        /* \"#utility.yul\":2472:2474   */\n      0x40\n        /* \"#utility.yul\":2461:2470   */\n      dup3\n        /* \"#utility.yul\":2457:2475   */\n      add\n        /* \"#utility.yul\":2449:2475   */\n      swap1\n      pop\n        /* \"#utility.yul\":2521:2530   */\n      dup2\n        /* \"#utility.yul\":2515:2519   */\n      dup2\n        /* \"#utility.yul\":2511:2531   */\n      sub\n        /* \"#utility.yul\":2507:2508   */\n      0x00\n        /* \"#utility.yul\":2496:2505   */\n      dup4\n        /* \"#utility.yul\":2492:2509   */\n      add\n        /* \"#utility.yul\":2485:2532   */\n      mstore\n        /* \"#utility.yul\":2549:2627   */\n      tag_145\n        /* \"#utility.yul\":2622:2626   */\n      dup2\n        /* \"#utility.yul\":2613:2619   */\n      dup6\n        /* \"#utility.yul\":2549:2627   */\n      tag_84\n      jump\t// in\n    tag_145:\n        /* \"#utility.yul\":2541:2627   */\n      swap1\n      pop\n        /* \"#utility.yul\":2637:2709   */\n      tag_146\n        /* \"#utility.yul\":2705:2707   */\n      0x20\n        /* \"#utility.yul\":2694:2703   */\n      dup4\n        /* \"#utility.yul\":2690:2708   */\n      add\n        /* \"#utility.yul\":2681:2687   */\n      dup5\n        /* \"#utility.yul\":2637:2709   */\n      tag_74\n      jump\t// in\n    tag_146:\n        /* \"#utility.yul\":2293:2716   */\n      swap4\n      swap3\n      pop\n      pop\n      pop\n      jump\t// out\n        /* \"#utility.yul\":2722:2839   */\n    tag_85:\n        /* \"#utility.yul\":2831:2832   */\n      0x00\n        /* \"#utility.yul\":2828:2829   */\n      dup1\n        /* \"#utility.yul\":2821:2833   */\n      revert\n        /* \"#utility.yul\":2845:2962   */\n    tag_86:\n        /* \"#utility.yul\":2954:2955   */\n      0x00\n        /* \"#utility.yul\":2951:2952   */\n      dup1\n        /* \"#utility.yul\":2944:2956   */\n      revert\n        /* \"#utility.yul\":2968:3148   */\n    tag_87:\n        /* \"#utility.yul\":3016:3093   */\n      0x4e487b7100000000000000000000000000000000000000000000000000000000\n        /* \"#utility.yul\":3013:3014   */\n      0x00\n        /* \"#utility.yul\":3006:3094   */\n      mstore\n        /* \"#utility.yul\":3113:3117   */\n      0x41\n        /* \"#utility.yul\":3110:3111   */\n      0x04\n        /* \"#utility.yul\":3103:3118   */\n      mstore\n        /* \"#utility.yul\":3137:3141   */\n      0x24\n        /* \"#utility.yul\":3134:3135   */\n      0x00\n        /* \"#utility.yul\":3127:3142   */\n      revert\n        /* \"#utility.yul\":3154:3435   */\n    tag_88:\n        /* \"#utility.yul\":3237:3264   */\n      tag_151\n        /* \"#utility.yul\":3259:3263   */\n      dup3\n        /* \"#utility.yul\":3237:3264   */\n      tag_83\n      jump\t// in\n    tag_151:\n        /* \"#utility.yul\":3229:3235   */\n      dup2\n        /* \"#utility.yul\":3225:3265   */\n      add\n        /* \"#utility.yul\":3367:3373   */\n      dup2\n        /* \"#utility.yul\":3355:3365   */\n      dup2\n        /* \"#utility.yul\":3352:3374   */\n      lt\n        /* \"#utility.yul\":3331:3349   */\n      0xffffffffffffffff\n        /* \"#utility.yul\":3319:3329   */\n      dup3\n        /* \"#utility.yul\":3316:3350   */\n      gt\n        /* \"#utility.yul\":3313:3375   */\n      or\n        /* \"#utility.yul\":3310:3398   */\n      iszero\n      tag_152\n      jumpi\n        /* \"#utility.yul\":3378:3396   */\n      tag_153\n      tag_87\n      jump\t// in\n    tag_153:\n        /* \"#utility.yul\":3310:3398   */\n    tag_152:\n        /* \"#utility.yul\":3418:3428   */\n      dup1\n        /* \"#utility.yul\":3414:3416   */\n      0x40\n        /* \"#utility.yul\":3407:3429   */\n      mstore\n        /* \"#utility.yul\":3197:3435   */\n      pop\n        /* \"#utility.yul\":3154:3435   */\n      pop\n      pop\n      jump\t// out\n        /* \"#utility.yul\":3441:3570   */\n    tag_89:\n        /* \"#utility.yul\":3475:3481   */\n      0x00\n        /* \"#utility.yul\":3502:3522   */\n      tag_155\n      tag_75\n      jump\t// in\n    tag_155:\n        /* \"#utility.yul\":3492:3522   */\n      swap1\n      pop\n        /* \"#utility.yul\":3531:3564   */\n      tag_156\n        /* \"#utility.yul\":3559:3563   */\n      dup3\n        /* \"#utility.yul\":3551:3557   */\n      dup3\n        /* \"#utility.yul\":3531:3564   */\n      tag_88\n      jump\t// in\n    tag_156:\n        /* \"#utility.yul\":3441:3570   */\n      swap2\n      swap1\n      pop\n      jump\t// out\n        /* \"#utility.yul\":3576:3884   */\n    tag_90:\n        /* \"#utility.yul\":3638:3642   */\n      0x00\n        /* \"#utility.yul\":3728:3746   */\n      0xffffffffffffffff\n        /* \"#utility.yul\":3720:3726   */\n      dup3\n        /* \"#utility.yul\":3717:3747   */\n      gt\n        /* \"#utility.yul\":3714:3770   */\n      iszero\n      tag_158\n      jumpi\n        /* \"#utility.yul\":3750:3768   */\n      tag_159\n      tag_87\n      jump\t// in\n    tag_159:\n        /* \"#utility.yul\":3714:3770   */\n    tag_158:\n        /* \"#utility.yul\":3788:3817   */\n      tag_160\n        /* \"#utility.yul\":3810:3816   */\n      dup3\n        /* \"#utility.yul\":3788:3817   */\n      tag_83\n      jump\t// in\n    tag_160:\n        /* \"#utility.yul\":3780:3817   */\n      swap1\n      pop\n        /* \"#utility.yul\":3872:3876   */\n      0x20\n        /* \"#utility.yul\":3866:3870   */\n      dup2\n        /* \"#utility.yul\":3862:3877   */\n      add\n        /* \"#utility.yul\":3854:3877   */\n      swap1\n      pop\n        /* \"#utility.yul\":3576:3884   */\n      swap2\n      swap1\n      pop\n      jump\t// out\n        /* \"#utility.yul\":3890:4038   */\n    tag_91:\n        /* \"#utility.yul\":3988:3994   */\n      dup3\n        /* \"#utility.yul\":3983:3986   */\n      dup2\n        /* \"#utility.yul\":3978:3981   */\n      dup4\n        /* \"#utility.yul\":3965:3995   */\n      calldatacopy\n        /* \"#utility.yul\":4029:4030   */\n      0x00\n        /* \"#utility.yul\":4020:4026   */\n      dup4\n        /* \"#utility.yul\":4015:4018   */\n      dup4\n        /* \"#utility.yul\":4011:4027   */\n      add\n        /* \"#utility.yul\":4004:4031   */\n      mstore\n        /* \"#utility.yul\":3890:4038   */\n      pop\n      pop\n      pop\n      jump\t// out\n        /* \"#utility.yul\":4044:4469   */\n    tag_92:\n        /* \"#utility.yul\":4122:4127   */\n      0x00\n        /* \"#utility.yul\":4147:4213   */\n      tag_163\n        /* \"#utility.yul\":4163:4212   */\n      tag_164\n        /* \"#utility.yul\":4205:4211   */\n      dup5\n        /* \"#utility.yul\":4163:4212   */\n      tag_90\n      jump\t// in\n    tag_164:\n        /* \"#utility.yul\":4147:4213   */\n      tag_89\n      jump\t// in\n    tag_163:\n        /* \"#utility.yul\":4138:4213   */\n      swap1\n      pop\n        /* \"#utility.yul\":4236:4242   */\n      dup3\n        /* \"#utility.yul\":4229:4234   */\n      dup2\n        /* \"#utility.yul\":4222:4243   */\n      mstore\n        /* \"#utility.yul\":4274:4278   */\n      0x20\n        /* \"#utility.yul\":4267:4272   */\n      dup2\n        /* \"#utility.yul\":4263:4279   */\n      add\n        /* \"#utility.yul\":4312:4315   */\n      dup5\n        /* \"#utility.yul\":4303:4309   */\n      dup5\n        /* \"#utility.yul\":4298:4301   */\n      dup5\n        /* \"#utility.yul\":4294:4310   */\n      add\n        /* \"#utility.yul\":4291:4316   */\n      gt\n        /* \"#utility.yul\":4288:4400   */\n      iszero\n      tag_165\n      jumpi\n        /* \"#utility.yul\":4319:4398   */\n      tag_166\n      tag_86\n      jump\t// in\n    tag_166:\n        /* \"#utility.yul\":4288:4400   */\n    tag_165:\n        /* \"#utility.yul\":4409:4463   */\n      tag_167\n        /* \"#utility.yul\":4456:4462   */\n      dup5\n        /* \"#utility.yul\":4451:4454   */\n      dup3\n        /* \"#utility.yul\":4446:4449   */\n      dup6\n        /* \"#utility.yul\":4409:4463   */\n      tag_91\n      jump\t// in\n    tag_167:\n        /* \"#utility.yul\":4128:4469   */\n      pop\n        /* \"#utility.yul\":4044:4469   */\n      swap4\n      swap3\n      pop\n      pop\n      pop\n      jump\t// out\n        /* \"#utility.yul\":4489:4829   */\n    tag_93:\n        /* \"#utility.yul\":4545:4550   */\n      0x00\n        /* \"#utility.yul\":4594:4597   */\n      dup3\n        /* \"#utility.yul\":4587:4591   */\n      0x1f\n        /* \"#utility.yul\":4579:4585   */\n      dup4\n        /* \"#utility.yul\":4575:4592   */\n      add\n        /* \"#utility.yul\":4571:4598   */\n      slt\n        /* \"#utility.yul\":4561:4683   */\n      tag_169\n      jumpi\n        /* \"#utility.yul\":4602:4681   */\n      tag_170\n      tag_85\n      jump\t// in\n    tag_170:\n        /* \"#utility.yul\":4561:4683   */\n    tag_169:\n        /* \"#utility.yul\":4719:4725   */\n      dup2\n        /* \"#utility.yul\":4706:4726   */\n      calldataload\n        /* \"#utility.yul\":4744:4823   */\n      tag_171\n        /* \"#utility.yul\":4819:4822   */\n      dup5\n        /* \"#utility.yul\":4811:4817   */\n      dup3\n        /* \"#utility.yul\":4804:4808   */\n      0x20\n        /* \"#utility.yul\":4796:4802   */\n      dup7\n        /* \"#utility.yul\":4792:4809   */\n      add\n        /* \"#utility.yul\":4744:4823   */\n      tag_92\n      jump\t// in\n    tag_171:\n        /* \"#utility.yul\":4735:4823   */\n      swap2\n      pop\n        /* \"#utility.yul\":4551:4829   */\n      pop\n        /* \"#utility.yul\":4489:4829   */\n      swap3\n      swap2\n      pop\n      pop\n      jump\t// out\n        /* \"#utility.yul\":4835:5489   */\n    tag_28:\n        /* \"#utility.yul\":4913:4919   */\n      0x00\n        /* \"#utility.yul\":4921:4927   */\n      dup1\n        /* \"#utility.yul\":4970:4972   */\n      0x40\n        /* \"#utility.yul\":4958:4967   */\n      dup4\n        /* \"#utility.yul\":4949:4956   */\n      dup6\n        /* \"#utility.yul\":4945:4968   */\n      sub\n        /* \"#utility.yul\":4941:4973   */\n      slt\n        /* \"#utility.yul\":4938:5057   */\n      iszero\n      tag_173\n      jumpi\n        /* \"#utility.yul\":4976:5055   */\n      tag_174\n      tag_76\n      jump\t// in\n    tag_174:\n        /* \"#utility.yul\":4938:5057   */\n    tag_173:\n        /* \"#utility.yul\":5124:5125   */\n      0x00\n        /* \"#utility.yul\":5113:5122   */\n      dup4\n        /* \"#utility.yul\":5109:5126   */\n      add\n        /* \"#utility.yul\":5096:5127   */\n      calldataload\n        /* \"#utility.yul\":5154:5172   */\n      0xffffffffffffffff\n        /* \"#utility.yul\":5146:5152   */\n      dup2\n        /* \"#utility.yul\":5143:5173   */\n      gt\n        /* \"#utility.yul\":5140:5257   */\n      iszero\n      tag_175\n      jumpi\n        /* \"#utility.yul\":5176:5255   */\n      tag_176\n      tag_77\n      jump\t// in\n    tag_176:\n        /* \"#utility.yul\":5140:5257   */\n    tag_175:\n        /* \"#utility.yul\":5281:5344   */\n      tag_177\n        /* \"#utility.yul\":5336:5343   */\n      dup6\n        /* \"#utility.yul\":5327:5333   */\n      dup3\n        /* \"#utility.yul\":5316:5325   */\n      dup7\n        /* \"#utility.yul\":5312:5334   */\n      add\n        /* \"#utility.yul\":5281:5344   */\n      tag_93\n      jump\t// in\n    tag_177:\n        /* \"#utility.yul\":5271:5344   */\n      swap3\n      pop\n        /* \"#utility.yul\":5067:5354   */\n      pop\n        /* \"#utility.yul\":5393:5395   */\n      0x20\n        /* \"#utility.yul\":5419:5472   */\n      tag_178\n        /* \"#utility.yul\":5464:5471   */\n      dup6\n        /* \"#utility.yul\":5455:5461   */\n      dup3\n        /* \"#utility.yul\":5444:5453   */\n      dup7\n        /* \"#utility.yul\":5440:5462   */\n      add\n        /* \"#utility.yul\":5419:5472   */\n      tag_79\n      jump\t// in\n    tag_178:\n        /* \"#utility.yul\":5409:5472   */\n      swap2\n      pop\n        /* \"#utility.yul\":5364:5482   */\n      pop\n        /* \"#utility.yul\":4835:5489   */\n      swap3\n      pop\n      swap3\n      swap1\n      pop\n      jump\t// out\n        /* \"#utility.yul\":5495:6004   */\n    tag_32:\n        /* \"#utility.yul\":5564:5570   */\n      0x00\n        /* \"#utility.yul\":5613:5615   */\n      0x20\n        /* \"#utility.yul\":5601:5610   */\n      dup3\n        /* \"#utility.yul\":5592:5599   */\n      dup5\n        /* \"#utility.yul\":5588:5611   */\n      sub\n        /* \"#utility.yul\":5584:5616   */\n      slt\n        /* \"#utility.yul\":5581:5700   */\n      iszero\n      tag_180\n      jumpi\n        /* \"#utility.yul\":5619:5698   */\n      tag_181\n      tag_76\n      jump\t// in\n    tag_181:\n        /* \"#utility.yul\":5581:5700   */\n    tag_180:\n        /* \"#utility.yul\":5767:5768   */\n      0x00\n        /* \"#utility.yul\":5756:5765   */\n      dup3\n        /* \"#utility.yul\":5752:5769   */\n      add\n        /* \"#utility.yul\":5739:5770   */\n      calldataload\n        /* \"#utility.yul\":5797:5815   */\n      0xffffffffffffffff\n        /* \"#utility.yul\":5789:5795   */\n      dup2\n        /* \"#utility.yul\":5786:5816   */\n      gt\n        /* \"#utility.yul\":5783:5900   */\n      iszero\n      tag_182\n      jumpi\n        /* \"#utility.yul\":5819:5898   */\n      tag_183\n      tag_77\n      jump\t// in\n    tag_183:\n        /* \"#utility.yul\":5783:5900   */\n    tag_182:\n        /* \"#utility.yul\":5924:5987   */\n      tag_184\n        /* \"#utility.yul\":5979:5986   */\n      dup5\n        /* \"#utility.yul\":5970:5976   */\n      dup3\n        /* \"#utility.yul\":5959:5968   */\n      dup6\n        /* \"#utility.yul\":5955:5977   */\n      add\n        /* \"#utility.yul\":5924:5987   */\n      tag_93\n      jump\t// in\n    tag_184:\n        /* \"#utility.yul\":5914:5987   */\n      swap2\n      pop\n        /* \"#utility.yul\":5710:5997   */\n      pop\n        /* \"#utility.yul\":5495:6004   */\n      swap3\n      swap2\n      pop\n      pop\n      jump\t// out\n        /* \"#utility.yul\":6010:6127   */\n    tag_94:\n        /* \"#utility.yul\":6119:6120   */\n      0x00\n        /* \"#utility.yul\":6116:6117   */\n      dup1\n        /* \"#utility.yul\":6109:6121   */\n      revert\n        /* \"#utility.yul\":6133:6250   */\n    tag_95:\n        /* \"#utility.yul\":6242:6243   */\n      0x00\n        /* \"#utility.yul\":6239:6240   */\n      dup1\n        /* \"#utility.yul\":6232:6244   */\n      revert\n        /* \"#utility.yul\":6270:6823   */\n    tag_96:\n        /* \"#utility.yul\":6328:6336   */\n      0x00\n        /* \"#utility.yul\":6338:6344   */\n      dup1\n        /* \"#utility.yul\":6388:6391   */\n      dup4\n        /* \"#utility.yul\":6381:6385   */\n      0x1f\n        /* \"#utility.yul\":6373:6379   */\n      dup5\n        /* \"#utility.yul\":6369:6386   */\n      add\n        /* \"#utility.yul\":6365:6392   */\n      slt\n        /* \"#utility.yul\":6355:6477   */\n      tag_188\n      jumpi\n        /* \"#utility.yul\":6396:6475   */\n      tag_189\n      tag_85\n      jump\t// in\n    tag_189:\n        /* \"#utility.yul\":6355:6477   */\n    tag_188:\n        /* \"#utility.yul\":6509:6515   */\n      dup3\n        /* \"#utility.yul\":6496:6516   */\n      calldataload\n        /* \"#utility.yul\":6486:6516   */\n      swap1\n      pop\n        /* \"#utility.yul\":6539:6557   */\n      0xffffffffffffffff\n        /* \"#utility.yul\":6531:6537   */\n      dup2\n        /* \"#utility.yul\":6528:6558   */\n      gt\n        /* \"#utility.yul\":6525:6642   */\n      iszero\n      tag_190\n      jumpi\n        /* \"#utility.yul\":6561:6640   */\n      tag_191\n      tag_94\n      jump\t// in\n    tag_191:\n        /* \"#utility.yul\":6525:6642   */\n    tag_190:\n        /* \"#utility.yul\":6675:6679   */\n      0x20\n        /* \"#utility.yul\":6667:6673   */\n      dup4\n        /* \"#utility.yul\":6663:6680   */\n      add\n        /* \"#utility.yul\":6651:6680   */\n      swap2\n      pop\n        /* \"#utility.yul\":6729:6732   */\n      dup4\n        /* \"#utility.yul\":6721:6725   */\n      0x01\n        /* \"#utility.yul\":6713:6719   */\n      dup3\n        /* \"#utility.yul\":6709:6726   */\n      mul\n        /* \"#utility.yul\":6699:6707   */\n      dup4\n        /* \"#utility.yul\":6695:6727   */\n      add\n        /* \"#utility.yul\":6692:6733   */\n      gt\n        /* \"#utility.yul\":6689:6817   */\n      iszero\n      tag_192\n      jumpi\n        /* \"#utility.yul\":6736:6815   */\n      tag_193\n      tag_95\n      jump\t// in\n    tag_193:\n        /* \"#utility.yul\":6689:6817   */\n    tag_192:\n        /* \"#utility.yul\":6270:6823   */\n      swap3\n      pop\n      swap3\n      swap1\n      pop\n      jump\t// out\n        /* \"#utility.yul\":6829:7358   */\n    tag_43:\n        /* \"#utility.yul\":6900:6906   */\n      0x00\n        /* \"#utility.yul\":6908:6914   */\n      dup1\n        /* \"#utility.yul\":6957:6959   */\n      0x20\n        /* \"#utility.yul\":6945:6954   */\n      dup4\n        /* \"#utility.yul\":6936:6943   */\n      dup6\n        /* \"#utility.yul\":6932:6955   */\n      sub\n        /* \"#utility.yul\":6928:6960   */\n      slt\n        /* \"#utility.yul\":6925:7044   */\n      iszero\n      tag_195\n      jumpi\n        /* \"#utility.yul\":6963:7042   */\n      tag_196\n      tag_76\n      jump\t// in\n    tag_196:\n        /* \"#utility.yul\":6925:7044   */\n    tag_195:\n        /* \"#utility.yul\":7111:7112   */\n      0x00\n        /* \"#utility.yul\":7100:7109   */\n      dup4\n        /* \"#utility.yul\":7096:7113   */\n      add\n        /* \"#utility.yul\":7083:7114   */\n      calldataload\n        /* \"#utility.yul\":7141:7159   */\n      0xffffffffffffffff\n        /* \"#utility.yul\":7133:7139   */\n      dup2\n        /* \"#utility.yul\":7130:7160   */\n      gt\n        /* \"#utility.yul\":7127:7244   */\n      iszero\n      tag_197\n      jumpi\n        /* \"#utility.yul\":7163:7242   */\n      tag_198\n      tag_77\n      jump\t// in\n    tag_198:\n        /* \"#utility.yul\":7127:7244   */\n    tag_197:\n        /* \"#utility.yul\":7276:7341   */\n      tag_199\n        /* \"#utility.yul\":7333:7340   */\n      dup6\n        /* \"#utility.yul\":7324:7330   */\n      dup3\n        /* \"#utility.yul\":7313:7322   */\n      dup7\n        /* \"#utility.yul\":7309:7331   */\n      add\n        /* \"#utility.yul\":7276:7341   */\n      tag_96\n      jump\t// in\n    tag_199:\n        /* \"#utility.yul\":7258:7341   */\n      swap3\n      pop\n      swap3\n      pop\n        /* \"#utility.yul\":7054:7351   */\n      pop\n        /* \"#utility.yul\":6829:7358   */\n      swap3\n      pop\n      swap3\n      swap1\n      pop\n      jump\t// out\n        /* \"#utility.yul\":7364:7677   */\n    tag_49:\n        /* \"#utility.yul\":7477:7481   */\n      0x00\n        /* \"#utility.yul\":7515:7517   */\n      0x20\n        /* \"#utility.yul\":7504:7513   */\n      dup3\n        /* \"#utility.yul\":7500:7518   */\n      add\n        /* \"#utility.yul\":7492:7518   */\n      swap1\n      pop\n        /* \"#utility.yul\":7564:7573   */\n      dup2\n        /* \"#utility.yul\":7558:7562   */\n      dup2\n        /* \"#utility.yul\":7554:7574   */\n      sub\n        /* \"#utility.yul\":7550:7551   */\n      0x00\n        /* \"#utility.yul\":7539:7548   */\n      dup4\n        /* \"#utility.yul\":7535:7552   */\n      add\n        /* \"#utility.yul\":7528:7575   */\n      mstore\n        /* \"#utility.yul\":7592:7670   */\n      tag_201\n        /* \"#utility.yul\":7665:7669   */\n      dup2\n        /* \"#utility.yul\":7656:7662   */\n      dup5\n        /* \"#utility.yul\":7592:7670   */\n      tag_84\n      jump\t// in\n    tag_201:\n        /* \"#utility.yul\":7584:7670   */\n      swap1\n      pop\n        /* \"#utility.yul\":7364:7677   */\n      swap3\n      swap2\n      pop\n      pop\n      jump\t// out\n        /* \"#utility.yul\":7683:7863   */\n    tag_97:\n        /* \"#utility.yul\":7731:7808   */\n      0x4e487b7100000000000000000000000000000000000000000000000000000000\n        /* \"#utility.yul\":7728:7729   */\n      0x00\n        /* \"#utility.yul\":7721:7809   */\n      mstore\n        /* \"#utility.yul\":7828:7832   */\n      0x22\n        /* \"#utility.yul\":7825:7826   */\n      0x04\n        /* \"#utility.yul\":7818:7833   */\n      mstore\n        /* \"#utility.yul\":7852:7856   */\n      0x24\n        /* \"#utility.yul\":7849:7850   */\n      0x00\n        /* \"#utility.yul\":7842:7857   */\n      revert\n        /* \"#utility.yul\":7869:8189   */\n    tag_54:\n        /* \"#utility.yul\":7913:7919   */\n      0x00\n        /* \"#utility.yul\":7950:7951   */\n      0x02\n        /* \"#utility.yul\":7944:7948   */\n      dup3\n        /* \"#utility.yul\":7940:7952   */\n      div\n        /* \"#utility.yul\":7930:7952   */\n      swap1\n      pop\n        /* \"#utility.yul\":7997:7998   */\n      0x01\n        /* \"#utility.yul\":7991:7995   */\n      dup3\n        /* \"#utility.yul\":7987:7999   */\n      and\n        /* \"#utility.yul\":8018:8036   */\n      dup1\n        /* \"#utility.yul\":8008:8089   */\n      tag_204\n      jumpi\n        /* \"#utility.yul\":8074:8078   */\n      0x7f\n        /* \"#utility.yul\":8066:8072   */\n      dup3\n        /* \"#utility.yul\":8062:8079   */\n      and\n        /* \"#utility.yul\":8052:8079   */\n      swap2\n      pop\n        /* \"#utility.yul\":8008:8089   */\n    tag_204:\n        /* \"#utility.yul\":8136:8138   */\n      0x20\n        /* \"#utility.yul\":8128:8134   */\n      dup3\n        /* \"#utility.yul\":8125:8139   */\n      lt\n        /* \"#utility.yul\":8105:8123   */\n      dup2\n        /* \"#utility.yul\":8102:8140   */\n      sub\n        /* \"#utility.yul\":8099:8183   */\n      tag_205\n      jumpi\n        /* \"#utility.yul\":8155:8173   */\n      tag_206\n      tag_97\n      jump\t// in\n    tag_206:\n        /* \"#utility.yul\":8099:8183   */\n    tag_205:\n        /* \"#utility.yul\":7920:8189   */\n      pop\n        /* \"#utility.yul\":7869:8189   */\n      swap2\n      swap1\n      pop\n      jump\t// out\n        /* \"#utility.yul\":8195:8336   */\n    tag_98:\n        /* \"#utility.yul\":8244:8248   */\n      0x00\n        /* \"#utility.yul\":8267:8270   */\n      dup2\n        /* \"#utility.yul\":8259:8270   */\n      swap1\n      pop\n        /* \"#utility.yul\":8290:8293   */\n      dup2\n        /* \"#utility.yul\":8287:8288   */\n      0x00\n        /* \"#utility.yul\":8280:8294   */\n      mstore\n        /* \"#utility.yul\":8324:8328   */\n      0x20\n        /* \"#utility.yul\":8321:8322   */\n      0x00\n        /* \"#utility.yul\":8311:8329   */\n      keccak256\n        /* \"#utility.yul\":8303:8329   */\n      swap1\n      pop\n        /* \"#utility.yul\":8195:8336   */\n      swap2\n      swap1\n      pop\n      jump\t// out\n        /* \"#utility.yul\":8342:8435   */\n    tag_99:\n        /* \"#utility.yul\":8379:8385   */\n      0x00\n        /* \"#utility.yul\":8426:8428   */\n      0x20\n        /* \"#utility.yul\":8421:8423   */\n      0x1f\n        /* \"#utility.yul\":8414:8419   */\n      dup4\n        /* \"#utility.yul\":8410:8424   */\n      add\n        /* \"#utility.yul\":8406:8429   */\n      div\n        /* \"#utility.yul\":8396:8429   */\n      swap1\n      pop\n        /* \"#utility.yul\":8342:8435   */\n      swap2\n      swap1\n      pop\n      jump\t// out\n        /* \"#utility.yul\":8441:8548   */\n    tag_100:\n        /* \"#utility.yul\":8485:8493   */\n      0x00\n        /* \"#utility.yul\":8535:8540   */\n      dup3\n        /* \"#utility.yul\":8529:8533   */\n      dup3\n        /* \"#utility.yul\":8525:8541   */\n      shl\n        /* \"#utility.yul\":8504:8541   */\n      swap1\n      pop\n        /* \"#utility.yul\":8441:8548   */\n      swap3\n      swap2\n      pop\n      pop\n      jump\t// out\n        /* \"#utility.yul\":8554:8947   */\n    tag_101:\n        /* \"#utility.yul\":8623:8629   */\n      0x00\n        /* \"#utility.yul\":8673:8674   */\n      0x08\n        /* \"#utility.yul\":8661:8671   */\n      dup4\n        /* \"#utility.yul\":8657:8675   */\n      mul\n        /* \"#utility.yul\":8696:8793   */\n      tag_211\n        /* \"#utility.yul\":8726:8792   */\n      0xffffffffffffffffffffffffffffffffffffffffffffffffffffffffffffffff\n        /* \"#utility.yul\":8715:8724   */\n      dup3\n        /* \"#utility.yul\":8696:8793   */\n      tag_100\n      jump\t// in\n    tag_211:\n        /* \"#utility.yul\":8814:8853   */\n      tag_212\n        /* \"#utility.yul\":8844:8852   */\n      dup7\n        /* \"#utility.yul\":8833:8842   */\n      dup4\n        /* \"#utility.yul\":8814:8853   */\n      tag_100\n      jump\t// in\n    tag_212:\n        /* \"#utility.yul\":8802:8853   */\n      swap6\n      pop\n        /* \"#utility.yul\":8886:8890   */\n      dup1\n        /* \"#utility.yul\":8882:8891   */\n      not\n        /* \"#utility.yul\":8875:8880   */\n      dup5\n        /* \"#utility.yul\":8871:8892   */\n      and\n        /* \"#utility.yul\":8862:8892   */\n      swap4\n      pop\n        /* \"#utility.yul\":8935:8939   */\n      dup1\n        /* \"#utility.yul\":8925:8933   */\n      dup7\n        /* \"#utility.yul\":8921:8940   */\n      and\n        /* \"#utility.yul\":8914:8919   */\n      dup5\n        /* \"#utility.yul\":8911:8941   */\n      or\n        /* \"#utility.yul\":8901:8941   */\n      swap3\n      pop\n        /* \"#utility.yul\":8630:8947   */\n      pop\n      pop\n        /* \"#utility.yul\":8554:8947   */\n      swap4\n      swap3\n      pop\n      pop\n      pop\n      jump\t// out\n        /* \"#utility.yul\":8953:9013   */\n    tag_102:\n        /* \"#utility.yul\":8981:8984   */\n      0x00\n        /* \"#utility.yul\":9002:9007   */\n      dup2\n        /* \"#utility.yul\":8995:9007   */\n      swap1\n      pop\n        /* \"#utility.yul\":8953:9013   */\n      swap2\n      swap1\n      pop\n      jump\t// out\n        /* \"#utility.yul\":9019:9161   */\n    tag_103:\n        /* \"#utility.yul\":9069:9078   */\n      0x00\n        /* \"#utility.yul\":9102:9155   */\n      tag_215\n        /* \"#utility.yul\":9120:9154   */\n      tag_216\n        /* \"#utility.yul\":9129:9153   */\n      tag_217\n        /* \"#utility.yul\":9147:9152   */\n      dup5\n        /* \"#utility.yul\":9129:9153   */\n      tag_73\n      jump\t// in\n    tag_217:\n        /* \"#utility.yul\":9120:9154   */\n      tag_102\n      jump\t// in\n    tag_216:\n        /* \"#utility.yul\":9102:9155   */\n      tag_73\n      jump\t// in\n    tag_215:\n        /* \"#utility.yul\":9089:9155   */\n      swap1\n      pop\n        /* \"#utility.yul\":9019:9161   */\n      swap2\n      swap1\n      pop\n      jump\t// out\n        /* \"#utility.yul\":9167:9242   */\n    tag_104:\n        /* \"#utility.yul\":9210:9213   */\n      0x00\n        /* \"#utility.yul\":9231:9236   */\n      dup2\n        /* \"#utility.yul\":9224:9236   */\n      swap1\n      pop\n        /* \"#utility.yul\":9167:9242   */\n      swap2\n      swap1\n      pop\n      jump\t// out\n        /* \"#utility.yul\":9248:9517   */\n    tag_105:\n        /* \"#utility.yul\":9358:9397   */\n      tag_220\n        /* \"#utility.yul\":9389:9396   */\n      dup4\n        /* \"#utility.yul\":9358:9397   */\n      tag_103\n      jump\t// in\n    tag_220:\n        /* \"#utility.yul\":9419:9510   */\n      tag_221\n        /* \"#utility.yul\":9468:9509   */\n      tag_222\n        /* \"#utility.yul\":9492:9508   */\n      dup3\n        /* \"#utility.yul\":9468:9509   */\n      tag_104\n      jump\t// in\n    tag_222:\n        /* \"#utility.yul\":9460:9466   */\n      dup5\n        /* \"#utility.yul\":9453:9457   */\n      dup5\n        /* \"#utility.yul\":9447:9458   */\n      sload\n        /* \"#utility.yul\":9419:9510   */\n      tag_101\n      jump\t// in\n    tag_221:\n        /* \"#utility.yul\":9413:9417   */\n      dup3\n        /* \"#utility.yul\":9406:9511   */\n      sstore\n        /* \"#utility.yul\":9324:9517   */\n      pop\n        /* \"#utility.yul\":9248:9517   */\n      pop\n      pop\n      pop\n      jump\t// out\n        /* \"#utility.yul\":9523:9596   */\n    tag_106:\n        /* \"#utility.yul\":9568:9571   */\n      0x00\n        /* \"#utility.yul\":9523:9596   */\n      swap1\n      jump\t// out\n        /* \"#utility.yul\":9602:9791   */\n    tag_107:\n        /* \"#utility.yul\":9679:9711   */\n      tag_225\n      tag_106\n      jump\t// in\n    tag_225:\n        /* \"#utility.yul\":9720:9785   */\n      tag_226\n        /* \"#utility.yul\":9778:9784   */\n      dup2\n        /* \"#utility.yul\":9770:9776   */\n      dup5\n        /* \"#utility.yul\":9764:9768   */\n      dup5\n        /* \"#utility.yul\":9720:9785   */\n      tag_105\n      jump\t// in\n    tag_226:\n        /* \"#utility.yul\":9655:9791   */\n      pop\n        /* \"#utility.yul\":9602:9791   */\n      pop\n      pop\n      jump\t// out\n        /* \"#utility.yul\":9797:9983   */\n    tag_108:\n        /* \"#utility.yul\":9857:9977   */\n    tag_228:\n        /* \"#utility.yul\":9874:9877   */\n      dup2\n        /* \"#utility.yul\":9867:9872   */\n      dup2\n        /* \"#utility.yul\":9864:9878   */\n      lt\n        /* \"#utility.yul\":9857:9977   */\n      iszero\n      tag_230\n      jumpi\n        /* \"#utility.yul\":9928:9967   */\n      tag_231\n        /* \"#utility.yul\":9965:9966   */\n      0x00\n        /* \"#utility.yul\":9958:9963   */\n      dup3\n        /* \"#utility.yul\":9928:9967   */\n      tag_107\n      jump\t// in\n    tag_231:\n        /* \"#utility.yul\":9901:9902   */\n      0x01\n        /* \"#utility.yul\":9894:9899   */\n      dup2\n        /* \"#utility.yul\":9890:9903   */\n      add\n        /* \"#utility.yul\":9881:9903   */\n      swap1\n      pop\n        /* \"#utility.yul\":9857:9977   */\n      jump(tag_228)\n    tag_230:\n        /* \"#utility.yul\":9797:9983   */\n      pop\n      pop\n      jump\t// out\n        /* \"#utility.yul\":9989:10532   */\n    tag_109:\n        /* \"#utility.yul\":10090:10092   */\n      0x1f\n        /* \"#utility.yul\":10085:10088   */\n      dup3\n        /* \"#utility.yul\":10082:10093   */\n      gt\n        /* \"#utility.yul\":10079:10525   */\n      iszero\n      tag_233\n      jumpi\n        /* \"#utility.yul\":10124:10162   */\n      tag_234\n        /* \"#utility.yul\":10156:10161   */\n      dup2\n        /* \"#utility.yul\":10124:10162   */\n      tag_98\n      jump\t// in\n    tag_234:\n        /* \"#utility.yul\":10208:10237   */\n      tag_235\n        /* \"#utility.yul\":10226:10236   */\n      dup5\n        /* \"#utility.yul\":10208:10237   */\n      tag_99\n      jump\t// in\n    tag_235:\n        /* \"#utility.yul\":10198:10206   */\n      dup2\n        /* \"#utility.yul\":10194:10238   */\n      add\n        /* \"#utility.yul\":10391:10393   */\n      0x20\n        /* \"#utility.yul\":10379:10389   */\n      dup6\n        /* \"#utility.yul\":10376:10394   */\n      lt\n        /* \"#utility.yul\":10373:10422   */\n      iszero\n      tag_236\n      jumpi\n        /* \"#utility.yul\":10412:10420   */\n      dup2\n        /* \"#utility.yul\":10397:10420   */\n      swap1\n      pop\n        /* \"#utility.yul\":10373:10422   */\n    tag_236:\n        /* \"#utility.yul\":10435:10515   */\n      tag_237\n        /* \"#utility.yul\":10491:10513   */\n      tag_238\n        /* \"#utility.yul\":10509:10512   */\n      dup6\n        /* \"#utility.yul\":10491:10513   */\n      tag_99\n      jump\t// in\n    tag_238:\n        /* \"#utility.yul\":10481:10489   */\n      dup4\n        /* \"#utility.yul\":10477:10514   */\n      add\n        /* \"#utility.yul\":10464:10475   */\n      dup3\n        /* \"#utility.yul\":10435:10515   */\n      tag_108\n      jump\t// in\n    tag_237:\n        /* \"#utility.yul\":10094:10525   */\n      pop\n      pop\n        /* \"#utility.yul\":10079:10525   */\n    tag_233:\n        /* \"#utility.yul\":9989:10532   */\n      pop\n      pop\n      pop\n      jump\t// out\n        /* \"#utility.yul\":10538:10655   */\n    tag_110:\n        /* \"#utility.yul\":10592:10600   */\n      0x00\n        /* \"#utility.yul\":10642:10647   */\n      dup3\n        /* \"#utility.yul\":10636:10640   */\n      dup3\n        /* \"#utility.yul\":10632:10648   */\n      shr\n        /* \"#utility.yul\":10611:10648   */\n      swap1\n      pop\n        /* \"#utility.yul\":10538:10655   */\n      swap3\n      swap2\n      pop\n      pop\n      jump\t// out\n        /* \"#utility.yul\":10661:10830   */\n    tag_111:\n        /* \"#utility.yul\":10705:10711   */\n      0x00\n        /* \"#utility.yul\":10738:10789   */\n      tag_241\n        /* \"#utility.yul\":10786:10787   */\n      0x00\n        /* \"#utility.yul\":10782:10788   */\n      not\n        /* \"#utility.yul\":10774:10779   */\n      dup5\n        /* \"#utility.yul\":10771:10772   */\n      0x08\n        /* \"#utility.yul\":10767:10780   */\n      mul\n        /* \"#utility.yul\":10738:10789   */\n      tag_110\n      jump\t// in\n    tag_241:\n        /* \"#utility.yul\":10734:10790   */\n      not\n        /* \"#utility.yul\":10819:10823   */\n      dup1\n        /* \"#utility.yul\":10813:10817   */\n      dup4\n        /* \"#utility.yul\":10809:10824   */\n      and\n        /* \"#utility.yul\":10799:10824   */\n      swap2\n      pop\n        /* \"#utility.yul\":10712:10830   */\n      pop\n        /* \"#utility.yul\":10661:10830   */\n      swap3\n      swap2\n      pop\n      pop\n      jump\t// out\n        /* \"#utility.yul\":10835:11130   */\n    tag_112:\n        /* \"#utility.yul\":10911:10915   */\n      0x00\n        /* \"#utility.yul\":11057:11086   */\n      tag_243\n        /* \"#utility.yul\":11082:11085   */\n      dup4\n        /* \"#utility.yul\":11076:11080   */\n      dup4\n        /* \"#utility.yul\":11057:11086   */\n      tag_111\n      jump\t// in\n    tag_243:\n        /* \"#utility.yul\":11049:11086   */\n      swap2\n      pop\n        /* \"#utility.yul\":11119:11122   */\n      dup3\n        /* \"#utility.yul\":11116:11117   */\n      0x02\n        /* \"#utility.yul\":11112:11123   */\n      mul\n        /* \"#utility.yul\":11106:11110   */\n      dup3\n        /* \"#utility.yul\":11103:11124   */\n      or\n        /* \"#utility.yul\":11095:11124   */\n      swap1\n      pop\n        /* \"#utility.yul\":10835:11130   */\n      swap3\n      swap2\n      pop\n      pop\n      jump\t// out\n        /* \"#utility.yul\":11135:12530   */\n    tag_62:\n        /* \"#utility.yul\":11252:11289   */\n      tag_245\n        /* \"#utility.yul\":11285:11288   */\n      dup3\n        /* \"#utility.yul\":11252:11289   */\n      tag_80\n      jump\t// in\n    tag_245:\n        /* \"#utility.yul\":11354:11372   */\n      0xffffffffffffffff\n        /* \"#utility.yul\":11346:11352   */\n      dup2\n        /* \"#utility.yul\":11343:11373   */\n      gt\n        /* \"#utility.yul\":11340:11396   */\n      iszero\n      tag_246\n      jumpi\n        /* \"#utility.yul\":11376:11394   */\n      tag_247\n      tag_87\n      jump\t// in\n    tag_247:\n        /* \"#utility.yul\":11340:11396   */\n    tag_246:\n        /* \"#utility.yul\":11420:11458   */\n      tag_248\n        /* \"#utility.yul\":11452:11456   */\n      dup3\n        /* \"#utility.yul\":11446:11457   */\n      sload\n        /* \"#utility.yul\":11420:11458   */\n      tag_54\n      jump\t// in\n    tag_248:\n        /* \"#utility.yul\":11505:11572   */\n      tag_249\n        /* \"#utility.yul\":11565:11571   */\n      dup3\n        /* \"#utility.yul\":11557:11563   */\n      dup3\n        /* \"#utility.yul\":11551:11555   */\n      dup6\n        /* \"#utility.yul\":11505:11572   */\n      tag_109\n      jump\t// in\n    tag_249:\n        /* \"#utility.yul\":11599:11600   */\n      0x00\n        /* \"#utility.yul\":11623:11627   */\n      0x20\n        /* \"#utility.yul\":11610:11627   */\n      swap1\n      pop\n        /* \"#utility.yul\":11655:11657   */\n      0x1f\n        /* \"#utility.yul\":11647:11653   */\n      dup4\n        /* \"#utility.yul\":11644:11658   */\n      gt\n        /* \"#utility.yul\":11672:11673   */\n      0x01\n        /* \"#utility.yul\":11667:12285   */\n      dup2\n      eq\n      tag_251\n      jumpi\n        /* \"#utility.yul\":12329:12330   */\n      0x00\n        /* \"#utility.yul\":12346:12352   */\n      dup5\n        /* \"#utility.yul\":12343:12420   */\n      iszero\n      tag_252\n      jumpi\n        /* \"#utility.yul\":12395:12404   */\n      dup3\n        /* \"#utility.yul\":12390:12393   */\n      dup8\n        /* \"#utility.yul\":12386:12405   */\n      add\n        /* \"#utility.yul\":12380:12406   */\n      mload\n        /* \"#utility.yul\":12371:12406   */\n      swap1\n      pop\n        /* \"#utility.yul\":12343:12420   */\n    tag_252:\n        /* \"#utility.yul\":12446:12513   */\n      tag_253\n        /* \"#utility.yul\":12506:12512   */\n      dup6\n        /* \"#utility.yul\":12499:12504   */\n      dup3\n        /* \"#utility.yul\":12446:12513   */\n      tag_112\n      jump\t// in\n    tag_253:\n        /* \"#utility.yul\":12440:12444   */\n      dup7\n        /* \"#utility.yul\":12433:12514   */\n      sstore\n        /* \"#utility.yul\":12302:12524   */\n      pop\n        /* \"#utility.yul\":11637:12524   */\n      jump(tag_250)\n        /* \"#utility.yul\":11667:12285   */\n    tag_251:\n        /* \"#utility.yul\":11719:11723   */\n      0x1f\n        /* \"#utility.yul\":11715:11724   */\n      not\n        /* \"#utility.yul\":11707:11713   */\n      dup5\n        /* \"#utility.yul\":11703:11725   */\n      and\n        /* \"#utility.yul\":11753:11790   */\n      tag_254\n        /* \"#utility.yul\":11785:11789   */\n      dup7\n        /* \"#utility.yul\":11753:11790   */\n      tag_98\n      jump\t// in\n    tag_254:\n        /* \"#utility.yul\":11812:11813   */\n      0x00\n        /* \"#utility.yul\":11826:12034   */\n    tag_255:\n        /* \"#utility.yul\":11840:11847   */\n      dup3\n        /* \"#utility.yul\":11837:11838   */\n      dup2\n        /* \"#utility.yul\":11834:11848   */\n      lt\n        /* \"#utility.yul\":11826:12034   */\n      iszero\n      tag_257\n      jumpi\n        /* \"#utility.yul\":11919:11928   */\n      dup5\n        /* \"#utility.yul\":11914:11917   */\n      dup10\n        /* \"#utility.yul\":11910:11929   */\n      add\n        /* \"#utility.yul\":11904:11930   */\n      mload\n        /* \"#utility.yul\":11896:11902   */\n      dup3\n        /* \"#utility.yul\":11889:11931   */\n      sstore\n        /* \"#utility.yul\":11970:11971   */\n      0x01\n        /* \"#utility.yul\":11962:11968   */\n      dup3\n        /* \"#utility.yul\":11958:11972   */\n      add\n        /* \"#utility.yul\":11948:11972   */\n      swap2\n      pop\n        /* \"#utility.yul\":12017:12019   */\n      0x20\n        /* \"#utility.yul\":12006:12015   */\n      dup6\n        /* \"#utility.yul\":12002:12020   */\n      add\n        /* \"#utility.yul\":11989:12020   */\n      swap5\n      pop\n        /* \"#utility.yul\":11863:11867   */\n      0x20\n        /* \"#utility.yul\":11860:11861   */\n      dup2\n        /* \"#utility.yul\":11856:11868   */\n      add\n        /* \"#utility.yul\":11851:11868   */\n      swap1\n      pop\n        /* \"#utility.yul\":11826:12034   */\n      jump(tag_255)\n    tag_257:\n        /* \"#utility.yul\":12062:12068   */\n      dup7\n        /* \"#utility.yul\":12053:12060   */\n      dup4\n        /* \"#utility.yul\":12050:12069   */\n      lt\n        /* \"#utility.yul\":12047:12226   */\n      iszero\n      tag_258\n      jumpi\n        /* \"#utility.yul\":12120:12129   */\n      dup5\n        /* \"#utility.yul\":12115:12118   */\n      dup10\n        /* \"#utility.yul\":12111:12130   */\n      add\n        /* \"#utility.yul\":12105:12131   */\n      mload\n        /* \"#utility.yul\":12163:12211   */\n      tag_259\n        /* \"#utility.yul\":12205:12209   */\n      0x1f\n        /* \"#utility.yul\":12197:12203   */\n      dup10\n        /* \"#utility.yul\":12193:12210   */\n      and\n        /* \"#utility.yul\":12182:12191   */\n      dup3\n        /* \"#utility.yul\":12163:12211   */\n      tag_111\n      jump\t// in\n    tag_259:\n        /* \"#utility.yul\":12155:12161   */\n      dup4\n        /* \"#utility.yul\":12148:12212   */\n      sstore\n        /* \"#utility.yul\":12070:12226   */\n      pop\n        /* \"#utility.yul\":12047:12226   */\n    tag_258:\n        /* \"#utility.yul\":12272:12273   */\n      0x01\n        /* \"#utility.yul\":12268:12269   */\n      0x02\n        /* \"#utility.yul\":12260:12266   */\n      dup9\n        /* \"#utility.yul\":12256:12270   */\n      mul\n        /* \"#utility.yul\":12252:12274   */\n      add\n        /* \"#utility.yul\":12246:12250   */\n      dup9\n        /* \"#utility.yul\":12239:12275   */\n      sstore\n        /* \"#utility.yul\":11674:12285   */\n      pop\n      pop\n      pop\n        /* \"#utility.yul\":11637:12524   */\n    tag_250:\n      pop\n        /* \"#utility.yul\":11227:12530   */\n      pop\n      pop\n      pop\n        /* \"#utility.yul\":11135:12530   */\n      pop\n      pop\n      jump\t// out\n        /* \"#utility.yul\":12536:12684   */\n    tag_113:\n        /* \"#utility.yul\":12638:12649   */\n      0x00\n        /* \"#utility.yul\":12675:12678   */\n      dup2\n        /* \"#utility.yul\":12660:12678   */\n      swap1\n      pop\n        /* \"#utility.yul\":12536:12684   */\n      swap3\n      swap2\n      pop\n      pop\n      jump\t// out\n        /* \"#utility.yul\":12690:13080   */\n    tag_114:\n        /* \"#utility.yul\":12796:12799   */\n      0x00\n        /* \"#utility.yul\":12824:12863   */\n      tag_262\n        /* \"#utility.yul\":12857:12862   */\n      dup3\n        /* \"#utility.yul\":12824:12863   */\n      tag_80\n      jump\t// in\n    tag_262:\n        /* \"#utility.yul\":12879:12968   */\n      tag_263\n        /* \"#utility.yul\":12961:12967   */\n      dup2\n        /* \"#utility.yul\":12956:12959   */\n      dup6\n        /* \"#utility.yul\":12879:12968   */\n      tag_113\n      jump\t// in\n    tag_263:\n        /* \"#utility.yul\":12872:12968   */\n      swap4\n      pop\n        /* \"#utility.yul\":12977:13042   */\n      tag_264\n        /* \"#utility.yul\":13035:13041   */\n      dup2\n        /* \"#utility.yul\":13030:13033   */\n      dup6\n        /* \"#utility.yul\":13023:13027   */\n      0x20\n        /* \"#utility.yul\":13016:13021   */\n      dup7\n        /* \"#utility.yul\":13012:13028   */\n      add\n        /* \"#utility.yul\":12977:13042   */\n      tag_82\n      jump\t// in\n    tag_264:\n        /* \"#utility.yul\":13067:13073   */\n      dup1\n        /* \"#utility.yul\":13062:13065   */\n      dup5\n        /* \"#utility.yul\":13058:13074   */\n      add\n        /* \"#utility.yul\":13051:13074   */\n      swap2\n      pop\n        /* \"#utility.yul\":12800:13080   */\n      pop\n        /* \"#utility.yul\":12690:13080   */\n      swap3\n      swap2\n      pop\n      pop\n      jump\t// out\n        /* \"#utility.yul\":13086:13361   */\n    tag_64:\n        /* \"#utility.yul\":13218:13221   */\n      0x00\n        /* \"#utility.yul\":13240:13335   */\n      tag_266\n        /* \"#utility.yul\":13331:13334   */\n      dup3\n        /* \"#utility.yul\":13322:13328   */\n      dup5\n        /* \"#utility.yul\":13240:13335   */\n      tag_114\n      jump\t// in\n    tag_266:\n        /* \"#utility.yul\":13233:13335   */\n      swap2\n      pop\n        /* \"#utility.yul\":13352:13355   */\n      dup2\n        /* \"#utility.yul\":13345:13355   */\n      swap1\n      pop\n        /* \"#utility.yul\":13086:13361   */\n      swap3\n      swap2\n      pop\n      pop\n      jump\t// out\n        /* \"#utility.yul\":13367:13547   */\n    tag_115:\n        /* \"#utility.yul\":13415:13492   */\n      0x4e487b7100000000000000000000000000000000000000000000000000000000\n        /* \"#utility.yul\":13412:13413   */\n      0x00\n        /* \"#utility.yul\":13405:13493   */\n      mstore\n        /* \"#utility.yul\":13512:13516   */\n      0x11\n        /* \"#utility.yul\":13509:13510   */\n      0x04\n        /* \"#utility.yul\":13502:13517   */\n      mstore\n        /* \"#utility.yul\":13536:13540   */\n      0x24\n        /* \"#utility.yul\":13533:13534   */\n      0x00\n        /* \"#utility.yul\":13526:13541   */\n      revert\n        /* \"#utility.yul\":13553:13744   */\n    tag_68:\n        /* \"#utility.yul\":13593:13596   */\n      0x00\n        /* \"#utility.yul\":13612:13632   */\n      tag_269\n        /* \"#utility.yul\":13630:13631   */\n      dup3\n        /* \"#utility.yul\":13612:13632   */\n      tag_73\n      jump\t// in\n    tag_269:\n        /* \"#utility.yul\":13607:13632   */\n      swap2\n      pop\n        /* \"#utility.yul\":13646:13666   */\n      tag_270\n        /* \"#utility.yul\":13664:13665   */\n      dup4\n        /* \"#utility.yul\":13646:13666   */\n      tag_73\n      jump\t// in\n    tag_270:\n        /* \"#utility.yul\":13641:13666   */\n      swap3\n      pop\n        /* \"#utility.yul\":13689:13690   */\n      dup3\n        /* \"#utility.yul\":13686:13687   */\n      dup3\n        /* \"#utility.yul\":13682:13691   */\n      add\n        /* \"#utility.yul\":13675:13691   */\n      swap1\n      pop\n        /* \"#utility.yul\":13710:13713   */\n      dup1\n        /* \"#utility.yul\":13707:13708   */\n      dup3\n        /* \"#utility.yul\":13704:13714   */\n      gt\n        /* \"#utility.yul\":13701:13737   */\n      iszero\n      tag_271\n      jumpi\n        /* \"#utility.yul\":13717:13735   */\n      tag_272\n      tag_115\n      jump\t// in\n    tag_272:\n        /* \"#utility.yul\":13701:13737   */\n    tag_271:\n        /* \"#utility.yul\":13553:13744   */\n      swap3\n      swap2\n      pop\n      pop\n      jump\t// out\n        /* \"#utility.yul\":13774:14104   */\n    tag_116:\n        /* \"#utility.yul\":13890:13893   */\n      0x00\n        /* \"#utility.yul\":13911:14000   */\n      tag_274\n        /* \"#utility.yul\":13993:13999   */\n      dup4\n        /* \"#utility.yul\":13988:13991   */\n      dup6\n        /* \"#utility.yul\":13911:14000   */\n      tag_113\n      jump\t// in\n    tag_274:\n        /* \"#utility.yul\":13904:14000   */\n      swap4\n      pop\n        /* \"#utility.yul\":14010:14066   */\n      tag_275\n        /* \"#utility.yul\":14059:14065   */\n      dup4\n        /* \"#utility.yul\":14054:14057   */\n      dup6\n        /* \"#utility.yul\":14047:14052   */\n      dup5\n        /* \"#utility.yul\":14010:14066   */\n      tag_91\n      jump\t// in\n    tag_275:\n        /* \"#utility.yul\":14091:14097   */\n      dup3\n        /* \"#utility.yul\":14086:14089   */\n      dup5\n        /* \"#utility.yul\":14082:14098   */\n      add\n        /* \"#utility.yul\":14075:14098   */\n      swap1\n      pop\n        /* \"#utility.yul\":13774:14104   */\n      swap4\n      swap3\n      pop\n      pop\n      pop\n      jump\t// out\n        /* \"#utility.yul\":14110:14405   */\n    tag_71:\n        /* \"#utility.yul\":14252:14255   */\n      0x00\n        /* \"#utility.yul\":14274:14379   */\n      tag_277\n        /* \"#utility.yul\":14375:14378   */\n      dup3\n        /* \"#utility.yul\":14366:14372   */\n      dup5\n        /* \"#utility.yul\":14358:14364   */\n      dup7\n        /* \"#utility.yul\":14274:14379   */\n      tag_116\n      jump\t// in\n    tag_277:\n        /* \"#utility.yul\":14267:14379   */\n      swap2\n      pop\n        /* \"#utility.yul\":14396:14399   */\n      dup2\n        /* \"#utility.yul\":14389:14399   */\n      swap1\n      pop\n        /* \"#utility.yul\":14110:14405   */\n      swap4\n      swap3\n      pop\n      pop\n      pop\n      jump\t// out\n\n    auxdata: 0xa26469706673582212202d614dcd8b0112aeaee9eb36320adb329b4b108b18a4feddd00c861aed6b0f2d64736f6c634300081a0033\n}\n",
				"bytecode": {
					"linkReferences": {},
					"object": "6080604052348015600e575f80fd5b50610b868061001c5f395ff3fe608060405234801561000f575f80fd5b5060043610610091575f3560e01c80638bab8dd5116100645780638bab8dd51461011e578063a621d15e1461014e578063c03ece061461016c578063c6a3d59014610188578063ef5fb05b146101b857610091565b806313a2c5bb14610095578063452e7591146100b3578063471f7cdf146100e4578063795fff1d14610102575b5f80fd5b61009d6101d6565b6040516100aa91906103e9565b60405180910390f35b6100cd60048036038101906100c8919061043d565b6101e2565b6040516100db9291906104d8565b60405180910390f35b6100ec610297565b6040516100f991906103e9565b60405180910390f35b61011c60048036038101906101179190610632565b61029c565b005b6101386004803603810190610133919061068c565b610320565b60405161014591906103e9565b60405180910390f35b61015661034d565b60405161016391906103e9565b60405180910390f35b6101866004803603810190610181919061043d565b610355565b005b6101a2600480360381019061019d9190610730565b61036a565b6040516101af91906103e9565b60405180910390f35b6101c0610394565b6040516101cd919061077b565b60405180910390f35b5f600280549050905090565b600281815481106101f1575f80fd5b905f5260205f2090600202015f91509050805f018054610210906107c8565b80601f016020809104026020016040519081016040528092919081815260200182805461023c906107c8565b80156102875780601f1061025e57610100808354040283529160200191610287565b820191905f5260205f20905b81548152906001019060200180831161026a57829003601f168201915b5050505050908060010154905082565b5f5481565b6002604051806040016040528084815260200183815250908060018154018082558091505060019003905f5260205f2090600202015f909190919091505f820151815f0190816102ec9190610995565b506020820151816001015550508060018360405161030a9190610a9e565b9081526020016040518091039020819055505050565b6001818051602081018201805184825260208301602085012081835280955050505050505f915090505481565b5f8054905090565b6005816103629190610ae1565b5f8190555050565b5f6001838360405161037d929190610b38565b908152602001604051809103902054905092915050565b60606040518060400160405280600c81526020017f68656c6c6f20776f726c64210000000000000000000000000000000000000000815250905090565b5f819050919050565b6103e3816103d1565b82525050565b5f6020820190506103fc5f8301846103da565b92915050565b5f604051905090565b5f80fd5b5f80fd5b61041c816103d1565b8114610426575f80fd5b50565b5f8135905061043781610413565b92915050565b5f602082840312156104525761045161040b565b5b5f61045f84828501610429565b91505092915050565b5f81519050919050565b5f82825260208201905092915050565b8281835e5f83830152505050565b5f601f19601f8301169050919050565b5f6104aa82610468565b6104b48185610472565b93506104c4818560208601610482565b6104cd81610490565b840191505092915050565b5f6040820190508181035f8301526104f081856104a0565b90506104ff60208301846103da565b9392505050565b5f80fd5b5f80fd5b7f4e487b71000000000000000000000000000000000000000000000000000000005f52604160045260245ffd5b61054482610490565b810181811067ffffffffffffffff821117156105635761056261050e565b5b80604052505050565b5f610575610402565b9050610581828261053b565b919050565b5f67ffffffffffffffff8211156105a05761059f61050e565b5b6105a982610490565b9050602081019050919050565b828183375f83830152505050565b5f6105d66105d184610586565b61056c565b9050828152602081018484840111156105f2576105f161050a565b5b6105fd8482856105b6565b509392505050565b5f82601f83011261061957610618610506565b5b81356106298482602086016105c4565b91505092915050565b5f80604083850312156106485761064761040b565b5b5f83013567ffffffffffffffff8111156106655761066461040f565b5b61067185828601610605565b925050602061068285828601610429565b9150509250929050565b5f602082840312156106a1576106a061040b565b5b5f82013567ffffffffffffffff8111156106be576106bd61040f565b5b6106ca84828501610605565b91505092915050565b5f80fd5b5f80fd5b5f8083601f8401126106f0576106ef610506565b5b8235905067ffffffffffffffff81111561070d5761070c6106d3565b5b602083019150836001820283011115610729576107286106d7565b5b9250929050565b5f80602083850312156107465761074561040b565b5b5f83013567ffffffffffffffff8111156107635761076261040f565b5b61076f858286016106db565b92509250509250929050565b5f6020820190508181035f83015261079381846104a0565b905092915050565b7f4e487b71000000000000000000000000000000000000000000000000000000005f52602260045260245ffd5b5f60028204905060018216806107df57607f821691505b6020821081036107f2576107f161079b565b5b50919050565b5f819050815f5260205f209050919050565b5f6020601f8301049050919050565b5f82821b905092915050565b5f600883026108547fffffffffffffffffffffffffffffffffffffffffffffffffffffffffffffffff82610819565b61085e8683610819565b95508019841693508086168417925050509392505050565b5f819050919050565b5f61089961089461088f846103d1565b610876565b6103d1565b9050919050565b5f819050919050565b6108b28361087f565b6108c66108be826108a0565b848454610825565b825550505050565b5f90565b6108da6108ce565b6108e58184846108a9565b505050565b5b81811015610908576108fd5f826108d2565b6001810190506108eb565b5050565b601f82111561094d5761091e816107f8565b6109278461080a565b81016020851015610936578190505b61094a6109428561080a565b8301826108ea565b50505b505050565b5f82821c905092915050565b5f61096d5f1984600802610952565b1980831691505092915050565b5f610985838361095e565b9150826002028217905092915050565b61099e82610468565b67ffffffffffffffff8111156109b7576109b661050e565b5b6109c182546107c8565b6109cc82828561090c565b5f60209050601f8311600181146109fd575f84156109eb578287015190505b6109f5858261097a565b865550610a5c565b601f198416610a0b866107f8565b5f5b82811015610a3257848901518255600182019150602085019450602081019050610a0d565b86831015610a4f5784890151610a4b601f89168261095e565b8355505b6001600288020188555050505b505050505050565b5f81905092915050565b5f610a7882610468565b610a828185610a64565b9350610a92818560208601610482565b80840191505092915050565b5f610aa98284610a6e565b915081905092915050565b7f4e487b71000000000000000000000000000000000000000000000000000000005f52601160045260245ffd5b5f610aeb826103d1565b9150610af6836103d1565b9250828201905080821115610b0e57610b0d610ab4565b5b92915050565b5f610b1f8385610a64565b9350610b2c8385846105b6565b82840190509392505050565b5f610b44828486610b14565b9150819050939250505056fea26469706673582212202d614dcd8b0112aeaee9eb36320adb329b4b108b18a4feddd00c861aed6b0f2d64736f6c634300081a0033",
					"opcodes": "PUSH1 0x80 PUSH1 0x40 MSTORE CALLVALUE DUP1 ISZERO PUSH1 0xE JUMPI PUSH0 DUP1 REVERT JUMPDEST POP PUSH2 0xB86 DUP1 PUSH2 0x1C PUSH0 CODECOPY PUSH0 RETURN INVALID PUSH1 0x80 PUSH1 0x40 MSTORE CALLVALUE DUP1 ISZERO PUSH2 0xF JUMPI PUSH0 DUP1 REVERT JUMPDEST POP PUSH1 0x4 CALLDATASIZE LT PUSH2 0x91 JUMPI PUSH0 CALLDATALOAD PUSH1 0xE0 SHR DUP1 PUSH4 0x8BAB8DD5 GT PUSH2 0x64 JUMPI DUP1 PUSH4 0x8BAB8DD5 EQ PUSH2 0x11E JUMPI DUP1 PUSH4 0xA621D15E EQ PUSH2 0x14E JUMPI DUP1 PUSH4 0xC03ECE06 EQ PUSH2 0x16C JUMPI DUP1 PUSH4 0xC6A3D590 EQ PUSH2 0x188 JUMPI DUP1 PUSH4 0xEF5FB05B EQ PUSH2 0x1B8 JUMPI PUSH2 0x91 JUMP JUMPDEST DUP1 PUSH4 0x13A2C5BB EQ PUSH2 0x95 JUMPI DUP1 PUSH4 0x452E7591 EQ PUSH2 0xB3 JUMPI DUP1 PUSH4 0x471F7CDF EQ PUSH2 0xE4 JUMPI DUP1 PUSH4 0x795FFF1D EQ PUSH2 0x102 JUMPI JUMPDEST PUSH0 DUP1 REVERT JUMPDEST PUSH2 0x9D PUSH2 0x1D6 JUMP JUMPDEST PUSH1 0x40 MLOAD PUSH2 0xAA SWAP2 SWAP1 PUSH2 0x3E9 JUMP JUMPDEST PUSH1 0x40 MLOAD DUP1 SWAP2 SUB SWAP1 RETURN JUMPDEST PUSH2 0xCD PUSH1 0x4 DUP1 CALLDATASIZE SUB DUP2 ADD SWAP1 PUSH2 0xC8 SWAP2 SWAP1 PUSH2 0x43D JUMP JUMPDEST PUSH2 0x1E2 JUMP JUMPDEST PUSH1 0x40 MLOAD PUSH2 0xDB SWAP3 SWAP2 SWAP1 PUSH2 0x4D8 JUMP JUMPDEST PUSH1 0x40 MLOAD DUP1 SWAP2 SUB SWAP1 RETURN JUMPDEST PUSH2 0xEC PUSH2 0x297 JUMP JUMPDEST PUSH1 0x40 MLOAD PUSH2 0xF9 SWAP2 SWAP1 PUSH2 0x3E9 JUMP JUMPDEST PUSH1 0x40 MLOAD DUP1 SWAP2 SUB SWAP1 RETURN JUMPDEST PUSH2 0x11C PUSH1 0x4 DUP1 CALLDATASIZE SUB DUP2 ADD SWAP1 PUSH2 0x117 SWAP2 SWAP1 PUSH2 0x632 JUMP JUMPDEST PUSH2 0x29C JUMP JUMPDEST STOP JUMPDEST PUSH2 0x138 PUSH1 0x4 DUP1 CALLDATASIZE SUB DUP2 ADD SWAP1 PUSH2 0x133 SWAP2 SWAP1 PUSH2 0x68C JUMP JUMPDEST PUSH2 0x320 JUMP JUMPDEST PUSH1 0x40 MLOAD PUSH2 0x145 SWAP2 SWAP1 PUSH2 0x3E9 JUMP JUMPDEST PUSH1 0x40 MLOAD DUP1 SWAP2 SUB SWAP1 RETURN JUMPDEST PUSH2 0x156 PUSH2 0x34D JUMP JUMPDEST PUSH1 0x40 MLOAD PUSH2 0x163 SWAP2 SWAP1 PUSH2 0x3E9 JUMP JUMPDEST PUSH1 0x40 MLOAD DUP1 SWAP2 SUB SWAP1 RETURN JUMPDEST PUSH2 0x186 PUSH1 0x4 DUP1 CALLDATASIZE SUB DUP2 ADD SWAP1 PUSH2 0x181 SWAP2 SWAP1 PUSH2 0x43D JUMP JUMPDEST PUSH2 0x355 JUMP JUMPDEST STOP JUMPDEST PUSH2 0x1A2 PUSH1 0x4 DUP1 CALLDATASIZE SUB DUP2 ADD SWAP1 PUSH2 0x19D SWAP2 SWAP1 PUSH2 0x730 JUMP JUMPDEST PUSH2 0x36A JUMP JUMPDEST PUSH1 0x40 MLOAD PUSH2 0x1AF SWAP2 SWAP1 PUSH2 0x3E9 JUMP JUMPDEST PUSH1 0x40 MLOAD DUP1 SWAP2 SUB SWAP1 RETURN JUMPDEST PUSH2 0x1C0 PUSH2 0x394 JUMP JUMPDEST PUSH1 0x40 MLOAD PUSH2 0x1CD SWAP2 SWAP1 PUSH2 0x77B JUMP JUMPDEST PUSH1 0x40 MLOAD DUP1 SWAP2 SUB SWAP1 RETURN JUMPDEST PUSH0 PUSH1 0x2 DUP1 SLOAD SWAP1 POP SWAP1 POP SWAP1 JUMP JUMPDEST PUSH1 0x2 DUP2 DUP2 SLOAD DUP2 LT PUSH2 0x1F1 JUMPI PUSH0 DUP1 REVERT JUMPDEST SWAP1 PUSH0 MSTORE PUSH1 0x20 PUSH0 KECCAK256 SWAP1 PUSH1 0x2 MUL ADD PUSH0 SWAP2 POP SWAP1 POP DUP1 PUSH0 ADD DUP1 SLOAD PUSH2 0x210 SWAP1 PUSH2 0x7C8 JUMP JUMPDEST DUP1 PUSH1 0x1F ADD PUSH1 0x20 DUP1 SWAP2 DIV MUL PUSH1 0x20 ADD PUSH1 0x40 MLOAD SWAP1 DUP2 ADD PUSH1 0x40 MSTORE DUP1 SWAP3 SWAP2 SWAP1 DUP2 DUP2 MSTORE PUSH1 0x20 ADD DUP3 DUP1 SLOAD PUSH2 0x23C SWAP1 PUSH2 0x7C8 JUMP JUMPDEST DUP1 ISZERO PUSH2 0x287 JUMPI DUP1 PUSH1 0x1F LT PUSH2 0x25E JUMPI PUSH2 0x100 DUP1 DUP4 SLOAD DIV MUL DUP4 MSTORE SWAP2 PUSH1 0x20 ADD SWAP2 PUSH2 0x287 JUMP JUMPDEST DUP3 ADD SWAP2 SWAP1 PUSH0 MSTORE PUSH1 0x20 PUSH0 KECCAK256 SWAP1 JUMPDEST DUP2 SLOAD DUP2 MSTORE SWAP1 PUSH1 0x1 ADD SWAP1 PUSH1 0x20 ADD DUP1 DUP4 GT PUSH2 0x26A JUMPI DUP3 SWAP1 SUB PUSH1 0x1F AND DUP3 ADD SWAP2 JUMPDEST POP POP POP POP POP SWAP1 DUP1 PUSH1 0x1 ADD SLOAD SWAP1 POP DUP3 JUMP JUMPDEST PUSH0 SLOAD DUP2 JUMP JUMPDEST PUSH1 0x2 PUSH1 0x40 MLOAD DUP1 PUSH1 0x40 ADD PUSH1 0x40 MSTORE DUP1 DUP5 DUP2 MSTORE PUSH1 0x20 ADD DUP4 DUP2 MSTORE POP SWAP1 DUP1 PUSH1 0x1 DUP2 SLOAD ADD DUP1 DUP3 SSTORE DUP1 SWAP2 POP POP PUSH1 0x1 SWAP1 SUB SWAP1 PUSH0 MSTORE PUSH1 0x20 PUSH0 KECCAK256 SWAP1 PUSH1 0x2 MUL ADD PUSH0 SWAP1 SWAP2 SWAP1 SWAP2 SWAP1 SWAP2 POP PUSH0 DUP3 ADD MLOAD DUP2 PUSH0 ADD SWAP1 DUP2 PUSH2 0x2EC SWAP2 SWAP1 PUSH2 0x995 JUMP JUMPDEST POP PUSH1 0x20 DUP3 ADD MLOAD DUP2 PUSH1 0x1 ADD SSTORE POP POP DUP1 PUSH1 0x1 DUP4 PUSH1 0x40 MLOAD PUSH2 0x30A SWAP2 SWAP1 PUSH2 0xA9E JUMP JUMPDEST SWAP1 DUP2 MSTORE PUSH1 0x20 ADD PUSH1 0x40 MLOAD DUP1 SWAP2 SUB SWAP1 KECCAK256 DUP2 SWAP1 SSTORE POP POP POP JUMP JUMPDEST PUSH1 0x1 DUP2 DUP1 MLOAD PUSH1 0x20 DUP2 ADD DUP3 ADD DUP1 MLOAD DUP5 DUP3 MSTORE PUSH1 0x20 DUP4 ADD PUSH1 0x20 DUP6 ADD KECCAK256 DUP2 DUP4 MSTORE DUP1 SWAP6 POP POP POP POP POP POP PUSH0 SWAP2 POP SWAP1 POP SLOAD DUP2 JUMP JUMPDEST PUSH0 DUP1 SLOAD SWAP1 POP SWAP1 JUMP JUMPDEST PUSH1 0x5 DUP2 PUSH2 0x362 SWAP2 SWAP1 PUSH2 0xAE1 JUMP JUMPDEST PUSH0 DUP2 SWAP1 SSTORE POP POP JUMP JUMPDEST PUSH0 PUSH1 0x1 DUP4 DUP4 PUSH1 0x40 MLOAD PUSH2 0x37D SWAP3 SWAP2 SWAP1 PUSH2 0xB38 JUMP JUMPDEST SWAP1 DUP2 MSTORE PUSH1 0x20 ADD PUSH1 0x40 MLOAD DUP1 SWAP2 SUB SWAP1 KECCAK256 SLOAD SWAP1 POP SWAP3 SWAP2 POP POP JUMP JUMPDEST PUSH1 0x60 PUSH1 0x40 MLOAD DUP1 PUSH1 0x40 ADD PUSH1 0x40 MSTORE DUP1 PUSH1 0xC DUP2 MSTORE PUSH1 0x20 ADD PUSH32 0x68656C6C6F20776F726C64210000000000000000000000000000000000000000 DUP2 MSTORE POP SWAP1 POP SWAP1 JUMP JUMPDEST PUSH0 DUP2 SWAP1 POP SWAP2 SWAP1 POP JUMP JUMPDEST PUSH2 0x3E3 DUP2 PUSH2 0x3D1 JUMP JUMPDEST DUP3 MSTORE POP POP JUMP JUMPDEST PUSH0 PUSH1 0x20 DUP3 ADD SWAP1 POP PUSH2 0x3FC PUSH0 DUP4 ADD DUP5 PUSH2 0x3DA JUMP JUMPDEST SWAP3 SWAP2 POP POP JUMP JUMPDEST PUSH0 PUSH1 0x40 MLOAD SWAP1 POP SWAP1 JUMP JUMPDEST PUSH0 DUP1 REVERT JUMPDEST PUSH0 DUP1 REVERT JUMPDEST PUSH2 0x41C DUP2 PUSH2 0x3D1 JUMP JUMPDEST DUP2 EQ PUSH2 0x426 JUMPI PUSH0 DUP1 REVERT JUMPDEST POP JUMP JUMPDEST PUSH0 DUP2 CALLDATALOAD SWAP1 POP PUSH2 0x437 DUP2 PUSH2 0x413 JUMP JUMPDEST SWAP3 SWAP2 POP POP JUMP JUMPDEST PUSH0 PUSH1 0x20 DUP3 DUP5 SUB SLT ISZERO PUSH2 0x452 JUMPI PUSH2 0x451 PUSH2 0x40B JUMP JUMPDEST JUMPDEST PUSH0 PUSH2 0x45F DUP5 DUP3 DUP6 ADD PUSH2 0x429 JUMP JUMPDEST SWAP2 POP POP SWAP3 SWAP2 POP POP JUMP JUMPDEST PUSH0 DUP2 MLOAD SWAP1 POP SWAP2 SWAP1 POP JUMP JUMPDEST PUSH0 DUP3 DUP3 MSTORE PUSH1 0x20 DUP3 ADD SWAP1 POP SWAP3 SWAP2 POP POP JUMP JUMPDEST DUP3 DUP2 DUP4 MCOPY PUSH0 DUP4 DUP4 ADD MSTORE POP POP POP JUMP JUMPDEST PUSH0 PUSH1 0x1F NOT PUSH1 0x1F DUP4 ADD AND SWAP1 POP SWAP2 SWAP1 POP JUMP JUMPDEST PUSH0 PUSH2 0x4AA DUP3 PUSH2 0x468 JUMP JUMPDEST PUSH2 0x4B4 DUP2 DUP6 PUSH2 0x472 JUMP JUMPDEST SWAP4 POP PUSH2 0x4C4 DUP2 DUP6 PUSH1 0x20 DUP7 ADD PUSH2 0x482 JUMP JUMPDEST PUSH2 0x4CD DUP2 PUSH2 0x490 JUMP JUMPDEST DUP5 ADD SWAP2 POP POP SWAP3 SWAP2 POP POP JUMP JUMPDEST PUSH0 PUSH1 0x40 DUP3 ADD SWAP1 POP DUP2 DUP2 SUB PUSH0 DUP4 ADD MSTORE PUSH2 0x4F0 DUP2 DUP6 PUSH2 0x4A0 JUMP JUMPDEST SWAP1 POP PUSH2 0x4FF PUSH1 0x20 DUP4 ADD DUP5 PUSH2 0x3DA JUMP JUMPDEST SWAP4 SWAP3 POP POP POP JUMP JUMPDEST PUSH0 DUP1 REVERT JUMPDEST PUSH0 DUP1 REVERT JUMPDEST PUSH32 0x4E487B7100000000000000000000000000000000000000000000000000000000 PUSH0 MSTORE PUSH1 0x41 PUSH1 0x4 MSTORE PUSH1 0x24 PUSH0 REVERT JUMPDEST PUSH2 0x544 DUP3 PUSH2 0x490 JUMP JUMPDEST DUP2 ADD DUP2 DUP2 LT PUSH8 0xFFFFFFFFFFFFFFFF DUP3 GT OR ISZERO PUSH2 0x563 JUMPI PUSH2 0x562 PUSH2 0x50E JUMP JUMPDEST JUMPDEST DUP1 PUSH1 0x40 MSTORE POP POP POP JUMP JUMPDEST PUSH0 PUSH2 0x575 PUSH2 0x402 JUMP JUMPDEST SWAP1 POP PUSH2 0x581 DUP3 DUP3 PUSH2 0x53B JUMP JUMPDEST SWAP2 SWAP1 POP JUMP JUMPDEST PUSH0 PUSH8 0xFFFFFFFFFFFFFFFF DUP3 GT ISZERO PUSH2 0x5A0 JUMPI PUSH2 0x59F PUSH2 0x50E JUMP JUMPDEST JUMPDEST PUSH2 0x5A9 DUP3 PUSH2 0x490 JUMP JUMPDEST SWAP1 POP PUSH1 0x20 DUP2 ADD SWAP1 POP SWAP2 SWAP1 POP JUMP JUMPDEST DUP3 DUP2 DUP4 CALLDATACOPY PUSH0 DUP4 DUP4 ADD MSTORE POP POP POP JUMP JUMPDEST PUSH0 PUSH2 0x5D6 PUSH2 0x5D1 DUP5 PUSH2 0x586 JUMP JUMPDEST PUSH2 0x56C JUMP JUMPDEST SWAP1 POP DUP3 DUP2 MSTORE PUSH1 0x20 DUP2 ADD DUP5 DUP5 DUP5 ADD GT ISZERO PUSH2 0x5F2 JUMPI PUSH2 0x5F1 PUSH2 0x50A JUMP JUMPDEST JUMPDEST PUSH2 0x5FD DUP5 DUP3 DUP6 PUSH2 0x5B6 JUMP JUMPDEST POP SWAP4 SWAP3 POP POP POP JUMP JUMPDEST PUSH0 DUP3 PUSH1 0x1F DUP4 ADD SLT PUSH2 0x619 JUMPI PUSH2 0x618 PUSH2 0x506 JUMP JUMPDEST JUMPDEST DUP2 CALLDATALOAD PUSH2 0x629 DUP5 DUP3 PUSH1 0x20 DUP7 ADD PUSH2 0x5C4 JUMP JUMPDEST SWAP2 POP POP SWAP3 SWAP2 POP POP JUMP JUMPDEST PUSH0 DUP1 PUSH1 0x40 DUP4 DUP6 SUB SLT ISZERO PUSH2 0x648 JUMPI PUSH2 0x647 PUSH2 0x40B JUMP JUMPDEST JUMPDEST PUSH0 DUP4 ADD CALLDATALOAD PUSH8 0xFFFFFFFFFFFFFFFF DUP2 GT ISZERO PUSH2 0x665 JUMPI PUSH2 0x664 PUSH2 0x40F JUMP JUMPDEST JUMPDEST PUSH2 0x671 DUP6 DUP3 DUP7 ADD PUSH2 0x605 JUMP JUMPDEST SWAP3 POP POP PUSH1 0x20 PUSH2 0x682 DUP6 DUP3 DUP7 ADD PUSH2 0x429 JUMP JUMPDEST SWAP2 POP POP SWAP3 POP SWAP3 SWAP1 POP JUMP JUMPDEST PUSH0 PUSH1 0x20 DUP3 DUP5 SUB SLT ISZERO PUSH2 0x6A1 JUMPI PUSH2 0x6A0 PUSH2 0x40B JUMP JUMPDEST JUMPDEST PUSH0 DUP3 ADD CALLDATALOAD PUSH8 0xFFFFFFFFFFFFFFFF DUP2 GT ISZERO PUSH2 0x6BE JUMPI PUSH2 0x6BD PUSH2 0x40F JUMP JUMPDEST JUMPDEST PUSH2 0x6CA DUP5 DUP3 DUP6 ADD PUSH2 0x605 JUMP JUMPDEST SWAP2 POP POP SWAP3 SWAP2 POP POP JUMP JUMPDEST PUSH0 DUP1 REVERT JUMPDEST PUSH0 DUP1 REVERT JUMPDEST PUSH0 DUP1 DUP4 PUSH1 0x1F DUP5 ADD SLT PUSH2 0x6F0 JUMPI PUSH2 0x6EF PUSH2 0x506 JUMP JUMPDEST JUMPDEST DUP3 CALLDATALOAD SWAP1 POP PUSH8 0xFFFFFFFFFFFFFFFF DUP2 GT ISZERO PUSH2 0x70D JUMPI PUSH2 0x70C PUSH2 0x6D3 JUMP JUMPDEST JUMPDEST PUSH1 0x20 DUP4 ADD SWAP2 POP DUP4 PUSH1 0x1 DUP3 MUL DUP4 ADD GT ISZERO PUSH2 0x729 JUMPI PUSH2 0x728 PUSH2 0x6D7 JUMP JUMPDEST JUMPDEST SWAP3 POP SWAP3 SWAP1 POP JUMP JUMPDEST PUSH0 DUP1 PUSH1 0x20 DUP4 DUP6 SUB SLT ISZERO PUSH2 0x746 JUMPI PUSH2 0x745 PUSH2 0x40B JUMP JUMPDEST JUMPDEST PUSH0 DUP4 ADD CALLDATALOAD PUSH8 0xFFFFFFFFFFFFFFFF DUP2 GT ISZERO PUSH2 0x763 JUMPI PUSH2 0x762 PUSH2 0x40F JUMP JUMPDEST JUMPDEST PUSH2 0x76F DUP6 DUP3 DUP7 ADD PUSH2 0x6DB JUMP JUMPDEST SWAP3 POP SWAP3 POP POP SWAP3 POP SWAP3 SWAP1 POP JUMP JUMPDEST PUSH0 PUSH1 0x20 DUP3 ADD SWAP1 POP DUP2 DUP2 SUB PUSH0 DUP4 ADD MSTORE PUSH2 0x793 DUP2 DUP5 PUSH2 0x4A0 JUMP JUMPDEST SWAP1 POP SWAP3 SWAP2 POP POP JUMP JUMPDEST PUSH32 0x4E487B7100000000000000000000000000000000000000000000000000000000 PUSH0 MSTORE PUSH1 0x22 PUSH1 0x4 MSTORE PUSH1 0x24 PUSH0 REVERT JUMPDEST PUSH0 PUSH1 0x2 DUP3 DIV SWAP1 POP PUSH1 0x1 DUP3 AND DUP1 PUSH2 0x7DF JUMPI PUSH1 0x7F DUP3 AND SWAP2 POP JUMPDEST PUSH1 0x20 DUP3 LT DUP2 SUB PUSH2 0x7F2 JUMPI PUSH2 0x7F1 PUSH2 0x79B JUMP JUMPDEST JUMPDEST POP SWAP2 SWAP1 POP JUMP JUMPDEST PUSH0 DUP2 SWAP1 POP DUP2 PUSH0 MSTORE PUSH1 0x20 PUSH0 KECCAK256 SWAP1 POP SWAP2 SWAP1 POP JUMP JUMPDEST PUSH0 PUSH1 0x20 PUSH1 0x1F DUP4 ADD DIV SWAP1 POP SWAP2 SWAP1 POP JUMP JUMPDEST PUSH0 DUP3 DUP3 SHL SWAP1 POP SWAP3 SWAP2 POP POP JUMP JUMPDEST PUSH0 PUSH1 0x8 DUP4 MUL PUSH2 0x854 PUSH32 0xFFFFFFFFFFFFFFFFFFFFFFFFFFFFFFFFFFFFFFFFFFFFFFFFFFFFFFFFFFFFFFFF DUP3 PUSH2 0x819 JUMP JUMPDEST PUSH2 0x85E DUP7 DUP4 PUSH2 0x819 JUMP JUMPDEST SWAP6 POP DUP1 NOT DUP5 AND SWAP4 POP DUP1 DUP7 AND DUP5 OR SWAP3 POP POP POP SWAP4 SWAP3 POP POP POP JUMP JUMPDEST PUSH0 DUP2 SWAP1 POP SWAP2 SWAP1 POP JUMP JUMPDEST PUSH0 PUSH2 0x899 PUSH2 0x894 PUSH2 0x88F DUP5 PUSH2 0x3D1 JUMP JUMPDEST PUSH2 0x876 JUMP JUMPDEST PUSH2 0x3D1 JUMP JUMPDEST SWAP1 POP SWAP2 SWAP1 POP JUMP JUMPDEST PUSH0 DUP2 SWAP1 POP SWAP2 SWAP1 POP JUMP JUMPDEST PUSH2 0x8B2 DUP4 PUSH2 0x87F JUMP JUMPDEST PUSH2 0x8C6 PUSH2 0x8BE DUP3 PUSH2 0x8A0 JUMP JUMPDEST DUP5 DUP5 SLOAD PUSH2 0x825 JUMP JUMPDEST DUP3 SSTORE POP POP POP POP JUMP JUMPDEST PUSH0 SWAP1 JUMP JUMPDEST PUSH2 0x8DA PUSH2 0x8CE JUMP JUMPDEST PUSH2 0x8E5 DUP2 DUP5 DUP5 PUSH2 0x8A9 JUMP JUMPDEST POP POP POP JUMP JUMPDEST JUMPDEST DUP2 DUP2 LT ISZERO PUSH2 0x908 JUMPI PUSH2 0x8FD PUSH0 DUP3 PUSH2 0x8D2 JUMP JUMPDEST PUSH1 0x1 DUP2 ADD SWAP1 POP PUSH2 0x8EB JUMP JUMPDEST POP POP JUMP JUMPDEST PUSH1 0x1F DUP3 GT ISZERO PUSH2 0x94D JUMPI PUSH2 0x91E DUP2 PUSH2 0x7F8 JUMP JUMPDEST PUSH2 0x927 DUP5 PUSH2 0x80A JUMP JUMPDEST DUP2 ADD PUSH1 0x20 DUP6 LT ISZERO PUSH2 0x936 JUMPI DUP2 SWAP1 POP JUMPDEST PUSH2 0x94A PUSH2 0x942 DUP6 PUSH2 0x80A JUMP JUMPDEST DUP4 ADD DUP3 PUSH2 0x8EA JUMP JUMPDEST POP POP JUMPDEST POP POP POP JUMP JUMPDEST PUSH0 DUP3 DUP3 SHR SWAP1 POP SWAP3 SWAP2 POP POP JUMP JUMPDEST PUSH0 PUSH2 0x96D PUSH0 NOT DUP5 PUSH1 0x8 MUL PUSH2 0x952 JUMP JUMPDEST NOT DUP1 DUP4 AND SWAP2 POP POP SWAP3 SWAP2 POP POP JUMP JUMPDEST PUSH0 PUSH2 0x985 DUP4 DUP4 PUSH2 0x95E JUMP JUMPDEST SWAP2 POP DUP3 PUSH1 0x2 MUL DUP3 OR SWAP1 POP SWAP3 SWAP2 POP POP JUMP JUMPDEST PUSH2 0x99E DUP3 PUSH2 0x468 JUMP JUMPDEST PUSH8 0xFFFFFFFFFFFFFFFF DUP2 GT ISZERO PUSH2 0x9B7 JUMPI PUSH2 0x9B6 PUSH2 0x50E JUMP JUMPDEST JUMPDEST PUSH2 0x9C1 DUP3 SLOAD PUSH2 0x7C8 JUMP JUMPDEST PUSH2 0x9CC DUP3 DUP3 DUP6 PUSH2 0x90C JUMP JUMPDEST PUSH0 PUSH1 0x20 SWAP1 POP PUSH1 0x1F DUP4 GT PUSH1 0x1 DUP2 EQ PUSH2 0x9FD JUMPI PUSH0 DUP5 ISZERO PUSH2 0x9EB JUMPI DUP3 DUP8 ADD MLOAD SWAP1 POP JUMPDEST PUSH2 0x9F5 DUP6 DUP3 PUSH2 0x97A JUMP JUMPDEST DUP7 SSTORE POP PUSH2 0xA5C JUMP JUMPDEST PUSH1 0x1F NOT DUP5 AND PUSH2 0xA0B DUP7 PUSH2 0x7F8 JUMP JUMPDEST PUSH0 JUMPDEST DUP3 DUP2 LT ISZERO PUSH2 0xA32 JUMPI DUP5 DUP10 ADD MLOAD DUP3 SSTORE PUSH1 0x1 DUP3 ADD SWAP2 POP PUSH1 0x20 DUP6 ADD SWAP5 POP PUSH1 0x20 DUP2 ADD SWAP1 POP PUSH2 0xA0D JUMP JUMPDEST DUP7 DUP4 LT ISZERO PUSH2 0xA4F JUMPI DUP5 DUP10 ADD MLOAD PUSH2 0xA4B PUSH1 0x1F DUP10 AND DUP3 PUSH2 0x95E JUMP JUMPDEST DUP4 SSTORE POP JUMPDEST PUSH1 0x1 PUSH1 0x2 DUP9 MUL ADD DUP9 SSTORE POP POP POP JUMPDEST POP POP POP POP POP POP JUMP JUMPDEST PUSH0 DUP2 SWAP1 POP SWAP3 SWAP2 POP POP JUMP JUMPDEST PUSH0 PUSH2 0xA78 DUP3 PUSH2 0x468 JUMP JUMPDEST PUSH2 0xA82 DUP2 DUP6 PUSH2 0xA64 JUMP JUMPDEST SWAP4 POP PUSH2 0xA92 DUP2 DUP6 PUSH1 0x20 DUP7 ADD PUSH2 0x482 JUMP JUMPDEST DUP1 DUP5 ADD SWAP2 POP POP SWAP3 SWAP2 POP POP JUMP JUMPDEST PUSH0 PUSH2 0xAA9 DUP3 DUP5 PUSH2 0xA6E JUMP JUMPDEST SWAP2 POP DUP2 SWAP1 POP SWAP3 SWAP2 POP POP JUMP JUMPDEST PUSH32 0x4E487B7100000000000000000000000000000000000000000000000000000000 PUSH0 MSTORE PUSH1 0x11 PUSH1 0x4 MSTORE PUSH1 0x24 PUSH0 REVERT JUMPDEST PUSH0 PUSH2 0xAEB DUP3 PUSH2 0x3D1 JUMP JUMPDEST SWAP2 POP PUSH2 0xAF6 DUP4 PUSH2 0x3D1 JUMP JUMPDEST SWAP3 POP DUP3 DUP3 ADD SWAP1 POP DUP1 DUP3 GT ISZERO PUSH2 0xB0E JUMPI PUSH2 0xB0D PUSH2 0xAB4 JUMP JUMPDEST JUMPDEST SWAP3 SWAP2 POP POP JUMP JUMPDEST PUSH0 PUSH2 0xB1F DUP4 DUP6 PUSH2 0xA64 JUMP JUMPDEST SWAP4 POP PUSH2 0xB2C DUP4 DUP6 DUP5 PUSH2 0x5B6 JUMP JUMPDEST DUP3 DUP5 ADD SWAP1 POP SWAP4 SWAP3 POP POP POP JUMP JUMPDEST PUSH0 PUSH2 0xB44 DUP3 DUP5 DUP7 PUSH2 0xB14 JUMP JUMPDEST SWAP2 POP DUP2 SWAP1 POP SWAP4 SWAP3 POP POP POP JUMP INVALID LOG2 PUSH5 0x6970667358 0x22 SLT KECCAK256 0x2D PUSH2 0x4DCD DUP12 ADD SLT 0xAE 0xAE 0xE9 0xEB CALLDATASIZE ORIGIN EXP 0xDB ORIGIN SWAP12 0x4B LT DUP12 XOR LOG4 INVALID 0xDD 0xD0 0xC DUP7 BYTE 0xED PUSH12 0xF2D64736F6C634300081A00 CALLER "
				},
				"gasEstimates": {
					"creation": {
						"codeDepositCost": "590000",
						"executionCost": "623",
						"totalCost": "590623"
					},
					"external": {
						"addPeople(string,uint256)": "infinite",
						"favoriteNumber()": "2469",
						"getAgeFromName(string)": "infinite",
						"getFavoriteNumber()": "2454",
						"getSizePeople()": "2441",
						"listPeople(uint256)": "infinite",
						"nameToFavoriteNumber(string)": "infinite",
						"sayHello()": "infinite",
						"storeFavoriteNumber(uint256)": "infinite"
					}
				},
				"methodIdentifiers": {
					"addPeople(string,uint256)": "795fff1d",
					"favoriteNumber()": "471f7cdf",
					"getAgeFromName(string)": "c6a3d590",
					"getFavoriteNumber()": "a621d15e",
					"getSizePeople()": "13a2c5bb",
					"listPeople(uint256)": "452e7591",
					"nameToFavoriteNumber(string)": "8bab8dd5",
					"sayHello()": "ef5fb05b",
					"storeFavoriteNumber(uint256)": "c03ece06"
				}
			},
			"storageLayout": {
				"storage": [
					{
						"astId": 30,
						"contract": "ExtendSimpleStorage.sol:ExtendSimpleStorage",
						"label": "favoriteNumber",
						"offset": 0,
						"slot": "0",
						"type": "t_uint256"
					},
					{
						"astId": 39,
						"contract": "ExtendSimpleStorage.sol:ExtendSimpleStorage",
						"label": "nameToFavoriteNumber",
						"offset": 0,
						"slot": "1",
						"type": "t_mapping(t_string_memory_ptr,t_uint256)"
					},
					{
						"astId": 43,
						"contract": "ExtendSimpleStorage.sol:ExtendSimpleStorage",
						"label": "listPeople",
						"offset": 0,
						"slot": "2",
						"type": "t_array(t_struct(Person)35_storage)dyn_storage"
					}
				],
				"types": {
					"t_array(t_struct(Person)35_storage)dyn_storage": {
						"base": "t_struct(Person)35_storage",
						"encoding": "dynamic_array",
						"label": "struct SimpleStorage.Person[]",
						"numberOfBytes": "32"
					},
					"t_mapping(t_string_memory_ptr,t_uint256)": {
						"encoding": "mapping",
						"key": "t_string_memory_ptr",
						"label": "mapping(string => uint256)",
						"numberOfBytes": "32",
						"value": "t_uint256"
					},
					"t_string_memory_ptr": {
						"encoding": "bytes",
						"label": "string",
						"numberOfBytes": "32"
					},
					"t_string_storage": {
						"encoding": "bytes",
						"label": "string",
						"numberOfBytes": "32"
					},
					"t_struct(Person)35_storage": {
						"encoding": "inplace",
						"label": "struct SimpleStorage.Person",
						"members": [
							{
								"astId": 32,
								"contract": "ExtendSimpleStorage.sol:ExtendSimpleStorage",
								"label": "name",
								"offset": 0,
								"slot": "0",
								"type": "t_string_storage"
							},
							{
								"astId": 34,
								"contract": "ExtendSimpleStorage.sol:ExtendSimpleStorage",
								"label": "age",
								"offset": 0,
								"slot": "1",
								"type": "t_uint256"
							}
						],
						"numberOfBytes": "64"
					},
					"t_uint256": {
						"encoding": "inplace",
						"label": "uint256",
						"numberOfBytes": "32"
					}
				}
			},
			"userdoc": {
				"kind": "user",
				"methods": {},
				"version": 1
			}
		}
	}
}