{
	"data": {
		"bytecode": {
			"linkReferences": {},
			"object": "6080604052348015600e575f5ffd5b506040516104e73803806104e78339818101604052810190602e91906085565b8282828282815f819055508060018190555050508060028190555050505050505060cc565b5f5ffd5b5f819050919050565b6067816057565b81146070575f5ffd5b50565b5f81519050607f816060565b92915050565b5f5f5f6060848603121560995760986053565b5b5f60a4868287016073565b935050602060b3868287016073565b925050604060c2868287016073565b9150509250925092565b61040e806100d95f395ff3fe608060405234801561000f575f5ffd5b5060043610610086575f3560e01c80637e397536116100595780637e3975361461010257806386e73dc314610132578063a596d3c81461014e578063f5895a0a1461015857610086565b80631a644d111461008a5780633f83ea3b146100a857806350dca6ab146100c65780635cdee0c0146100e4575b5f5ffd5b610092610176565b60405161009f9190610337565b60405180910390f35b6100b06101cc565b6040516100bd9190610366565b60405180910390f35b6100ce6101d1565b6040516100db9190610366565b60405180910390f35b6100ec6101d7565b6040516100f99190610366565b60405180910390f35b61011c600480360381019061011791906103ad565b6101e0565b6040516101299190610366565b60405180910390f35b61014c600480360381019061014791906103ad565b610200565b005b610156610229565b005b610160610238565b60405161016d9190610366565b60405180910390f35b606060038054806020026020016040519081016040528092919081815260200182805480156101c257602002820191905f5260205f20905b8154815260200190600101908083116101ae575b5050505050905090565b5f5481565b60025481565b5f600254905090565b600381815481106101ef575f80fd5b905f5260205f20015f915090505481565b600381908060018154018082558091505060019003905f5260205f20015f909190919091505550565b60035f610236919061023e565b565b60015481565b5080545f8255905f5260205f2090810190610259919061025c565b50565b5b80821115610273575f815f90555060010161025d565b5090565b5f81519050919050565b5f82825260208201905092915050565b5f819050602082019050919050565b5f819050919050565b6102b2816102a0565b82525050565b5f6102c383836102a9565b60208301905092915050565b5f602082019050919050565b5f6102e582610277565b6102ef8185610281565b93506102fa83610291565b805f5b8381101561032a57815161031188826102b8565b975061031c836102cf565b9250506001810190506102fd565b5085935050505092915050565b5f6020820190508181035f83015261034f81846102db565b905092915050565b610360816102a0565b82525050565b5f6020820190506103795f830184610357565b92915050565b5f5ffd5b61038c816102a0565b8114610396575f5ffd5b50565b5f813590506103a781610383565b92915050565b5f602082840312156103c2576103c161037f565b5b5f6103cf84828501610399565b9150509291505056fea26469706673582212202e1e3b244e0b36c6c6b9fbea5f5c8d5b8ff7b15c6b1f77adf101532c3c5d897d64736f6c634300081e0033",
			"opcodes": "PUSH1 0x80 PUSH1 0x40 MSTORE CALLVALUE DUP1 ISZERO PUSH1 0xE JUMPI PUSH0 PUSH0 REVERT JUMPDEST POP PUSH1 0x40 MLOAD PUSH2 0x4E7 CODESIZE SUB DUP1 PUSH2 0x4E7 DUP4 CODECOPY DUP2 DUP2 ADD PUSH1 0x40 MSTORE DUP2 ADD SWAP1 PUSH1 0x2E SWAP2 SWAP1 PUSH1 0x85 JUMP JUMPDEST DUP3 DUP3 DUP3 DUP3 DUP3 DUP2 PUSH0 DUP2 SWAP1 SSTORE POP DUP1 PUSH1 0x1 DUP2 SWAP1 SSTORE POP POP POP DUP1 PUSH1 0x2 DUP2 SWAP1 SSTORE POP POP POP POP POP POP POP PUSH1 0xCC JUMP JUMPDEST PUSH0 PUSH0 REVERT JUMPDEST PUSH0 DUP2 SWAP1 POP SWAP2 SWAP1 POP JUMP JUMPDEST PUSH1 0x67 DUP2 PUSH1 0x57 JUMP JUMPDEST DUP2 EQ PUSH1 0x70 JUMPI PUSH0 PUSH0 REVERT JUMPDEST POP JUMP JUMPDEST PUSH0 DUP2 MLOAD SWAP1 POP PUSH1 0x7F DUP2 PUSH1 0x60 JUMP JUMPDEST SWAP3 SWAP2 POP POP JUMP JUMPDEST PUSH0 PUSH0 PUSH0 PUSH1 0x60 DUP5 DUP7 SUB SLT ISZERO PUSH1 0x99 JUMPI PUSH1 0x98 PUSH1 0x53 JUMP JUMPDEST JUMPDEST PUSH0 PUSH1 0xA4 DUP7 DUP3 DUP8 ADD PUSH1 0x73 JUMP JUMPDEST SWAP4 POP POP PUSH1 0x20 PUSH1 0xB3 DUP7 DUP3 DUP8 ADD PUSH1 0x73 JUMP JUMPDEST SWAP3 POP POP PUSH1 0x40 PUSH1 0xC2 DUP7 DUP3 DUP8 ADD PUSH1 0x73 JUMP JUMPDEST SWAP2 POP POP SWAP3 POP SWAP3 POP SWAP3 JUMP JUMPDEST PUSH2 0x40E DUP1 PUSH2 0xD9 PUSH0 CODECOPY PUSH0 RETURN INVALID PUSH1 0x80 PUSH1 0x40 MSTORE CALLVALUE DUP1 ISZERO PUSH2 0xF JUMPI PUSH0 PUSH0 REVERT JUMPDEST POP PUSH1 0x4 CALLDATASIZE LT PUSH2 0x86 JUMPI PUSH0 CALLDATALOAD PUSH1 0xE0 SHR DUP1 PUSH4 0x7E397536 GT PUSH2 0x59 JUMPI DUP1 PUSH4 0x7E397536 EQ PUSH2 0x102 JUMPI DUP1 PUSH4 0x86E73DC3 EQ PUSH2 0x132 JUMPI DUP1 PUSH4 0xA596D3C8 EQ PUSH2 0x14E JUMPI DUP1 PUSH4 0xF5895A0A EQ PUSH2 0x158 JUMPI PUSH2 0x86 JUMP JUMPDEST DUP1 PUSH4 0x1A644D11 EQ PUSH2 0x8A JUMPI DUP1 PUSH4 0x3F83EA3B EQ PUSH2 0xA8 JUMPI DUP1 PUSH4 0x50DCA6AB EQ PUSH2 0xC6 JUMPI DUP1 PUSH4 0x5CDEE0C0 EQ PUSH2 0xE4 JUMPI JUMPDEST PUSH0 PUSH0 REVERT JUMPDEST PUSH2 0x92 PUSH2 0x176 JUMP JUMPDEST PUSH1 0x40 MLOAD PUSH2 0x9F SWAP2 SWAP1 PUSH2 0x337 JUMP JUMPDEST PUSH1 0x40 MLOAD DUP1 SWAP2 SUB SWAP1 RETURN JUMPDEST PUSH2 0xB0 PUSH2 0x1CC JUMP JUMPDEST PUSH1 0x40 MLOAD PUSH2 0xBD SWAP2 SWAP1 PUSH2 0x366 JUMP JUMPDEST PUSH1 0x40 MLOAD DUP1 SWAP2 SUB SWAP1 RETURN JUMPDEST PUSH2 0xCE PUSH2 0x1D1 JUMP JUMPDEST PUSH1 0x40 MLOAD PUSH2 0xDB SWAP2 SWAP1 PUSH2 0x366 JUMP JUMPDEST PUSH1 0x40 MLOAD DUP1 SWAP2 SUB SWAP1 RETURN JUMPDEST PUSH2 0xEC PUSH2 0x1D7 JUMP JUMPDEST PUSH1 0x40 MLOAD PUSH2 0xF9 SWAP2 SWAP1 PUSH2 0x366 JUMP JUMPDEST PUSH1 0x40 MLOAD DUP1 SWAP2 SUB SWAP1 RETURN JUMPDEST PUSH2 0x11C PUSH1 0x4 DUP1 CALLDATASIZE SUB DUP2 ADD SWAP1 PUSH2 0x117 SWAP2 SWAP1 PUSH2 0x3AD JUMP JUMPDEST PUSH2 0x1E0 JUMP JUMPDEST PUSH1 0x40 MLOAD PUSH2 0x129 SWAP2 SWAP1 PUSH2 0x366 JUMP JUMPDEST PUSH1 0x40 MLOAD DUP1 SWAP2 SUB SWAP1 RETURN JUMPDEST PUSH2 0x14C PUSH1 0x4 DUP1 CALLDATASIZE SUB DUP2 ADD SWAP1 PUSH2 0x147 SWAP2 SWAP1 PUSH2 0x3AD JUMP JUMPDEST PUSH2 0x200 JUMP JUMPDEST STOP JUMPDEST PUSH2 0x156 PUSH2 0x229 JUMP JUMPDEST STOP JUMPDEST PUSH2 0x160 PUSH2 0x238 JUMP JUMPDEST PUSH1 0x40 MLOAD PUSH2 0x16D SWAP2 SWAP1 PUSH2 0x366 JUMP JUMPDEST PUSH1 0x40 MLOAD DUP1 SWAP2 SUB SWAP1 RETURN JUMPDEST PUSH1 0x60 PUSH1 0x3 DUP1 SLOAD DUP1 PUSH1 0x20 MUL PUSH1 0x20 ADD PUSH1 0x40 MLOAD SWAP1 DUP2 ADD PUSH1 0x40 MSTORE DUP1 SWAP3 SWAP2 SWAP1 DUP2 DUP2 MSTORE PUSH1 0x20 ADD DUP3 DUP1 SLOAD DUP1 ISZERO PUSH2 0x1C2 JUMPI PUSH1 0x20 MUL DUP3 ADD SWAP2 SWAP1 PUSH0 MSTORE PUSH1 0x20 PUSH0 KECCAK256 SWAP1 JUMPDEST DUP2 SLOAD DUP2 MSTORE PUSH1 0x20 ADD SWAP1 PUSH1 0x1 ADD SWAP1 DUP1 DUP4 GT PUSH2 0x1AE JUMPI JUMPDEST POP POP POP POP POP SWAP1 POP SWAP1 JUMP JUMPDEST PUSH0 SLOAD DUP2 JUMP JUMPDEST PUSH1 0x2 SLOAD DUP2 JUMP JUMPDEST PUSH0 PUSH1 0x2 SLOAD SWAP1 POP SWAP1 JUMP JUMPDEST PUSH1 0x3 DUP2 DUP2 SLOAD DUP2 LT PUSH2 0x1EF JUMPI PUSH0 DUP1 REVERT JUMPDEST SWAP1 PUSH0 MSTORE PUSH1 0x20 PUSH0 KECCAK256 ADD PUSH0 SWAP2 POP SWAP1 POP SLOAD DUP2 JUMP JUMPDEST PUSH1 0x3 DUP2 SWAP1 DUP1 PUSH1 0x1 DUP2 SLOAD ADD DUP1 DUP3 SSTORE DUP1 SWAP2 POP POP PUSH1 0x1 SWAP1 SUB SWAP1 PUSH0 MSTORE PUSH1 0x20 PUSH0 KECCAK256 ADD PUSH0 SWAP1 SWAP2 SWAP1 SWAP2 SWAP1 SWAP2 POP SSTORE POP JUMP JUMPDEST PUSH1 0x3 PUSH0 PUSH2 0x236 SWAP2 SWAP1 PUSH2 0x23E JUMP JUMPDEST JUMP JUMPDEST PUSH1 0x1 SLOAD DUP2 JUMP JUMPDEST POP DUP1 SLOAD PUSH0 DUP3 SSTORE SWAP1 PUSH0 MSTORE PUSH1 0x20 PUSH0 KECCAK256 SWAP1 DUP2 ADD SWAP1 PUSH2 0x259 SWAP2 SWAP1 PUSH2 0x25C JUMP JUMPDEST POP JUMP JUMPDEST JUMPDEST DUP1 DUP3 GT ISZERO PUSH2 0x273 JUMPI PUSH0 DUP2 PUSH0 SWAP1 SSTORE POP PUSH1 0x1 ADD PUSH2 0x25D JUMP JUMPDEST POP SWAP1 JUMP JUMPDEST PUSH0 DUP2 MLOAD SWAP1 POP SWAP2 SWAP1 POP JUMP JUMPDEST PUSH0 DUP3 DUP3 MSTORE PUSH1 0x20 DUP3 ADD SWAP1 POP SWAP3 SWAP2 POP POP JUMP JUMPDEST PUSH0 DUP2 SWAP1 POP PUSH1 0x20 DUP3 ADD SWAP1 POP SWAP2 SWAP1 POP JUMP JUMPDEST PUSH0 DUP2 SWAP1 POP SWAP2 SWAP1 POP JUMP JUMPDEST PUSH2 0x2B2 DUP2 PUSH2 0x2A0 JUMP JUMPDEST DUP3 MSTORE POP POP JUMP JUMPDEST PUSH0 PUSH2 0x2C3 DUP4 DUP4 PUSH2 0x2A9 JUMP JUMPDEST PUSH1 0x20 DUP4 ADD SWAP1 POP SWAP3 SWAP2 POP POP JUMP JUMPDEST PUSH0 PUSH1 0x20 DUP3 ADD SWAP1 POP SWAP2 SWAP1 POP JUMP JUMPDEST PUSH0 PUSH2 0x2E5 DUP3 PUSH2 0x277 JUMP JUMPDEST PUSH2 0x2EF DUP2 DUP6 PUSH2 0x281 JUMP JUMPDEST SWAP4 POP PUSH2 0x2FA DUP4 PUSH2 0x291 JUMP JUMPDEST DUP1 PUSH0 JUMPDEST DUP4 DUP2 LT ISZERO PUSH2 0x32A JUMPI DUP2 MLOAD PUSH2 0x311 DUP9 DUP3 PUSH2 0x2B8 JUMP JUMPDEST SWAP8 POP PUSH2 0x31C DUP4 PUSH2 0x2CF JUMP JUMPDEST SWAP3 POP POP PUSH1 0x1 DUP2 ADD SWAP1 POP PUSH2 0x2FD JUMP JUMPDEST POP DUP6 SWAP4 POP POP POP POP SWAP3 SWAP2 POP POP JUMP JUMPDEST PUSH0 PUSH1 0x20 DUP3 ADD SWAP1 POP DUP2 DUP2 SUB PUSH0 DUP4 ADD MSTORE PUSH2 0x34F DUP2 DUP5 PUSH2 0x2DB JUMP JUMPDEST SWAP1 POP SWAP3 SWAP2 POP POP JUMP JUMPDEST PUSH2 0x360 DUP2 PUSH2 0x2A0 JUMP JUMPDEST DUP3 MSTORE POP POP JUMP JUMPDEST PUSH0 PUSH1 0x20 DUP3 ADD SWAP1 POP PUSH2 0x379 PUSH0 DUP4 ADD DUP5 PUSH2 0x357 JUMP JUMPDEST SWAP3 SWAP2 POP POP JUMP JUMPDEST PUSH0 PUSH0 REVERT JUMPDEST PUSH2 0x38C DUP2 PUSH2 0x2A0 JUMP JUMPDEST DUP2 EQ PUSH2 0x396 JUMPI PUSH0 PUSH0 REVERT JUMPDEST POP JUMP JUMPDEST PUSH0 DUP2 CALLDATALOAD SWAP1 POP PUSH2 0x3A7 DUP2 PUSH2 0x383 JUMP JUMPDEST SWAP3 SWAP2 POP POP JUMP JUMPDEST PUSH0 PUSH1 0x20 DUP3 DUP5 SUB SLT ISZERO PUSH2 0x3C2 JUMPI PUSH2 0x3C1 PUSH2 0x37F JUMP JUMPDEST JUMPDEST PUSH0 PUSH2 0x3CF DUP5 DUP3 DUP6 ADD PUSH2 0x399 JUMP JUMPDEST SWAP2 POP POP SWAP3 SWAP2 POP POP JUMP INVALID LOG2 PUSH5 0x6970667358 0x22 SLT KECCAK256 0x2E 0x1E EXTCODESIZE 0x24 0x4E SIGNEXTEND CALLDATASIZE 0xC6 0xC6 0xB9 EXTSTATICCALL 0xEA PUSH0 TLOAD DUP14 JUMPDEST DUP16 0xF7 0xB1 TLOAD PUSH12 0x1F77ADF101532C3C5D897D64 PUSH20 0x6F6C634300081E00330000000000000000000000 "
		},
		"gasEstimates": {
			"creation": {
				"codeDepositCost": "207600",
				"executionCost": "infinite",
				"totalCost": "infinite"
			},
			"external": {
				"addReport(uint256)": "46843",
				"annualSalary()": "2470",
				"employeeIds(uint256)": "infinite",
				"getAnnualCost()": "2499",
				"getEmployeeIds()": "infinite",
				"idNumber()": "2447",
				"managerId()": "2491",
				"resetReports()": "infinite"
			}
		},
		"methodIdentifiers": {
			"addReport(uint256)": "86e73dc3",
			"annualSalary()": "50dca6ab",
			"employeeIds(uint256)": "7e397536",
			"getAnnualCost()": "5cdee0c0",
			"getEmployeeIds()": "1a644d11",
			"idNumber()": "3f83ea3b",
			"managerId()": "f5895a0a",
			"resetReports()": "a596d3c8"
		}
	},
	"abi": [
		{
			"inputs": [
				{
					"internalType": "uint256",
					"name": "_idNumber",
					"type": "uint256"
				},
				{
					"internalType": "uint256",
					"name": "_managerId",
					"type": "uint256"
				},
				{
					"internalType": "uint256",
					"name": "_annualSalary",
					"type": "uint256"
				}
			],
			"stateMutability": "nonpayable",
			"type": "constructor"
		},
		{
			"inputs": [
				{
					"internalType": "uint256",
					"name": "_employeeId",
					"type": "uint256"
				}
			],
			"name": "addReport",
			"outputs": [],
			"stateMutability": "nonpayable",
			"type": "function"
		},
		{
			"inputs": [],
			"name": "annualSalary",
			"outputs": [
				{
					"internalType": "uint256",
					"name": "",
					"type": "uint256"
				}
			],
			"stateMutability": "view",
			"type": "function"
		},
		{
			"inputs": [
				{
					"internalType": "uint256",
					"name": "",
					"type": "uint256"
				}
			],
			"name": "employeeIds",
			"outputs": [
				{
					"internalType": "uint256",
					"name": "",
					"type": "uint256"
				}
			],
			"stateMutability": "view",
			"type": "function"
		},
		{
			"inputs": [],
			"name": "getAnnualCost",
			"outputs": [
				{
					"internalType": "uint256",
					"name": "",
					"type": "uint256"
				}
			],
			"stateMutability": "view",
			"type": "function"
		},
		{
			"inputs": [],
			"name": "getEmployeeIds",
			"outputs": [
				{
					"internalType": "uint256[]",
					"name": "",
					"type": "uint256[]"
				}
			],
			"stateMutability": "view",
			"type": "function"
		},
		{
			"inputs": [],
			"name": "idNumber",
			"outputs": [
				{
					"internalType": "uint256",
					"name": "",
					"type": "uint256"
				}
			],
			"stateMutability": "view",
			"type": "function"
		},
		{
			"inputs": [],
			"name": "managerId",
			"outputs": [
				{
					"internalType": "uint256",
					"name": "",
					"type": "uint256"
				}
			],
			"stateMutability": "view",
			"type": "function"
		},
		{
			"inputs": [],
			"name": "resetReports",
			"outputs": [],
			"stateMutability": "nonpayable",
			"type": "function"
		}
	]
}