{
	"data": {
		"bytecode": {
			"linkReferences": {},
			"object": "6080604052348015600e575f5ffd5b50610d7a8061001c5f395ff3fe608060405234801561000f575f5ffd5b506004361061004a575f3560e01c806325eb69a91461004e578063583dc7691461006c578063728d3c07146100885780638346cbef146100a8575b5f5ffd5b6100566100c6565b6040516100639190610757565b60405180910390f35b610086600480360381019061008191906108b4565b61028e565b005b6100906102c8565b60405161009f939291906109a0565b60405180910390f35b6100b0610470565b6040516100bd9190610757565b60405180910390f35b6100ce61066b565b5f6040518060600160405290815f820180546100e990610a17565b80601f016020809104026020016040519081016040528092919081815260200182805461011590610a17565b80156101605780601f1061013757610100808354040283529160200191610160565b820191905f5260205f20905b81548152906001019060200180831161014357829003601f168201915b5050505050815260200160018201805461017990610a17565b80601f01602080910402602001604051908101604052809291908181526020018280546101a590610a17565b80156101f05780601f106101c7576101008083540402835291602001916101f0565b820191905f5260205f20905b8154815290600101906020018083116101d357829003601f168201915b5050505050815260200160028201805461020990610a17565b80601f016020809104026020016040519081016040528092919081815260200182805461023590610a17565b80156102805780601f1061025757610100808354040283529160200191610280565b820191905f5260205f20905b81548152906001019060200180831161026357829003601f168201915b505050505081525050905090565b825f5f01908161029e9190610bf0565b50815f60010190816102b09190610bf0565b50805f60020190816102c29190610bf0565b50505050565b5f805f0180546102d790610a17565b80601f016020809104026020016040519081016040528092919081815260200182805461030390610a17565b801561034e5780601f106103255761010080835404028352916020019161034e565b820191905f5260205f20905b81548152906001019060200180831161033157829003601f168201915b50505050509080600101805461036390610a17565b80601f016020809104026020016040519081016040528092919081815260200182805461038f90610a17565b80156103da5780601f106103b1576101008083540402835291602001916103da565b820191905f5260205f20905b8154815290600101906020018083116103bd57829003601f168201915b5050505050908060020180546103ef90610a17565b80601f016020809104026020016040519081016040528092919081815260200182805461041b90610a17565b80156104665780601f1061043d57610100808354040283529160200191610466565b820191905f5260205f20905b81548152906001019060200180831161044957829003601f168201915b5050505050905083565b61047861066b565b5f60405180606001604052805f5f01805461049290610a17565b80601f01602080910402602001604051908101604052809291908181526020018280546104be90610a17565b80156105095780601f106104e057610100808354040283529160200191610509565b820191905f5260205f20905b8154815290600101906020018083116104ec57829003601f168201915b505050505081526020015f600101805461052290610a17565b80601f016020809104026020016040519081016040528092919081815260200182805461054e90610a17565b80156105995780601f1061057057610100808354040283529160200191610599565b820191905f5260205f20905b81548152906001019060200180831161057c57829003601f168201915b505050505081526020016106365f60020180546105b590610a17565b80601f01602080910402602001604051908101604052809291908181526020018280546105e190610a17565b801561062c5780601f106106035761010080835404028352916020019161062c565b820191905f5260205f20905b81548152906001019060200180831161060f57829003601f168201915b5050505050610642565b81525090508091505090565b6060816040516020016106559190610d1f565b6040516020818303038152906040529050919050565b60405180606001604052806060815260200160608152602001606081525090565b5f81519050919050565b5f82825260208201905092915050565b8281835e5f83830152505050565b5f601f19601f8301169050919050565b5f6106ce8261068c565b6106d88185610696565b93506106e88185602086016106a6565b6106f1816106b4565b840191505092915050565b5f606083015f8301518482035f86015261071682826106c4565b9150506020830151848203602086015261073082826106c4565b9150506040830151848203604086015261074a82826106c4565b9150508091505092915050565b5f6020820190508181035f83015261076f81846106fc565b905092915050565b5f604051905090565b5f5ffd5b5f5ffd5b5f5ffd5b5f5ffd5b7f4e487b71000000000000000000000000000000000000000000000000000000005f52604160045260245ffd5b6107c6826106b4565b810181811067ffffffffffffffff821117156107e5576107e4610790565b5b80604052505050565b5f6107f7610777565b905061080382826107bd565b919050565b5f67ffffffffffffffff82111561082257610821610790565b5b61082b826106b4565b9050602081019050919050565b828183375f83830152505050565b5f61085861085384610808565b6107ee565b9050828152602081018484840111156108745761087361078c565b5b61087f848285610838565b509392505050565b5f82601f83011261089b5761089a610788565b5b81356108ab848260208601610846565b91505092915050565b5f5f5f606084860312156108cb576108ca610780565b5b5f84013567ffffffffffffffff8111156108e8576108e7610784565b5b6108f486828701610887565b935050602084013567ffffffffffffffff81111561091557610914610784565b5b61092186828701610887565b925050604084013567ffffffffffffffff81111561094257610941610784565b5b61094e86828701610887565b9150509250925092565b5f82825260208201905092915050565b5f6109728261068c565b61097c8185610958565b935061098c8185602086016106a6565b610995816106b4565b840191505092915050565b5f6060820190508181035f8301526109b88186610968565b905081810360208301526109cc8185610968565b905081810360408301526109e08184610968565b9050949350505050565b7f4e487b71000000000000000000000000000000000000000000000000000000005f52602260045260245ffd5b5f6002820490506001821680610a2e57607f821691505b602082108103610a4157610a406109ea565b5b50919050565b5f819050815f5260205f209050919050565b5f6020601f8301049050919050565b5f82821b905092915050565b5f60088302610aa37fffffffffffffffffffffffffffffffffffffffffffffffffffffffffffffffff82610a68565b610aad8683610a68565b95508019841693508086168417925050509392505050565b5f819050919050565b5f819050919050565b5f610af1610aec610ae784610ac5565b610ace565b610ac5565b9050919050565b5f819050919050565b610b0a83610ad7565b610b1e610b1682610af8565b848454610a74565b825550505050565b5f5f905090565b610b35610b26565b610b40818484610b01565b505050565b5b81811015610b6357610b585f82610b2d565b600181019050610b46565b5050565b601f821115610ba857610b7981610a47565b610b8284610a59565b81016020851015610b91578190505b610ba5610b9d85610a59565b830182610b45565b50505b505050565b5f82821c905092915050565b5f610bc85f1984600802610bad565b1980831691505092915050565b5f610be08383610bb9565b9150826002028217905092915050565b610bf98261068c565b67ffffffffffffffff811115610c1257610c11610790565b5b610c1c8254610a17565b610c27828285610b67565b5f60209050601f831160018114610c58575f8415610c46578287015190505b610c508582610bd5565b865550610cb7565b601f198416610c6686610a47565b5f5b82811015610c8d57848901518255600182019150602085019450602081019050610c68565b86831015610caa5784890151610ca6601f891682610bb9565b8355505b6001600288020188555050505b505050505050565b5f81905092915050565b5f610cd38261068c565b610cdd8185610cbf565b9350610ced8185602086016106a6565b80840191505092915050565b7f20f09fa4b7000000000000000000000000000000000000000000000000000000815250565b5f610d2a8284610cc9565b9150610d3582610cf9565b6005820191508190509291505056fea26469706673582212203877f58c223dde408ab3692d898d7202f1a1d2b6abc638abaef02589d2722de464736f6c634300081e0033",
			"opcodes": "PUSH1 0x80 PUSH1 0x40 MSTORE CALLVALUE DUP1 ISZERO PUSH1 0xE JUMPI PUSH0 PUSH0 REVERT JUMPDEST POP PUSH2 0xD7A DUP1 PUSH2 0x1C PUSH0 CODECOPY PUSH0 RETURN INVALID PUSH1 0x80 PUSH1 0x40 MSTORE CALLVALUE DUP1 ISZERO PUSH2 0xF JUMPI PUSH0 PUSH0 REVERT JUMPDEST POP PUSH1 0x4 CALLDATASIZE LT PUSH2 0x4A JUMPI PUSH0 CALLDATALOAD PUSH1 0xE0 SHR DUP1 PUSH4 0x25EB69A9 EQ PUSH2 0x4E JUMPI DUP1 PUSH4 0x583DC769 EQ PUSH2 0x6C JUMPI DUP1 PUSH4 0x728D3C07 EQ PUSH2 0x88 JUMPI DUP1 PUSH4 0x8346CBEF EQ PUSH2 0xA8 JUMPI JUMPDEST PUSH0 PUSH0 REVERT JUMPDEST PUSH2 0x56 PUSH2 0xC6 JUMP JUMPDEST PUSH1 0x40 MLOAD PUSH2 0x63 SWAP2 SWAP1 PUSH2 0x757 JUMP JUMPDEST PUSH1 0x40 MLOAD DUP1 SWAP2 SUB SWAP1 RETURN JUMPDEST PUSH2 0x86 PUSH1 0x4 DUP1 CALLDATASIZE SUB DUP2 ADD SWAP1 PUSH2 0x81 SWAP2 SWAP1 PUSH2 0x8B4 JUMP JUMPDEST PUSH2 0x28E JUMP JUMPDEST STOP JUMPDEST PUSH2 0x90 PUSH2 0x2C8 JUMP JUMPDEST PUSH1 0x40 MLOAD PUSH2 0x9F SWAP4 SWAP3 SWAP2 SWAP1 PUSH2 0x9A0 JUMP JUMPDEST PUSH1 0x40 MLOAD DUP1 SWAP2 SUB SWAP1 RETURN JUMPDEST PUSH2 0xB0 PUSH2 0x470 JUMP JUMPDEST PUSH1 0x40 MLOAD PUSH2 0xBD SWAP2 SWAP1 PUSH2 0x757 JUMP JUMPDEST PUSH1 0x40 MLOAD DUP1 SWAP2 SUB SWAP1 RETURN JUMPDEST PUSH2 0xCE PUSH2 0x66B JUMP JUMPDEST PUSH0 PUSH1 0x40 MLOAD DUP1 PUSH1 0x60 ADD PUSH1 0x40 MSTORE SWAP1 DUP2 PUSH0 DUP3 ADD DUP1 SLOAD PUSH2 0xE9 SWAP1 PUSH2 0xA17 JUMP JUMPDEST DUP1 PUSH1 0x1F ADD PUSH1 0x20 DUP1 SWAP2 DIV MUL PUSH1 0x20 ADD PUSH1 0x40 MLOAD SWAP1 DUP2 ADD PUSH1 0x40 MSTORE DUP1 SWAP3 SWAP2 SWAP1 DUP2 DUP2 MSTORE PUSH1 0x20 ADD DUP3 DUP1 SLOAD PUSH2 0x115 SWAP1 PUSH2 0xA17 JUMP JUMPDEST DUP1 ISZERO PUSH2 0x160 JUMPI DUP1 PUSH1 0x1F LT PUSH2 0x137 JUMPI PUSH2 0x100 DUP1 DUP4 SLOAD DIV MUL DUP4 MSTORE SWAP2 PUSH1 0x20 ADD SWAP2 PUSH2 0x160 JUMP JUMPDEST DUP3 ADD SWAP2 SWAP1 PUSH0 MSTORE PUSH1 0x20 PUSH0 KECCAK256 SWAP1 JUMPDEST DUP2 SLOAD DUP2 MSTORE SWAP1 PUSH1 0x1 ADD SWAP1 PUSH1 0x20 ADD DUP1 DUP4 GT PUSH2 0x143 JUMPI DUP3 SWAP1 SUB PUSH1 0x1F AND DUP3 ADD SWAP2 JUMPDEST POP POP POP POP POP DUP2 MSTORE PUSH1 0x20 ADD PUSH1 0x1 DUP3 ADD DUP1 SLOAD PUSH2 0x179 SWAP1 PUSH2 0xA17 JUMP JUMPDEST DUP1 PUSH1 0x1F ADD PUSH1 0x20 DUP1 SWAP2 DIV MUL PUSH1 0x20 ADD PUSH1 0x40 MLOAD SWAP1 DUP2 ADD PUSH1 0x40 MSTORE DUP1 SWAP3 SWAP2 SWAP1 DUP2 DUP2 MSTORE PUSH1 0x20 ADD DUP3 DUP1 SLOAD PUSH2 0x1A5 SWAP1 PUSH2 0xA17 JUMP JUMPDEST DUP1 ISZERO PUSH2 0x1F0 JUMPI DUP1 PUSH1 0x1F LT PUSH2 0x1C7 JUMPI PUSH2 0x100 DUP1 DUP4 SLOAD DIV MUL DUP4 MSTORE SWAP2 PUSH1 0x20 ADD SWAP2 PUSH2 0x1F0 JUMP JUMPDEST DUP3 ADD SWAP2 SWAP1 PUSH0 MSTORE PUSH1 0x20 PUSH0 KECCAK256 SWAP1 JUMPDEST DUP2 SLOAD DUP2 MSTORE SWAP1 PUSH1 0x1 ADD SWAP1 PUSH1 0x20 ADD DUP1 DUP4 GT PUSH2 0x1D3 JUMPI DUP3 SWAP1 SUB PUSH1 0x1F AND DUP3 ADD SWAP2 JUMPDEST POP POP POP POP POP DUP2 MSTORE PUSH1 0x20 ADD PUSH1 0x2 DUP3 ADD DUP1 SLOAD PUSH2 0x209 SWAP1 PUSH2 0xA17 JUMP JUMPDEST DUP1 PUSH1 0x1F ADD PUSH1 0x20 DUP1 SWAP2 DIV MUL PUSH1 0x20 ADD PUSH1 0x40 MLOAD SWAP1 DUP2 ADD PUSH1 0x40 MSTORE DUP1 SWAP3 SWAP2 SWAP1 DUP2 DUP2 MSTORE PUSH1 0x20 ADD DUP3 DUP1 SLOAD PUSH2 0x235 SWAP1 PUSH2 0xA17 JUMP JUMPDEST DUP1 ISZERO PUSH2 0x280 JUMPI DUP1 PUSH1 0x1F LT PUSH2 0x257 JUMPI PUSH2 0x100 DUP1 DUP4 SLOAD DIV MUL DUP4 MSTORE SWAP2 PUSH1 0x20 ADD SWAP2 PUSH2 0x280 JUMP JUMPDEST DUP3 ADD SWAP2 SWAP1 PUSH0 MSTORE PUSH1 0x20 PUSH0 KECCAK256 SWAP1 JUMPDEST DUP2 SLOAD DUP2 MSTORE SWAP1 PUSH1 0x1 ADD SWAP1 PUSH1 0x20 ADD DUP1 DUP4 GT PUSH2 0x263 JUMPI DUP3 SWAP1 SUB PUSH1 0x1F AND DUP3 ADD SWAP2 JUMPDEST POP POP POP POP POP DUP2 MSTORE POP POP SWAP1 POP SWAP1 JUMP JUMPDEST DUP3 PUSH0 PUSH0 ADD SWAP1 DUP2 PUSH2 0x29E SWAP2 SWAP1 PUSH2 0xBF0 JUMP JUMPDEST POP DUP2 PUSH0 PUSH1 0x1 ADD SWAP1 DUP2 PUSH2 0x2B0 SWAP2 SWAP1 PUSH2 0xBF0 JUMP JUMPDEST POP DUP1 PUSH0 PUSH1 0x2 ADD SWAP1 DUP2 PUSH2 0x2C2 SWAP2 SWAP1 PUSH2 0xBF0 JUMP JUMPDEST POP POP POP POP JUMP JUMPDEST PUSH0 DUP1 PUSH0 ADD DUP1 SLOAD PUSH2 0x2D7 SWAP1 PUSH2 0xA17 JUMP JUMPDEST DUP1 PUSH1 0x1F ADD PUSH1 0x20 DUP1 SWAP2 DIV MUL PUSH1 0x20 ADD PUSH1 0x40 MLOAD SWAP1 DUP2 ADD PUSH1 0x40 MSTORE DUP1 SWAP3 SWAP2 SWAP1 DUP2 DUP2 MSTORE PUSH1 0x20 ADD DUP3 DUP1 SLOAD PUSH2 0x303 SWAP1 PUSH2 0xA17 JUMP JUMPDEST DUP1 ISZERO PUSH2 0x34E JUMPI DUP1 PUSH1 0x1F LT PUSH2 0x325 JUMPI PUSH2 0x100 DUP1 DUP4 SLOAD DIV MUL DUP4 MSTORE SWAP2 PUSH1 0x20 ADD SWAP2 PUSH2 0x34E JUMP JUMPDEST DUP3 ADD SWAP2 SWAP1 PUSH0 MSTORE PUSH1 0x20 PUSH0 KECCAK256 SWAP1 JUMPDEST DUP2 SLOAD DUP2 MSTORE SWAP1 PUSH1 0x1 ADD SWAP1 PUSH1 0x20 ADD DUP1 DUP4 GT PUSH2 0x331 JUMPI DUP3 SWAP1 SUB PUSH1 0x1F AND DUP3 ADD SWAP2 JUMPDEST POP POP POP POP POP SWAP1 DUP1 PUSH1 0x1 ADD DUP1 SLOAD PUSH2 0x363 SWAP1 PUSH2 0xA17 JUMP JUMPDEST DUP1 PUSH1 0x1F ADD PUSH1 0x20 DUP1 SWAP2 DIV MUL PUSH1 0x20 ADD PUSH1 0x40 MLOAD SWAP1 DUP2 ADD PUSH1 0x40 MSTORE DUP1 SWAP3 SWAP2 SWAP1 DUP2 DUP2 MSTORE PUSH1 0x20 ADD DUP3 DUP1 SLOAD PUSH2 0x38F SWAP1 PUSH2 0xA17 JUMP JUMPDEST DUP1 ISZERO PUSH2 0x3DA JUMPI DUP1 PUSH1 0x1F LT PUSH2 0x3B1 JUMPI PUSH2 0x100 DUP1 DUP4 SLOAD DIV MUL DUP4 MSTORE SWAP2 PUSH1 0x20 ADD SWAP2 PUSH2 0x3DA JUMP JUMPDEST DUP3 ADD SWAP2 SWAP1 PUSH0 MSTORE PUSH1 0x20 PUSH0 KECCAK256 SWAP1 JUMPDEST DUP2 SLOAD DUP2 MSTORE SWAP1 PUSH1 0x1 ADD SWAP1 PUSH1 0x20 ADD DUP1 DUP4 GT PUSH2 0x3BD JUMPI DUP3 SWAP1 SUB PUSH1 0x1F AND DUP3 ADD SWAP2 JUMPDEST POP POP POP POP POP SWAP1 DUP1 PUSH1 0x2 ADD DUP1 SLOAD PUSH2 0x3EF SWAP1 PUSH2 0xA17 JUMP JUMPDEST DUP1 PUSH1 0x1F ADD PUSH1 0x20 DUP1 SWAP2 DIV MUL PUSH1 0x20 ADD PUSH1 0x40 MLOAD SWAP1 DUP2 ADD PUSH1 0x40 MSTORE DUP1 SWAP3 SWAP2 SWAP1 DUP2 DUP2 MSTORE PUSH1 0x20 ADD DUP3 DUP1 SLOAD PUSH2 0x41B SWAP1 PUSH2 0xA17 JUMP JUMPDEST DUP1 ISZERO PUSH2 0x466 JUMPI DUP1 PUSH1 0x1F LT PUSH2 0x43D JUMPI PUSH2 0x100 DUP1 DUP4 SLOAD DIV MUL DUP4 MSTORE SWAP2 PUSH1 0x20 ADD SWAP2 PUSH2 0x466 JUMP JUMPDEST DUP3 ADD SWAP2 SWAP1 PUSH0 MSTORE PUSH1 0x20 PUSH0 KECCAK256 SWAP1 JUMPDEST DUP2 SLOAD DUP2 MSTORE SWAP1 PUSH1 0x1 ADD SWAP1 PUSH1 0x20 ADD DUP1 DUP4 GT PUSH2 0x449 JUMPI DUP3 SWAP1 SUB PUSH1 0x1F AND DUP3 ADD SWAP2 JUMPDEST POP POP POP POP POP SWAP1 POP DUP4 JUMP JUMPDEST PUSH2 0x478 PUSH2 0x66B JUMP JUMPDEST PUSH0 PUSH1 0x40 MLOAD DUP1 PUSH1 0x60 ADD PUSH1 0x40 MSTORE DUP1 PUSH0 PUSH0 ADD DUP1 SLOAD PUSH2 0x492 SWAP1 PUSH2 0xA17 JUMP JUMPDEST DUP1 PUSH1 0x1F ADD PUSH1 0x20 DUP1 SWAP2 DIV MUL PUSH1 0x20 ADD PUSH1 0x40 MLOAD SWAP1 DUP2 ADD PUSH1 0x40 MSTORE DUP1 SWAP3 SWAP2 SWAP1 DUP2 DUP2 MSTORE PUSH1 0x20 ADD DUP3 DUP1 SLOAD PUSH2 0x4BE SWAP1 PUSH2 0xA17 JUMP JUMPDEST DUP1 ISZERO PUSH2 0x509 JUMPI DUP1 PUSH1 0x1F LT PUSH2 0x4E0 JUMPI PUSH2 0x100 DUP1 DUP4 SLOAD DIV MUL DUP4 MSTORE SWAP2 PUSH1 0x20 ADD SWAP2 PUSH2 0x509 JUMP JUMPDEST DUP3 ADD SWAP2 SWAP1 PUSH0 MSTORE PUSH1 0x20 PUSH0 KECCAK256 SWAP1 JUMPDEST DUP2 SLOAD DUP2 MSTORE SWAP1 PUSH1 0x1 ADD SWAP1 PUSH1 0x20 ADD DUP1 DUP4 GT PUSH2 0x4EC JUMPI DUP3 SWAP1 SUB PUSH1 0x1F AND DUP3 ADD SWAP2 JUMPDEST POP POP POP POP POP DUP2 MSTORE PUSH1 0x20 ADD PUSH0 PUSH1 0x1 ADD DUP1 SLOAD PUSH2 0x522 SWAP1 PUSH2 0xA17 JUMP JUMPDEST DUP1 PUSH1 0x1F ADD PUSH1 0x20 DUP1 SWAP2 DIV MUL PUSH1 0x20 ADD PUSH1 0x40 MLOAD SWAP1 DUP2 ADD PUSH1 0x40 MSTORE DUP1 SWAP3 SWAP2 SWAP1 DUP2 DUP2 MSTORE PUSH1 0x20 ADD DUP3 DUP1 SLOAD PUSH2 0x54E SWAP1 PUSH2 0xA17 JUMP JUMPDEST DUP1 ISZERO PUSH2 0x599 JUMPI DUP1 PUSH1 0x1F LT PUSH2 0x570 JUMPI PUSH2 0x100 DUP1 DUP4 SLOAD DIV MUL DUP4 MSTORE SWAP2 PUSH1 0x20 ADD SWAP2 PUSH2 0x599 JUMP JUMPDEST DUP3 ADD SWAP2 SWAP1 PUSH0 MSTORE PUSH1 0x20 PUSH0 KECCAK256 SWAP1 JUMPDEST DUP2 SLOAD DUP2 MSTORE SWAP1 PUSH1 0x1 ADD SWAP1 PUSH1 0x20 ADD DUP1 DUP4 GT PUSH2 0x57C JUMPI DUP3 SWAP1 SUB PUSH1 0x1F AND DUP3 ADD SWAP2 JUMPDEST POP POP POP POP POP DUP2 MSTORE PUSH1 0x20 ADD PUSH2 0x636 PUSH0 PUSH1 0x2 ADD DUP1 SLOAD PUSH2 0x5B5 SWAP1 PUSH2 0xA17 JUMP JUMPDEST DUP1 PUSH1 0x1F ADD PUSH1 0x20 DUP1 SWAP2 DIV MUL PUSH1 0x20 ADD PUSH1 0x40 MLOAD SWAP1 DUP2 ADD PUSH1 0x40 MSTORE DUP1 SWAP3 SWAP2 SWAP1 DUP2 DUP2 MSTORE PUSH1 0x20 ADD DUP3 DUP1 SLOAD PUSH2 0x5E1 SWAP1 PUSH2 0xA17 JUMP JUMPDEST DUP1 ISZERO PUSH2 0x62C JUMPI DUP1 PUSH1 0x1F LT PUSH2 0x603 JUMPI PUSH2 0x100 DUP1 DUP4 SLOAD DIV MUL DUP4 MSTORE SWAP2 PUSH1 0x20 ADD SWAP2 PUSH2 0x62C JUMP JUMPDEST DUP3 ADD SWAP2 SWAP1 PUSH0 MSTORE PUSH1 0x20 PUSH0 KECCAK256 SWAP1 JUMPDEST DUP2 SLOAD DUP2 MSTORE SWAP1 PUSH1 0x1 ADD SWAP1 PUSH1 0x20 ADD DUP1 DUP4 GT PUSH2 0x60F JUMPI DUP3 SWAP1 SUB PUSH1 0x1F AND DUP3 ADD SWAP2 JUMPDEST POP POP POP POP POP PUSH2 0x642 JUMP JUMPDEST DUP2 MSTORE POP SWAP1 POP DUP1 SWAP2 POP POP SWAP1 JUMP JUMPDEST PUSH1 0x60 DUP2 PUSH1 0x40 MLOAD PUSH1 0x20 ADD PUSH2 0x655 SWAP2 SWAP1 PUSH2 0xD1F JUMP JUMPDEST PUSH1 0x40 MLOAD PUSH1 0x20 DUP2 DUP4 SUB SUB DUP2 MSTORE SWAP1 PUSH1 0x40 MSTORE SWAP1 POP SWAP2 SWAP1 POP JUMP JUMPDEST PUSH1 0x40 MLOAD DUP1 PUSH1 0x60 ADD PUSH1 0x40 MSTORE DUP1 PUSH1 0x60 DUP2 MSTORE PUSH1 0x20 ADD PUSH1 0x60 DUP2 MSTORE PUSH1 0x20 ADD PUSH1 0x60 DUP2 MSTORE POP SWAP1 JUMP JUMPDEST PUSH0 DUP2 MLOAD SWAP1 POP SWAP2 SWAP1 POP JUMP JUMPDEST PUSH0 DUP3 DUP3 MSTORE PUSH1 0x20 DUP3 ADD SWAP1 POP SWAP3 SWAP2 POP POP JUMP JUMPDEST DUP3 DUP2 DUP4 MCOPY PUSH0 DUP4 DUP4 ADD MSTORE POP POP POP JUMP JUMPDEST PUSH0 PUSH1 0x1F NOT PUSH1 0x1F DUP4 ADD AND SWAP1 POP SWAP2 SWAP1 POP JUMP JUMPDEST PUSH0 PUSH2 0x6CE DUP3 PUSH2 0x68C JUMP JUMPDEST PUSH2 0x6D8 DUP2 DUP6 PUSH2 0x696 JUMP JUMPDEST SWAP4 POP PUSH2 0x6E8 DUP2 DUP6 PUSH1 0x20 DUP7 ADD PUSH2 0x6A6 JUMP JUMPDEST PUSH2 0x6F1 DUP2 PUSH2 0x6B4 JUMP JUMPDEST DUP5 ADD SWAP2 POP POP SWAP3 SWAP2 POP POP JUMP JUMPDEST PUSH0 PUSH1 0x60 DUP4 ADD PUSH0 DUP4 ADD MLOAD DUP5 DUP3 SUB PUSH0 DUP7 ADD MSTORE PUSH2 0x716 DUP3 DUP3 PUSH2 0x6C4 JUMP JUMPDEST SWAP2 POP POP PUSH1 0x20 DUP4 ADD MLOAD DUP5 DUP3 SUB PUSH1 0x20 DUP7 ADD MSTORE PUSH2 0x730 DUP3 DUP3 PUSH2 0x6C4 JUMP JUMPDEST SWAP2 POP POP PUSH1 0x40 DUP4 ADD MLOAD DUP5 DUP3 SUB PUSH1 0x40 DUP7 ADD MSTORE PUSH2 0x74A DUP3 DUP3 PUSH2 0x6C4 JUMP JUMPDEST SWAP2 POP POP DUP1 SWAP2 POP POP SWAP3 SWAP2 POP POP JUMP JUMPDEST PUSH0 PUSH1 0x20 DUP3 ADD SWAP1 POP DUP2 DUP2 SUB PUSH0 DUP4 ADD MSTORE PUSH2 0x76F DUP2 DUP5 PUSH2 0x6FC JUMP JUMPDEST SWAP1 POP SWAP3 SWAP2 POP POP JUMP JUMPDEST PUSH0 PUSH1 0x40 MLOAD SWAP1 POP SWAP1 JUMP JUMPDEST PUSH0 PUSH0 REVERT JUMPDEST PUSH0 PUSH0 REVERT JUMPDEST PUSH0 PUSH0 REVERT JUMPDEST PUSH0 PUSH0 REVERT JUMPDEST PUSH32 0x4E487B7100000000000000000000000000000000000000000000000000000000 PUSH0 MSTORE PUSH1 0x41 PUSH1 0x4 MSTORE PUSH1 0x24 PUSH0 REVERT JUMPDEST PUSH2 0x7C6 DUP3 PUSH2 0x6B4 JUMP JUMPDEST DUP2 ADD DUP2 DUP2 LT PUSH8 0xFFFFFFFFFFFFFFFF DUP3 GT OR ISZERO PUSH2 0x7E5 JUMPI PUSH2 0x7E4 PUSH2 0x790 JUMP JUMPDEST JUMPDEST DUP1 PUSH1 0x40 MSTORE POP POP POP JUMP JUMPDEST PUSH0 PUSH2 0x7F7 PUSH2 0x777 JUMP JUMPDEST SWAP1 POP PUSH2 0x803 DUP3 DUP3 PUSH2 0x7BD JUMP JUMPDEST SWAP2 SWAP1 POP JUMP JUMPDEST PUSH0 PUSH8 0xFFFFFFFFFFFFFFFF DUP3 GT ISZERO PUSH2 0x822 JUMPI PUSH2 0x821 PUSH2 0x790 JUMP JUMPDEST JUMPDEST PUSH2 0x82B DUP3 PUSH2 0x6B4 JUMP JUMPDEST SWAP1 POP PUSH1 0x20 DUP2 ADD SWAP1 POP SWAP2 SWAP1 POP JUMP JUMPDEST DUP3 DUP2 DUP4 CALLDATACOPY PUSH0 DUP4 DUP4 ADD MSTORE POP POP POP JUMP JUMPDEST PUSH0 PUSH2 0x858 PUSH2 0x853 DUP5 PUSH2 0x808 JUMP JUMPDEST PUSH2 0x7EE JUMP JUMPDEST SWAP1 POP DUP3 DUP2 MSTORE PUSH1 0x20 DUP2 ADD DUP5 DUP5 DUP5 ADD GT ISZERO PUSH2 0x874 JUMPI PUSH2 0x873 PUSH2 0x78C JUMP JUMPDEST JUMPDEST PUSH2 0x87F DUP5 DUP3 DUP6 PUSH2 0x838 JUMP JUMPDEST POP SWAP4 SWAP3 POP POP POP JUMP JUMPDEST PUSH0 DUP3 PUSH1 0x1F DUP4 ADD SLT PUSH2 0x89B JUMPI PUSH2 0x89A PUSH2 0x788 JUMP JUMPDEST JUMPDEST DUP2 CALLDATALOAD PUSH2 0x8AB DUP5 DUP3 PUSH1 0x20 DUP7 ADD PUSH2 0x846 JUMP JUMPDEST SWAP2 POP POP SWAP3 SWAP2 POP POP JUMP JUMPDEST PUSH0 PUSH0 PUSH0 PUSH1 0x60 DUP5 DUP7 SUB SLT ISZERO PUSH2 0x8CB JUMPI PUSH2 0x8CA PUSH2 0x780 JUMP JUMPDEST JUMPDEST PUSH0 DUP5 ADD CALLDATALOAD PUSH8 0xFFFFFFFFFFFFFFFF DUP2 GT ISZERO PUSH2 0x8E8 JUMPI PUSH2 0x8E7 PUSH2 0x784 JUMP JUMPDEST JUMPDEST PUSH2 0x8F4 DUP7 DUP3 DUP8 ADD PUSH2 0x887 JUMP JUMPDEST SWAP4 POP POP PUSH1 0x20 DUP5 ADD CALLDATALOAD PUSH8 0xFFFFFFFFFFFFFFFF DUP2 GT ISZERO PUSH2 0x915 JUMPI PUSH2 0x914 PUSH2 0x784 JUMP JUMPDEST JUMPDEST PUSH2 0x921 DUP7 DUP3 DUP8 ADD PUSH2 0x887 JUMP JUMPDEST SWAP3 POP POP PUSH1 0x40 DUP5 ADD CALLDATALOAD PUSH8 0xFFFFFFFFFFFFFFFF DUP2 GT ISZERO PUSH2 0x942 JUMPI PUSH2 0x941 PUSH2 0x784 JUMP JUMPDEST JUMPDEST PUSH2 0x94E DUP7 DUP3 DUP8 ADD PUSH2 0x887 JUMP JUMPDEST SWAP2 POP POP SWAP3 POP SWAP3 POP SWAP3 JUMP JUMPDEST PUSH0 DUP3 DUP3 MSTORE PUSH1 0x20 DUP3 ADD SWAP1 POP SWAP3 SWAP2 POP POP JUMP JUMPDEST PUSH0 PUSH2 0x972 DUP3 PUSH2 0x68C JUMP JUMPDEST PUSH2 0x97C DUP2 DUP6 PUSH2 0x958 JUMP JUMPDEST SWAP4 POP PUSH2 0x98C DUP2 DUP6 PUSH1 0x20 DUP7 ADD PUSH2 0x6A6 JUMP JUMPDEST PUSH2 0x995 DUP2 PUSH2 0x6B4 JUMP JUMPDEST DUP5 ADD SWAP2 POP POP SWAP3 SWAP2 POP POP JUMP JUMPDEST PUSH0 PUSH1 0x60 DUP3 ADD SWAP1 POP DUP2 DUP2 SUB PUSH0 DUP4 ADD MSTORE PUSH2 0x9B8 DUP2 DUP7 PUSH2 0x968 JUMP JUMPDEST SWAP1 POP DUP2 DUP2 SUB PUSH1 0x20 DUP4 ADD MSTORE PUSH2 0x9CC DUP2 DUP6 PUSH2 0x968 JUMP JUMPDEST SWAP1 POP DUP2 DUP2 SUB PUSH1 0x40 DUP4 ADD MSTORE PUSH2 0x9E0 DUP2 DUP5 PUSH2 0x968 JUMP JUMPDEST SWAP1 POP SWAP5 SWAP4 POP POP POP POP JUMP JUMPDEST PUSH32 0x4E487B7100000000000000000000000000000000000000000000000000000000 PUSH0 MSTORE PUSH1 0x22 PUSH1 0x4 MSTORE PUSH1 0x24 PUSH0 REVERT JUMPDEST PUSH0 PUSH1 0x2 DUP3 DIV SWAP1 POP PUSH1 0x1 DUP3 AND DUP1 PUSH2 0xA2E JUMPI PUSH1 0x7F DUP3 AND SWAP2 POP JUMPDEST PUSH1 0x20 DUP3 LT DUP2 SUB PUSH2 0xA41 JUMPI PUSH2 0xA40 PUSH2 0x9EA JUMP JUMPDEST JUMPDEST POP SWAP2 SWAP1 POP JUMP JUMPDEST PUSH0 DUP2 SWAP1 POP DUP2 PUSH0 MSTORE PUSH1 0x20 PUSH0 KECCAK256 SWAP1 POP SWAP2 SWAP1 POP JUMP JUMPDEST PUSH0 PUSH1 0x20 PUSH1 0x1F DUP4 ADD DIV SWAP1 POP SWAP2 SWAP1 POP JUMP JUMPDEST PUSH0 DUP3 DUP3 SHL SWAP1 POP SWAP3 SWAP2 POP POP JUMP JUMPDEST PUSH0 PUSH1 0x8 DUP4 MUL PUSH2 0xAA3 PUSH32 0xFFFFFFFFFFFFFFFFFFFFFFFFFFFFFFFFFFFFFFFFFFFFFFFFFFFFFFFFFFFFFFFF DUP3 PUSH2 0xA68 JUMP JUMPDEST PUSH2 0xAAD DUP7 DUP4 PUSH2 0xA68 JUMP JUMPDEST SWAP6 POP DUP1 NOT DUP5 AND SWAP4 POP DUP1 DUP7 AND DUP5 OR SWAP3 POP POP POP SWAP4 SWAP3 POP POP POP JUMP JUMPDEST PUSH0 DUP2 SWAP1 POP SWAP2 SWAP1 POP JUMP JUMPDEST PUSH0 DUP2 SWAP1 POP SWAP2 SWAP1 POP JUMP JUMPDEST PUSH0 PUSH2 0xAF1 PUSH2 0xAEC PUSH2 0xAE7 DUP5 PUSH2 0xAC5 JUMP JUMPDEST PUSH2 0xACE JUMP JUMPDEST PUSH2 0xAC5 JUMP JUMPDEST SWAP1 POP SWAP2 SWAP1 POP JUMP JUMPDEST PUSH0 DUP2 SWAP1 POP SWAP2 SWAP1 POP JUMP JUMPDEST PUSH2 0xB0A DUP4 PUSH2 0xAD7 JUMP JUMPDEST PUSH2 0xB1E PUSH2 0xB16 DUP3 PUSH2 0xAF8 JUMP JUMPDEST DUP5 DUP5 SLOAD PUSH2 0xA74 JUMP JUMPDEST DUP3 SSTORE POP POP POP POP JUMP JUMPDEST PUSH0 PUSH0 SWAP1 POP SWAP1 JUMP JUMPDEST PUSH2 0xB35 PUSH2 0xB26 JUMP JUMPDEST PUSH2 0xB40 DUP2 DUP5 DUP5 PUSH2 0xB01 JUMP JUMPDEST POP POP POP JUMP JUMPDEST JUMPDEST DUP2 DUP2 LT ISZERO PUSH2 0xB63 JUMPI PUSH2 0xB58 PUSH0 DUP3 PUSH2 0xB2D JUMP JUMPDEST PUSH1 0x1 DUP2 ADD SWAP1 POP PUSH2 0xB46 JUMP JUMPDEST POP POP JUMP JUMPDEST PUSH1 0x1F DUP3 GT ISZERO PUSH2 0xBA8 JUMPI PUSH2 0xB79 DUP2 PUSH2 0xA47 JUMP JUMPDEST PUSH2 0xB82 DUP5 PUSH2 0xA59 JUMP JUMPDEST DUP2 ADD PUSH1 0x20 DUP6 LT ISZERO PUSH2 0xB91 JUMPI DUP2 SWAP1 POP JUMPDEST PUSH2 0xBA5 PUSH2 0xB9D DUP6 PUSH2 0xA59 JUMP JUMPDEST DUP4 ADD DUP3 PUSH2 0xB45 JUMP JUMPDEST POP POP JUMPDEST POP POP POP JUMP JUMPDEST PUSH0 DUP3 DUP3 SHR SWAP1 POP SWAP3 SWAP2 POP POP JUMP JUMPDEST PUSH0 PUSH2 0xBC8 PUSH0 NOT DUP5 PUSH1 0x8 MUL PUSH2 0xBAD JUMP JUMPDEST NOT DUP1 DUP4 AND SWAP2 POP POP SWAP3 SWAP2 POP POP JUMP JUMPDEST PUSH0 PUSH2 0xBE0 DUP4 DUP4 PUSH2 0xBB9 JUMP JUMPDEST SWAP2 POP DUP3 PUSH1 0x2 MUL DUP3 OR SWAP1 POP SWAP3 SWAP2 POP POP JUMP JUMPDEST PUSH2 0xBF9 DUP3 PUSH2 0x68C JUMP JUMPDEST PUSH8 0xFFFFFFFFFFFFFFFF DUP2 GT ISZERO PUSH2 0xC12 JUMPI PUSH2 0xC11 PUSH2 0x790 JUMP JUMPDEST JUMPDEST PUSH2 0xC1C DUP3 SLOAD PUSH2 0xA17 JUMP JUMPDEST PUSH2 0xC27 DUP3 DUP3 DUP6 PUSH2 0xB67 JUMP JUMPDEST PUSH0 PUSH1 0x20 SWAP1 POP PUSH1 0x1F DUP4 GT PUSH1 0x1 DUP2 EQ PUSH2 0xC58 JUMPI PUSH0 DUP5 ISZERO PUSH2 0xC46 JUMPI DUP3 DUP8 ADD MLOAD SWAP1 POP JUMPDEST PUSH2 0xC50 DUP6 DUP3 PUSH2 0xBD5 JUMP JUMPDEST DUP7 SSTORE POP PUSH2 0xCB7 JUMP JUMPDEST PUSH1 0x1F NOT DUP5 AND PUSH2 0xC66 DUP7 PUSH2 0xA47 JUMP JUMPDEST PUSH0 JUMPDEST DUP3 DUP2 LT ISZERO PUSH2 0xC8D JUMPI DUP5 DUP10 ADD MLOAD DUP3 SSTORE PUSH1 0x1 DUP3 ADD SWAP2 POP PUSH1 0x20 DUP6 ADD SWAP5 POP PUSH1 0x20 DUP2 ADD SWAP1 POP PUSH2 0xC68 JUMP JUMPDEST DUP7 DUP4 LT ISZERO PUSH2 0xCAA JUMPI DUP5 DUP10 ADD MLOAD PUSH2 0xCA6 PUSH1 0x1F DUP10 AND DUP3 PUSH2 0xBB9 JUMP JUMPDEST DUP4 SSTORE POP JUMPDEST PUSH1 0x1 PUSH1 0x2 DUP9 MUL ADD DUP9 SSTORE POP POP POP JUMPDEST POP POP POP POP POP POP JUMP JUMPDEST PUSH0 DUP2 SWAP1 POP SWAP3 SWAP2 POP POP JUMP JUMPDEST PUSH0 PUSH2 0xCD3 DUP3 PUSH2 0x68C JUMP JUMPDEST PUSH2 0xCDD DUP2 DUP6 PUSH2 0xCBF JUMP JUMPDEST SWAP4 POP PUSH2 0xCED DUP2 DUP6 PUSH1 0x20 DUP7 ADD PUSH2 0x6A6 JUMP JUMPDEST DUP1 DUP5 ADD SWAP2 POP POP SWAP3 SWAP2 POP POP JUMP JUMPDEST PUSH32 0x20F09FA4B7000000000000000000000000000000000000000000000000000000 DUP2 MSTORE POP JUMP JUMPDEST PUSH0 PUSH2 0xD2A DUP3 DUP5 PUSH2 0xCC9 JUMP JUMPDEST SWAP2 POP PUSH2 0xD35 DUP3 PUSH2 0xCF9 JUMP JUMPDEST PUSH1 0x5 DUP3 ADD SWAP2 POP DUP2 SWAP1 POP SWAP3 SWAP2 POP POP JUMP INVALID LOG2 PUSH5 0x6970667358 0x22 SLT KECCAK256 CODESIZE PUSH24 0xF58C223DDE408AB3692D898D7202F1A1D2B6ABC638ABAEF0 0x25 DUP10 0xD2 PUSH19 0x2DE464736F6C634300081E0033000000000000 "
		},
		"gasEstimates": {
			"creation": {
				"codeDepositCost": "690000",
				"executionCost": "719",
				"totalCost": "690719"
			},
			"external": {
				"getHaiku()": "infinite",
				"haiku()": "infinite",
				"saveHaiku(string,string,string)": "infinite",
				"shruggieHaiku()": "infinite"
			}
		},
		"methodIdentifiers": {
			"getHaiku()": "25eb69a9",
			"haiku()": "728d3c07",
			"saveHaiku(string,string,string)": "583dc769",
			"shruggieHaiku()": "8346cbef"
		}
	},
	"abi": [
		{
			"inputs": [],
			"name": "getHaiku",
			"outputs": [
				{
					"components": [
						{
							"internalType": "string",
							"name": "line1",
							"type": "string"
						},
						{
							"internalType": "string",
							"name": "line2",
							"type": "string"
						},
						{
							"internalType": "string",
							"name": "line3",
							"type": "string"
						}
					],
					"internalType": "struct SillyStringUtils.Haiku",
					"name": "",
					"type": "tuple"
				}
			],
			"stateMutability": "view",
			"type": "function"
		},
		{
			"inputs": [],
			"name": "haiku",
			"outputs": [
				{
					"internalType": "string",
					"name": "line1",
					"type": "string"
				},
				{
					"internalType": "string",
					"name": "line2",
					"type": "string"
				},
				{
					"internalType": "string",
					"name": "line3",
					"type": "string"
				}
			],
			"stateMutability": "view",
			"type": "function"
		},
		{
			"inputs": [
				{
					"internalType": "string",
					"name": "_line1",
					"type": "string"
				},
				{
					"internalType": "string",
					"name": "_line2",
					"type": "string"
				},
				{
					"internalType": "string",
					"name": "_line3",
					"type": "string"
				}
			],
			"name": "saveHaiku",
			"outputs": [],
			"stateMutability": "nonpayable",
			"type": "function"
		},
		{
			"inputs": [],
			"name": "shruggieHaiku",
			"outputs": [
				{
					"components": [
						{
							"internalType": "string",
							"name": "line1",
							"type": "string"
						},
						{
							"internalType": "string",
							"name": "line2",
							"type": "string"
						},
						{
							"internalType": "string",
							"name": "line3",
							"type": "string"
						}
					],
					"internalType": "struct SillyStringUtils.Haiku",
					"name": "",
					"type": "tuple"
				}
			],
			"stateMutability": "view",
			"type": "function"
		}
	]
}